{
  "_format": "hh-sol-artifact-1",
  "contractName": "SAFTToken",
  "sourceName": "contracts/SAFTToken.sol",
  "abi": [
    {
      "inputs": [
        {
          "internalType": "address",
          "name": "_owner",
          "type": "address"
        },
        {
          "internalType": "bytes32",
          "name": "_merkleRoot",
          "type": "bytes32"
        },
        {
          "internalType": "string",
          "name": "metadataUri",
          "type": "string"
        },
        {
          "internalType": "uint256",
          "name": "totalSupply",
          "type": "uint256"
        },
        {
          "internalType": "uint256",
          "name": "_pricePerToken",
          "type": "uint256"
        },
        {
          "internalType": "address",
          "name": "_executorManager",
          "type": "address"
        },
        {
          "internalType": "uint256",
          "name": "_serviceFee",
          "type": "uint256"
        },
        {
          "internalType": "uint256",
          "name": "_platformFee",
          "type": "uint256"
        },
        {
          "internalType": "address",
          "name": "_baseToken",
          "type": "address"
        },
        {
          "internalType": "address",
          "name": "_platformTreasury",
          "type": "address"
        },
        {
          "internalType": "address",
          "name": "_tradingWallet",
          "type": "address"
        }
      ],
      "stateMutability": "nonpayable",
      "type": "constructor"
    },
    {
      "anonymous": false,
      "inputs": [
        {
          "indexed": true,
          "internalType": "address",
          "name": "account",
          "type": "address"
        },
        {
          "indexed": true,
          "internalType": "address",
          "name": "operator",
          "type": "address"
        },
        {
          "indexed": false,
          "internalType": "bool",
          "name": "approved",
          "type": "bool"
        }
      ],
      "name": "ApprovalForAll",
      "type": "event"
    },
    {
      "anonymous": false,
      "inputs": [
        {
          "indexed": true,
          "internalType": "address",
          "name": "executor",
          "type": "address"
        },
        {
          "indexed": true,
          "internalType": "uint256",
          "name": "bundleNonce",
          "type": "uint256"
        },
        {
          "indexed": false,
          "internalType": "bytes32",
          "name": "bundleHash",
          "type": "bytes32"
        },
        {
          "indexed": false,
          "internalType": "uint256",
          "name": "timestamp",
          "type": "uint256"
        }
      ],
      "name": "BundleProcessed",
      "type": "event"
    },
    {
      "anonymous": false,
      "inputs": [
        {
          "indexed": true,
          "internalType": "bytes32",
          "name": "role",
          "type": "bytes32"
        },
        {
          "indexed": true,
          "internalType": "bytes32",
          "name": "previousAdminRole",
          "type": "bytes32"
        },
        {
          "indexed": true,
          "internalType": "bytes32",
          "name": "newAdminRole",
          "type": "bytes32"
        }
      ],
      "name": "RoleAdminChanged",
      "type": "event"
    },
    {
      "anonymous": false,
      "inputs": [
        {
          "indexed": true,
          "internalType": "bytes32",
          "name": "role",
          "type": "bytes32"
        },
        {
          "indexed": true,
          "internalType": "address",
          "name": "account",
          "type": "address"
        },
        {
          "indexed": true,
          "internalType": "address",
          "name": "sender",
          "type": "address"
        }
      ],
      "name": "RoleGranted",
      "type": "event"
    },
    {
      "anonymous": false,
      "inputs": [
        {
          "indexed": true,
          "internalType": "bytes32",
          "name": "role",
          "type": "bytes32"
        },
        {
          "indexed": true,
          "internalType": "address",
          "name": "account",
          "type": "address"
        },
        {
          "indexed": true,
          "internalType": "address",
          "name": "sender",
          "type": "address"
        }
      ],
      "name": "RoleRevoked",
      "type": "event"
    },
    {
      "anonymous": false,
      "inputs": [
        {
          "indexed": true,
          "internalType": "address",
          "name": "operator",
          "type": "address"
        },
        {
          "indexed": true,
          "internalType": "address",
          "name": "from",
          "type": "address"
        },
        {
          "indexed": true,
          "internalType": "address",
          "name": "to",
          "type": "address"
        },
        {
          "indexed": false,
          "internalType": "uint256[]",
          "name": "ids",
          "type": "uint256[]"
        },
        {
          "indexed": false,
          "internalType": "uint256[]",
          "name": "values",
          "type": "uint256[]"
        }
      ],
      "name": "TransferBatch",
      "type": "event"
    },
    {
      "anonymous": false,
      "inputs": [
        {
          "indexed": true,
          "internalType": "address",
          "name": "operator",
          "type": "address"
        },
        {
          "indexed": true,
          "internalType": "address",
          "name": "from",
          "type": "address"
        },
        {
          "indexed": true,
          "internalType": "address",
          "name": "to",
          "type": "address"
        },
        {
          "indexed": false,
          "internalType": "uint256",
          "name": "id",
          "type": "uint256"
        },
        {
          "indexed": false,
          "internalType": "uint256",
          "name": "value",
          "type": "uint256"
        }
      ],
      "name": "TransferSingle",
      "type": "event"
    },
    {
      "anonymous": false,
      "inputs": [
        {
          "indexed": false,
          "internalType": "string",
          "name": "value",
          "type": "string"
        },
        {
          "indexed": true,
          "internalType": "uint256",
          "name": "id",
          "type": "uint256"
        }
      ],
      "name": "URI",
      "type": "event"
    },
    {
      "inputs": [],
      "name": "DEFAULT_ADMIN_ROLE",
      "outputs": [
        {
          "internalType": "bytes32",
          "name": "",
          "type": "bytes32"
        }
      ],
      "stateMutability": "view",
      "type": "function"
    },
    {
      "inputs": [],
      "name": "EXECUTOR_ROLE",
      "outputs": [
        {
          "internalType": "bytes32",
          "name": "",
          "type": "bytes32"
        }
      ],
      "stateMutability": "view",
      "type": "function"
    },
    {
      "inputs": [
        {
          "internalType": "address",
          "name": "account",
          "type": "address"
        },
        {
          "internalType": "uint256",
          "name": "id",
          "type": "uint256"
        }
      ],
      "name": "balanceOf",
      "outputs": [
        {
          "internalType": "uint256",
          "name": "",
          "type": "uint256"
        }
      ],
      "stateMutability": "view",
      "type": "function"
    },
    {
      "inputs": [
        {
          "internalType": "address[]",
          "name": "accounts",
          "type": "address[]"
        },
        {
          "internalType": "uint256[]",
          "name": "ids",
          "type": "uint256[]"
        }
      ],
      "name": "balanceOfBatch",
      "outputs": [
        {
          "internalType": "uint256[]",
          "name": "",
          "type": "uint256[]"
        }
      ],
      "stateMutability": "view",
      "type": "function"
    },
    {
      "inputs": [],
      "name": "baseToken",
      "outputs": [
        {
          "internalType": "contract IERC20",
          "name": "",
          "type": "address"
        }
      ],
      "stateMutability": "view",
      "type": "function"
    },
    {
      "inputs": [],
      "name": "executorManager",
      "outputs": [
        {
          "internalType": "contract IExecutorManager",
          "name": "",
          "type": "address"
        }
      ],
      "stateMutability": "view",
      "type": "function"
    },
    {
      "inputs": [
        {
          "internalType": "bytes32",
          "name": "role",
          "type": "bytes32"
        }
      ],
      "name": "getRoleAdmin",
      "outputs": [
        {
          "internalType": "bytes32",
          "name": "",
          "type": "bytes32"
        }
      ],
      "stateMutability": "view",
      "type": "function"
    },
    {
      "inputs": [
        {
          "internalType": "bytes32",
          "name": "role",
          "type": "bytes32"
        },
        {
          "internalType": "address",
          "name": "account",
          "type": "address"
        }
      ],
      "name": "grantRole",
      "outputs": [],
      "stateMutability": "nonpayable",
      "type": "function"
    },
    {
      "inputs": [
        {
          "internalType": "bytes32",
          "name": "role",
          "type": "bytes32"
        },
        {
          "internalType": "address",
          "name": "account",
          "type": "address"
        }
      ],
      "name": "hasRole",
      "outputs": [
        {
          "internalType": "bool",
          "name": "",
          "type": "bool"
        }
      ],
      "stateMutability": "view",
      "type": "function"
    },
    {
      "inputs": [
        {
          "internalType": "address",
          "name": "",
          "type": "address"
        },
        {
          "internalType": "address",
          "name": "operator",
          "type": "address"
        }
      ],
      "name": "isApprovedForAll",
      "outputs": [
        {
          "internalType": "bool",
          "name": "",
          "type": "bool"
        }
      ],
      "stateMutability": "view",
      "type": "function"
    },
    {
      "inputs": [
        {
          "internalType": "bytes32[]",
          "name": "merkleProof",
          "type": "bytes32[]"
        }
      ],
      "name": "isWhitelisted",
      "outputs": [
        {
          "internalType": "bool",
          "name": "",
          "type": "bool"
        }
      ],
      "stateMutability": "view",
      "type": "function"
    },
    {
      "inputs": [
        {
          "internalType": "uint256",
          "name": "",
          "type": "uint256"
        }
      ],
      "name": "lockingFlags",
      "outputs": [
        {
          "internalType": "bool",
          "name": "",
          "type": "bool"
        }
      ],
      "stateMutability": "view",
      "type": "function"
    },
    {
      "inputs": [],
      "name": "merkleRoot",
      "outputs": [
        {
          "internalType": "bytes32",
          "name": "",
          "type": "bytes32"
        }
      ],
      "stateMutability": "view",
      "type": "function"
    },
    {
      "inputs": [],
      "name": "platformFee",
      "outputs": [
        {
          "internalType": "uint256",
          "name": "",
          "type": "uint256"
        }
      ],
      "stateMutability": "view",
      "type": "function"
    },
    {
      "inputs": [],
      "name": "platformTreasury",
      "outputs": [
        {
          "internalType": "address",
          "name": "",
          "type": "address"
        }
      ],
      "stateMutability": "view",
      "type": "function"
    },
    {
      "inputs": [],
      "name": "pricePerToken",
      "outputs": [
        {
          "internalType": "uint256",
          "name": "",
          "type": "uint256"
        }
      ],
      "stateMutability": "view",
      "type": "function"
    },
    {
      "inputs": [
        {
          "internalType": "bytes",
          "name": "bundleData",
          "type": "bytes"
        },
        {
          "internalType": "uint256",
          "name": "bundleNonce",
          "type": "uint256"
        }
      ],
      "name": "processBundle",
      "outputs": [],
      "stateMutability": "nonpayable",
      "type": "function"
    },
    {
      "inputs": [
        {
          "internalType": "bytes32",
          "name": "role",
          "type": "bytes32"
        },
        {
          "internalType": "address",
          "name": "account",
          "type": "address"
        }
      ],
      "name": "renounceRole",
      "outputs": [],
      "stateMutability": "nonpayable",
      "type": "function"
    },
    {
      "inputs": [
        {
          "internalType": "bytes32",
          "name": "role",
          "type": "bytes32"
        },
        {
          "internalType": "address",
          "name": "account",
          "type": "address"
        }
      ],
      "name": "revokeRole",
      "outputs": [],
      "stateMutability": "nonpayable",
      "type": "function"
    },
    {
      "inputs": [
        {
          "internalType": "address",
          "name": "from",
          "type": "address"
        },
        {
          "internalType": "address",
          "name": "to",
          "type": "address"
        },
        {
          "internalType": "uint256[]",
          "name": "ids",
          "type": "uint256[]"
        },
        {
          "internalType": "uint256[]",
          "name": "amounts",
          "type": "uint256[]"
        },
        {
          "internalType": "bytes",
          "name": "data",
          "type": "bytes"
        }
      ],
      "name": "safeBatchTransferFrom",
      "outputs": [],
      "stateMutability": "nonpayable",
      "type": "function"
    },
    {
      "inputs": [
        {
          "internalType": "address",
          "name": "from",
          "type": "address"
        },
        {
          "internalType": "address",
          "name": "to",
          "type": "address"
        },
        {
          "internalType": "uint256",
          "name": "id",
          "type": "uint256"
        },
        {
          "internalType": "uint256",
          "name": "amount",
          "type": "uint256"
        },
        {
          "internalType": "bytes",
          "name": "data",
          "type": "bytes"
        }
      ],
      "name": "safeTransferFrom",
      "outputs": [],
      "stateMutability": "nonpayable",
      "type": "function"
    },
    {
      "inputs": [],
      "name": "serviceFee",
      "outputs": [
        {
          "internalType": "uint256",
          "name": "",
          "type": "uint256"
        }
      ],
      "stateMutability": "view",
      "type": "function"
    },
    {
      "inputs": [
        {
          "internalType": "address",
          "name": "operator",
          "type": "address"
        },
        {
          "internalType": "bool",
          "name": "approved",
          "type": "bool"
        }
      ],
      "name": "setApprovalForAll",
      "outputs": [],
      "stateMutability": "nonpayable",
      "type": "function"
    },
    {
      "inputs": [
        {
          "internalType": "address",
          "name": "_executorManager",
          "type": "address"
        }
      ],
      "name": "setExecutorManager",
      "outputs": [],
      "stateMutability": "nonpayable",
      "type": "function"
    },
    {
      "inputs": [
        {
          "internalType": "bytes32",
          "name": "_merkleRoot",
          "type": "bytes32"
        }
      ],
      "name": "setMerkleRoot",
      "outputs": [],
      "stateMutability": "nonpayable",
      "type": "function"
    },
    {
      "inputs": [
        {
          "internalType": "bytes4",
          "name": "interfaceId",
          "type": "bytes4"
        }
      ],
      "name": "supportsInterface",
      "outputs": [
        {
          "internalType": "bool",
          "name": "",
          "type": "bool"
        }
      ],
      "stateMutability": "view",
      "type": "function"
    },
    {
      "inputs": [],
      "name": "tradingWallet",
      "outputs": [
        {
          "internalType": "contract ITradingWallet",
          "name": "",
          "type": "address"
        }
      ],
      "stateMutability": "view",
      "type": "function"
    },
    {
      "inputs": [
        {
          "internalType": "uint256",
          "name": "",
          "type": "uint256"
        }
      ],
      "name": "uri",
      "outputs": [
        {
          "internalType": "string",
          "name": "",
          "type": "string"
        }
      ],
      "stateMutability": "view",
      "type": "function"
    },
    {
      "inputs": [
        {
          "internalType": "uint256",
          "name": "amount",
          "type": "uint256"
        },
        {
          "internalType": "bytes",
          "name": "data",
          "type": "bytes"
        },
        {
          "internalType": "bytes32[]",
          "name": "merkleProof",
          "type": "bytes32[]"
        }
      ],
      "name": "whitelistMint",
      "outputs": [],
      "stateMutability": "nonpayable",
      "type": "function"
    }
  ],
  "bytecode": "0x60806040523480156200001157600080fd5b50604051620032ff380380620032ff8339810160408190526200003491620006d0565b8862000040816200014e565b506001600160a01b038b166200009d5760405162461bcd60e51b815260206004820152601d60248201527f4f776e657220616464726573732063616e6e6f7420626520656d70747900000060448201526064015b60405180910390fd5b60068054620000d1913391906000620000b6836200081c565b909155506040805160208101909152600081528b9062000160565b620000de6000336200028f565b600499909955600893909355600991909155600793909355600d80546001600160a01b03199081166001600160a01b0393841617909155600b8054821693831693909317909255600a8054831693821693909317909255600c805490911691909416179092555062000b48915050565b60026200015c8282620008c3565b5050565b6001600160a01b038416620001c25760405162461bcd60e51b815260206004820152602160248201527f455243313135353a206d696e7420746f20746865207a65726f206164647265736044820152607360f81b606482015260840162000094565b336000620001d0856200029b565b90506000620001df856200029b565b9050620001f283600089858589620002e9565b6000868152602081815260408083206001600160a01b038b16845290915281208054879290620002249084906200098f565b909155505060408051878152602081018790526001600160a01b03808a1692600092918716917fc3d58168c5ae7397731d063d5bbf3d657854427343f4c083240f7aacaa2d0f62910160405180910390a4620002868360008989898962000371565b50505050505050565b6200015c828262000529565b60408051600180825281830190925260609160009190602080830190803683370190505090508281600081518110620002d857620002d8620009a5565b602090810291909101015292915050565b6001600160a01b038516156200035357620003058587620005cd565b620003535760405162461bcd60e51b815260206004820152601560248201527f5472616e73666572206e6f7420617070726f7665640000000000000000000000604482015260640162000094565b620003698686868686866001600160e01b038716565b505050505050565b6001600160a01b0384163b15620003695760405163f23a6e6160e01b81526001600160a01b0385169063f23a6e6190620003b89089908990889088908890600401620009e9565b6020604051808303816000875af1925050508015620003f6575060408051601f3d908101601f19168201909252620003f39181019062000a30565b60015b620004b6576200040562000a63565b806308c379a0036200044557506200041c62000a80565b8062000429575062000447565b8060405162461bcd60e51b815260040162000094919062000b0f565b505b60405162461bcd60e51b815260206004820152603460248201527f455243313135353a207472616e7366657220746f206e6f6e2d4552433131353560448201527f526563656976657220696d706c656d656e746572000000000000000000000000606482015260840162000094565b6001600160e01b0319811663f23a6e6160e01b14620002865760405162461bcd60e51b815260206004820152602860248201527f455243313135353a204552433131353552656365697665722072656a656374656044820152676420746f6b656e7360c01b606482015260840162000094565b60008281526003602090815260408083206001600160a01b038516845290915290205460ff166200015c5760008281526003602090815260408083206001600160a01b03851684529091529020805460ff19166001179055620005893390565b6001600160a01b0316816001600160a01b0316837f2f8788117e7eff1d82e926ec794901d17c78024a50270940304540a733656f0d60405160405180910390a45050565b600b54604051630debfda360e41b81526001600160a01b038381166004830152600092169063debfda3090602401602060405180830381865afa15801562000619573d6000803e3d6000fd5b505050506040513d601f19601f820116820180604052508101906200063f919062000b24565b90505b92915050565b80516001600160a01b03811681146200066057600080fd5b919050565b634e487b7160e01b600052604160045260246000fd5b601f8201601f191681016001600160401b0381118282101715620006a357620006a362000665565b6040525050565b60005b83811015620006c7578181015183820152602001620006ad565b50506000910152565b60008060008060008060008060008060006101608c8e031215620006f357600080fd5b620006fe8c62000648565b60208d015160408e0151919c509a506001600160401b03808211156200072357600080fd5b818e0191508e601f8301126200073857600080fd5b8151818111156200074d576200074d62000665565b604051915062000768601f8201601f1916602001836200067b565b8082528f60208285010111156200077e57600080fd5b62000791816020840160208601620006aa565b50809a50505060608c0151975060808c01519650620007b360a08d0162000648565b955060c08c0151945060e08c01519350620007d26101008d0162000648565b9250620007e36101208d0162000648565b9150620007f46101408d0162000648565b90509295989b509295989b9093969950565b634e487b7160e01b600052601160045260246000fd5b60006001820162000831576200083162000806565b5060010190565b600181811c908216806200084d57607f821691505b6020821081036200086e57634e487b7160e01b600052602260045260246000fd5b50919050565b601f821115620008be57600081815260208120601f850160051c810160208610156200089d5750805b601f850160051c820191505b818110156200036957828155600101620008a9565b505050565b81516001600160401b03811115620008df57620008df62000665565b620008f781620008f0845462000838565b8462000874565b602080601f8311600181146200092f5760008415620009165750858301515b600019600386901b1c1916600185901b17855562000369565b600085815260208120601f198616915b8281101562000960578886015182559484019460019091019084016200093f565b50858210156200097f5787850151600019600388901b60f8161c191681555b5050505050600190811b01905550565b8082018082111562000642576200064262000806565b634e487b7160e01b600052603260045260246000fd5b60008151808452620009d5816020860160208601620006aa565b601f01601f19169290920160200192915050565b6001600160a01b03868116825285166020820152604081018490526060810183905260a06080820181905260009062000a2590830184620009bb565b979650505050505050565b60006020828403121562000a4357600080fd5b81516001600160e01b03198116811462000a5c57600080fd5b9392505050565b600060033d111562000a7d5760046000803e5060005160e01c5b90565b600060443d101562000a8f5790565b6040516003193d81016004833e81513d6001600160401b03808311602484018310171562000abf57505050505090565b828501915081518181111562000ad85750505050505090565b843d870101602082850101111562000af35750505050505090565b62000b04602082860101876200067b565b509095945050505050565b6020815260006200063f6020830184620009bb565b60006020828403121562000b3757600080fd5b8151801515811462000a5c57600080fd5b6127a78062000b586000396000f3fe608060405234801561001057600080fd5b50600436106101ce5760003560e01c80634e1273f411610104578063c0883b92116100a2578063e138818c11610071578063e138818c14610406578063e985e9c514610419578063ef0d45721461042c578063f242432a1461043f57600080fd5b8063c0883b92146103ba578063c3ae2b78146103cd578063c55dae63146103e0578063d547741f146103f357600080fd5b80638abdf5aa116100de5780638abdf5aa1461038357806391d148541461038c578063a217fddf1461039f578063a22cb465146103a757600080fd5b80634e1273f4146103475780637b1b1de6146103675780637cb647591461037057600080fd5b806326232a2e116101715780632ecc61601161014b5780632ecc6160146102eb5780632f2ff15d1461030e57806336568abe146103215780633e352e621461033457600080fd5b806326232a2e146102c45780632eb2c2d6146102cd5780632eb4a7ab146102e257600080fd5b806307bd0265116101ad57806307bd02651461022f5780630e89341c14610256578063207f185014610276578063248a9ca3146102a157600080fd5b8062fdd58e146101d357806301ffc9a7146101f9578063069824fb1461021c575b600080fd5b6101e66101e1366004611baf565b610452565b6040519081526020015b60405180910390f35b61020c610207366004611bf1565b6104eb565b60405190151581526020016101f0565b61020c61022a366004611c59565b610505565b6101e67fd8aa0f3194971a2a116679f7c2090f6939c8d4e01a2a8d7e41d55e5351469e6381565b610269610264366004611c9a565b610589565b6040516101f09190611d03565b600c54610289906001600160a01b031681565b6040516001600160a01b0390911681526020016101f0565b6101e66102af366004611c9a565b60009081526003602052604090206001015490565b6101e660095481565b6102e06102db366004611e5f565b61061d565b005b6101e660045481565b61020c6102f9366004611c9a565b60056020526000908152604090205460ff1681565b6102e061031c366004611f0c565b610669565b6102e061032f366004611f0c565b610693565b6102e0610342366004611f3c565b610711565b61035a610355366004611fb3565b610c19565b6040516101f091906120ba565b6101e660075481565b6102e061037e366004611c9a565b610d42565b6101e660085481565b61020c61039a366004611f0c565b610d53565b6101e6600081565b6102e06103b53660046120db565b610d7e565b600b54610289906001600160a01b031681565b6102e06103db366004612109565b610d89565b600a54610289906001600160a01b031681565b6102e0610401366004611f0c565b610ea4565b600d54610289906001600160a01b031681565b61020c610427366004612178565b610ec9565b6102e061043a3660046121a6565b610f3f565b6102e061044d3660046121c3565b610f6d565b60006001600160a01b0383166104c25760405162461bcd60e51b815260206004820152602a60248201527f455243313135353a2061646472657373207a65726f206973206e6f742061207660448201526930b634b21037bbb732b960b11b60648201526084015b60405180910390fd5b506000818152602081815260408083206001600160a01b03861684529091529020545b92915050565b60006104f682610fb2565b806104e557506104e582611002565b6040516bffffffffffffffffffffffff193360601b1660208201526000908190603401604051602081830303815290604052805190602001209050610581848480806020026020016040519081016040528093929190818152602001838360200280828437600092019190915250506004549150849050611027565b949350505050565b6060600280546105989061222b565b80601f01602080910402602001604051908101604052809291908181526020018280546105c49061222b565b80156106115780601f106105e657610100808354040283529160200191610611565b820191906000526020600020905b8154815290600101906020018083116105f457829003601f168201915b50505050509050919050565b6001600160a01b03851633148061063957506106398533610ec9565b6106555760405162461bcd60e51b81526004016104b990612265565b610662858585858561103d565b5050505050565b60008281526003602052604090206001015461068481611228565b61068e8383611235565b505050565b6001600160a01b03811633146107035760405162461bcd60e51b815260206004820152602f60248201527f416363657373436f6e74726f6c3a2063616e206f6e6c792072656e6f756e636560448201526e103937b632b9903337b91039b2b63360891b60648201526084016104b9565b61070d82826112bb565b5050565b600b54604051630debfda360e41b81523360048201526001600160a01b039091169063debfda3090602401602060405180830381865afa158015610759573d6000803e3d6000fd5b505050506040513d601f19601f8201168201806040525081019061077d91906122b3565b6107d55760405162461bcd60e51b8152602060048201526024808201527f43616c6c6572206973206e6f7420616e20617574686f72697a656420657865636044820152633aba37b960e11b60648201526084016104b9565b60005b82811015610bbc5760008080808785886107f38260686122e6565b92610800939291906122f9565b81019061080d9190612323565b9350935093509350806108208484610452565b10156108795760405162461bcd60e51b815260206004820152602260248201527f53656c6c657220646f6573206e6f74206861766520656e6f75676820746f6b656044820152616e7360f01b60648201526084016104b9565b6000600754826108899190612369565b9050600060646008548361089d9190612369565b6108a79190612380565b905060006064600954846108bb9190612369565b6108c59190612380565b90506000816108d484866122e6565b6108de91906122e6565b600c54600a546040516330ea258b60e21b81526001600160a01b038c811660048301529182166024820152929350839291169063c3a8962c90604401602060405180830381865afa158015610937573d6000803e3d6000fd5b505050506040513d601f19601f8201168201806040525081019061095b91906123a2565b10156109b35760405162461bcd60e51b815260206004820152602160248201527f427579657220646f6573206e6f74206861766520656e6f75676820746f6b656e6044820152607360f81b60648201526084016104b9565b60408051600280825260608201835260009260208301908036833701905050905088816000815181106109e8576109e86123bb565b60200260200101906001600160a01b031690816001600160a01b0316815250508881600181518110610a1c57610a1c6123bb565b6001600160a01b039290921660209283029190910182015260408051600280825260608201835260009391929091830190803683370190505090508881600081518110610a6b57610a6b6123bb565b6001600160a01b039283166020918202929092010152600d54825191169082906001908110610a9c57610a9c6123bb565b6001600160a01b039290921660209283029190910182015260408051600280825260608201835260009391929091830190803683370190505090508581600081518110610aeb57610aeb6123bb565b6020026020010181815250508481600181518110610b0b57610b0b6123bb565b6020908102919091010152600c54600a54604051630e10644160e21b81526001600160a01b0392831692633841910492610b4f92889288921690879060040161240a565b600060405180830381600087803b158015610b6957600080fd5b505af1158015610b7d573d6000803e3d6000fd5b50505050610b9d8a8c8b8b60405180602001604052806000815250610f6d565b5050505050505050505050606881610bb591906122e6565b90506107d8565b5060008383604051610bcf92919061245d565b604080519182900382208083524260208401529250839133917f78202e946262627c432f6c5b92fee2a7224c9aabdb3c71f747fccbad2fb470a4910160405180910390a350505050565b60608151835114610c7e5760405162461bcd60e51b815260206004820152602960248201527f455243313135353a206163636f756e747320616e6420696473206c656e677468604482015268040dad2e6dac2e8c6d60bb1b60648201526084016104b9565b600083516001600160401b03811115610c9957610c99611d16565b604051908082528060200260200182016040528015610cc2578160200160208202803683370190505b50905060005b8451811015610d3a57610d0d858281518110610ce657610ce66123bb565b6020026020010151858381518110610d0057610d006123bb565b6020026020010151610452565b828281518110610d1f57610d1f6123bb565b6020908102919091010152610d338161246d565b9050610cc8565b509392505050565b6000610d4d81611228565b50600455565b60009182526003602090815260408084206001600160a01b0393909316845291905290205460ff1690565b61070d338383611322565b60065460008181526005602052604090205460ff1615610df95760405162461bcd60e51b815260206004820152602560248201527f546f6b656e2069732063757272656e746c79206c6f636b656420666f72206d696044820152646e74696e6760d81b60648201526084016104b9565b610e038383610505565b610e4f5760405162461bcd60e51b815260206004820152601960248201527f43616c6c6572206973206e6f742077686974656c69737465640000000000000060448201526064016104b9565b6000818152600560205260409020805460ff19166001179055610e7433828787611402565b6000818152600560205260408120805460ff191690556006805491610e988361246d565b91905055505050505050565b600082815260036020526040902060010154610ebf81611228565b61068e83836112bb565b600b54604051630debfda360e41b81526001600160a01b038381166004830152600092169063debfda3090602401602060405180830381865afa158015610f14573d6000803e3d6000fd5b505050506040513d601f19601f82011682018060405250810190610f3891906122b3565b9392505050565b6000610f4a81611228565b50600b80546001600160a01b0319166001600160a01b0392909216919091179055565b6001600160a01b038516331480610f895750610f898533610ec9565b610fa55760405162461bcd60e51b81526004016104b990612265565b6106628585858585611525565b60006001600160e01b03198216636cdb3d1360e11b1480610fe357506001600160e01b031982166303a24d0760e21b145b806104e557506301ffc9a760e01b6001600160e01b03198316146104e5565b60006001600160e01b03198216637965db0b60e01b14806104e557506104e582610fb2565b600082611034858461165d565b14949350505050565b815183511461109f5760405162461bcd60e51b815260206004820152602860248201527f455243313135353a2069647320616e6420616d6f756e7473206c656e677468206044820152670dad2e6dac2e8c6d60c31b60648201526084016104b9565b6001600160a01b0384166110c55760405162461bcd60e51b81526004016104b990612486565b336110d48187878787876116a2565b60005b84518110156111ba5760008582815181106110f4576110f46123bb565b602002602001015190506000858381518110611112576111126123bb565b602090810291909101810151600084815280835260408082206001600160a01b038e1683529093529190912054909150818110156111625760405162461bcd60e51b81526004016104b9906124cb565b6000838152602081815260408083206001600160a01b038e8116855292528083208585039055908b1682528120805484929061119f9084906122e6565b92505081905550505050806111b39061246d565b90506110d7565b50846001600160a01b0316866001600160a01b0316826001600160a01b03167f4a39dc06d4c0dbc64b70af90fd698a233a518aa5d07e595d983b8c0526c8f7fb878760405161120a929190612515565b60405180910390a4611220818787878787611704565b505050505050565b611232813361185f565b50565b61123f8282610d53565b61070d5760008281526003602090815260408083206001600160a01b03851684529091529020805460ff191660011790556112773390565b6001600160a01b0316816001600160a01b0316837f2f8788117e7eff1d82e926ec794901d17c78024a50270940304540a733656f0d60405160405180910390a45050565b6112c58282610d53565b1561070d5760008281526003602090815260408083206001600160a01b0385168085529252808320805460ff1916905551339285917ff6391f5c32d9c69d2a47ea670b442974b53935d1edc7fd64eb21e047a839171b9190a45050565b816001600160a01b0316836001600160a01b0316036113955760405162461bcd60e51b815260206004820152602960248201527f455243313135353a2073657474696e6720617070726f76616c20737461747573604482015268103337b91039b2b63360b91b60648201526084016104b9565b6001600160a01b03838116600081815260016020908152604080832094871680845294825291829020805460ff191686151590811790915591519182527f17307eab39ab6107e8899845ad3d59bd9653f200f220920489ca2b5937696c31910160405180910390a3505050565b6001600160a01b0384166114625760405162461bcd60e51b815260206004820152602160248201527f455243313135353a206d696e7420746f20746865207a65726f206164647265736044820152607360f81b60648201526084016104b9565b33600061146e856118b8565b9050600061147b856118b8565b905061148c836000898585896116a2565b6000868152602081815260408083206001600160a01b038b168452909152812080548792906114bc9084906122e6565b909155505060408051878152602081018790526001600160a01b03808a1692600092918716917fc3d58168c5ae7397731d063d5bbf3d657854427343f4c083240f7aacaa2d0f62910160405180910390a461151c83600089898989611903565b50505050505050565b6001600160a01b03841661154b5760405162461bcd60e51b81526004016104b990612486565b336000611557856118b8565b90506000611564856118b8565b90506115748389898585896116a2565b6000868152602081815260408083206001600160a01b038c168452909152902054858110156115b55760405162461bcd60e51b81526004016104b9906124cb565b6000878152602081815260408083206001600160a01b038d8116855292528083208985039055908a168252812080548892906115f29084906122e6565b909155505060408051888152602081018890526001600160a01b03808b16928c821692918816917fc3d58168c5ae7397731d063d5bbf3d657854427343f4c083240f7aacaa2d0f62910160405180910390a4611652848a8a8a8a8a611903565b505050505050505050565b600081815b8451811015610d3a5761168e82868381518110611681576116816123bb565b60200260200101516119be565b91508061169a8161246d565b915050611662565b6001600160a01b038516156116ff576116bb8587610ec9565b6116ff5760405162461bcd60e51b8152602060048201526015602482015274151c985b9cd9995c881b9bdd08185c1c1c9bdd9959605a1b60448201526064016104b9565b611220565b6001600160a01b0384163b156112205760405163bc197c8160e01b81526001600160a01b0385169063bc197c81906117489089908990889088908890600401612543565b6020604051808303816000875af1925050508015611783575060408051601f3d908101601f19168201909252611780918101906125a1565b60015b61182f5761178f6125be565b806308c379a0036117c857506117a36125da565b806117ae57506117ca565b8060405162461bcd60e51b81526004016104b99190611d03565b505b60405162461bcd60e51b815260206004820152603460248201527f455243313135353a207472616e7366657220746f206e6f6e2d455243313135356044820152732932b1b2b4bb32b91034b6b83632b6b2b73a32b960611b60648201526084016104b9565b6001600160e01b0319811663bc197c8160e01b1461151c5760405162461bcd60e51b81526004016104b990612663565b6118698282610d53565b61070d57611876816119ed565b6118818360206119ff565b6040516020016118929291906126ab565b60408051601f198184030181529082905262461bcd60e51b82526104b991600401611d03565b604080516001808252818301909252606091600091906020808301908036833701905050905082816000815181106118f2576118f26123bb565b602090810291909101015292915050565b6001600160a01b0384163b156112205760405163f23a6e6160e01b81526001600160a01b0385169063f23a6e61906119479089908990889088908890600401612720565b6020604051808303816000875af1925050508015611982575060408051601f3d908101601f1916820190925261197f918101906125a1565b60015b61198e5761178f6125be565b6001600160e01b0319811663f23a6e6160e01b1461151c5760405162461bcd60e51b81526004016104b990612663565b60008183106119da576000828152602084905260409020610f38565b6000838152602083905260409020610f38565b60606104e56001600160a01b03831660145b60606000611a0e836002612369565b611a199060026122e6565b6001600160401b03811115611a3057611a30611d16565b6040519080825280601f01601f191660200182016040528015611a5a576020820181803683370190505b509050600360fc1b81600081518110611a7557611a756123bb565b60200101906001600160f81b031916908160001a905350600f60fb1b81600181518110611aa457611aa46123bb565b60200101906001600160f81b031916908160001a9053506000611ac8846002612369565b611ad39060016122e6565b90505b6001811115611b4b576f181899199a1a9b1b9c1cb0b131b232b360811b85600f1660108110611b0757611b076123bb565b1a60f81b828281518110611b1d57611b1d6123bb565b60200101906001600160f81b031916908160001a90535060049490941c93611b448161275a565b9050611ad6565b508315610f385760405162461bcd60e51b815260206004820181905260248201527f537472696e67733a20686578206c656e67746820696e73756666696369656e7460448201526064016104b9565b6001600160a01b038116811461123257600080fd5b60008060408385031215611bc257600080fd5b8235611bcd81611b9a565b946020939093013593505050565b6001600160e01b03198116811461123257600080fd5b600060208284031215611c0357600080fd5b8135610f3881611bdb565b60008083601f840112611c2057600080fd5b5081356001600160401b03811115611c3757600080fd5b6020830191508360208260051b8501011115611c5257600080fd5b9250929050565b60008060208385031215611c6c57600080fd5b82356001600160401b03811115611c8257600080fd5b611c8e85828601611c0e565b90969095509350505050565b600060208284031215611cac57600080fd5b5035919050565b60005b83811015611cce578181015183820152602001611cb6565b50506000910152565b60008151808452611cef816020860160208601611cb3565b601f01601f19169290920160200192915050565b602081526000610f386020830184611cd7565b634e487b7160e01b600052604160045260246000fd5b601f8201601f191681016001600160401b0381118282101715611d5157611d51611d16565b6040525050565b60006001600160401b03821115611d7157611d71611d16565b5060051b60200190565b600082601f830112611d8c57600080fd5b81356020611d9982611d58565b604051611da68282611d2c565b83815260059390931b8501820192828101915086841115611dc657600080fd5b8286015b84811015611de15780358352918301918301611dca565b509695505050505050565b600082601f830112611dfd57600080fd5b81356001600160401b03811115611e1657611e16611d16565b604051611e2d601f8301601f191660200182611d2c565b818152846020838601011115611e4257600080fd5b816020850160208301376000918101602001919091529392505050565b600080600080600060a08688031215611e7757600080fd5b8535611e8281611b9a565b94506020860135611e9281611b9a565b935060408601356001600160401b0380821115611eae57600080fd5b611eba89838a01611d7b565b94506060880135915080821115611ed057600080fd5b611edc89838a01611d7b565b93506080880135915080821115611ef257600080fd5b50611eff88828901611dec565b9150509295509295909350565b60008060408385031215611f1f57600080fd5b823591506020830135611f3181611b9a565b809150509250929050565b600080600060408486031215611f5157600080fd5b83356001600160401b0380821115611f6857600080fd5b818601915086601f830112611f7c57600080fd5b813581811115611f8b57600080fd5b876020828501011115611f9d57600080fd5b6020928301989097509590910135949350505050565b60008060408385031215611fc657600080fd5b82356001600160401b0380821115611fdd57600080fd5b818501915085601f830112611ff157600080fd5b81356020611ffe82611d58565b60405161200b8282611d2c565b83815260059390931b850182019282810191508984111561202b57600080fd5b948201945b8386101561205257853561204381611b9a565b82529482019490820190612030565b9650508601359250508082111561206857600080fd5b5061207585828601611d7b565b9150509250929050565b600081518084526020808501945080840160005b838110156120af57815187529582019590820190600101612093565b509495945050505050565b602081526000610f38602083018461207f565b801515811461123257600080fd5b600080604083850312156120ee57600080fd5b82356120f981611b9a565b91506020830135611f31816120cd565b6000806000806060858703121561211f57600080fd5b8435935060208501356001600160401b038082111561213d57600080fd5b61214988838901611dec565b9450604087013591508082111561215f57600080fd5b5061216c87828801611c0e565b95989497509550505050565b6000806040838503121561218b57600080fd5b823561219681611b9a565b91506020830135611f3181611b9a565b6000602082840312156121b857600080fd5b8135610f3881611b9a565b600080600080600060a086880312156121db57600080fd5b85356121e681611b9a565b945060208601356121f681611b9a565b9350604086013592506060860135915060808601356001600160401b0381111561221f57600080fd5b611eff88828901611dec565b600181811c9082168061223f57607f821691505b60208210810361225f57634e487b7160e01b600052602260045260246000fd5b50919050565b6020808252602e908201527f455243313135353a2063616c6c6572206973206e6f7420746f6b656e206f776e60408201526d195c881bdc88185c1c1c9bdd995960921b606082015260800190565b6000602082840312156122c557600080fd5b8151610f38816120cd565b634e487b7160e01b600052601160045260246000fd5b808201808211156104e5576104e56122d0565b6000808585111561230957600080fd5b8386111561231657600080fd5b5050820193919092039150565b6000806000806080858703121561233957600080fd5b843561234481611b9a565b9350602085013561235481611b9a565b93969395505050506040820135916060013590565b80820281158282048414176104e5576104e56122d0565b60008261239d57634e487b7160e01b600052601260045260246000fd5b500490565b6000602082840312156123b457600080fd5b5051919050565b634e487b7160e01b600052603260045260246000fd5b600081518084526020808501945080840160005b838110156120af5781516001600160a01b0316875295820195908201906001016123e5565b60808152600061241d60808301876123d1565b828103602084015261242f81876123d1565b6001600160a01b038616604085015283810360608501529050612452818561207f565b979650505050505050565b8183823760009101908152919050565b60006001820161247f5761247f6122d0565b5060010190565b60208082526025908201527f455243313135353a207472616e7366657220746f20746865207a65726f206164604082015264647265737360d81b606082015260800190565b6020808252602a908201527f455243313135353a20696e73756666696369656e742062616c616e636520666f60408201526939103a3930b739b332b960b11b606082015260800190565b604081526000612528604083018561207f565b828103602084015261253a818561207f565b95945050505050565b6001600160a01b0386811682528516602082015260a06040820181905260009061256f9083018661207f565b8281036060840152612581818661207f565b905082810360808401526125958185611cd7565b98975050505050505050565b6000602082840312156125b357600080fd5b8151610f3881611bdb565b600060033d11156125d75760046000803e5060005160e01c5b90565b600060443d10156125e85790565b6040516003193d81016004833e81513d6001600160401b03816024840111818411171561261757505050505090565b828501915081518181111561262f5750505050505090565b843d87010160208285010111156126495750505050505090565b61265860208286010187611d2c565b509095945050505050565b60208082526028908201527f455243313135353a204552433131353552656365697665722072656a656374656040820152676420746f6b656e7360c01b606082015260800190565b7f416363657373436f6e74726f6c3a206163636f756e74200000000000000000008152600083516126e3816017850160208801611cb3565b7001034b99036b4b9b9b4b733903937b6329607d1b6017918401918201528351612714816028840160208801611cb3565b01602801949350505050565b6001600160a01b03868116825285166020820152604081018490526060810183905260a06080820181905260009061245290830184611cd7565b600081612769576127696122d0565b50600019019056fea2646970667358221220a5f83a5ca38acfc40dc2d5d3498d6f7604cf1fe750ca8713da4cf46e41c8dc3664736f6c63430008130033",
  "linkReferences": {},
  "deployedLinkReferences": {}
}