{
  "_format": "hh-sol-artifact-1",
  "contractName": "SAFTToken",
  "sourceName": "contracts/SAFTToken.sol",
  "abi": [
    {
      "inputs": [
        {
          "internalType": "address",
          "name": "_owner",
          "type": "address"
        },
        {
          "internalType": "bytes32",
          "name": "_merkleRoot",
          "type": "bytes32"
        },
        {
          "internalType": "string",
          "name": "metadataUri",
          "type": "string"
        }
      ],
      "stateMutability": "nonpayable",
      "type": "constructor"
    },
    {
      "anonymous": false,
      "inputs": [
        {
          "indexed": true,
          "internalType": "address",
          "name": "account",
          "type": "address"
        },
        {
          "indexed": true,
          "internalType": "address",
          "name": "operator",
          "type": "address"
        },
        {
          "indexed": false,
          "internalType": "bool",
          "name": "approved",
          "type": "bool"
        }
      ],
      "name": "ApprovalForAll",
      "type": "event"
    },
    {
      "anonymous": false,
      "inputs": [
        {
          "indexed": true,
          "internalType": "address",
          "name": "previousOwner",
          "type": "address"
        },
        {
          "indexed": true,
          "internalType": "address",
          "name": "newOwner",
          "type": "address"
        }
      ],
      "name": "OwnershipTransferred",
      "type": "event"
    },
    {
      "anonymous": false,
      "inputs": [
        {
          "indexed": true,
          "internalType": "address",
          "name": "operator",
          "type": "address"
        },
        {
          "indexed": true,
          "internalType": "address",
          "name": "from",
          "type": "address"
        },
        {
          "indexed": true,
          "internalType": "address",
          "name": "to",
          "type": "address"
        },
        {
          "indexed": false,
          "internalType": "uint256[]",
          "name": "ids",
          "type": "uint256[]"
        },
        {
          "indexed": false,
          "internalType": "uint256[]",
          "name": "values",
          "type": "uint256[]"
        }
      ],
      "name": "TransferBatch",
      "type": "event"
    },
    {
      "anonymous": false,
      "inputs": [
        {
          "indexed": true,
          "internalType": "address",
          "name": "operator",
          "type": "address"
        },
        {
          "indexed": true,
          "internalType": "address",
          "name": "from",
          "type": "address"
        },
        {
          "indexed": true,
          "internalType": "address",
          "name": "to",
          "type": "address"
        },
        {
          "indexed": false,
          "internalType": "uint256",
          "name": "id",
          "type": "uint256"
        },
        {
          "indexed": false,
          "internalType": "uint256",
          "name": "value",
          "type": "uint256"
        }
      ],
      "name": "TransferSingle",
      "type": "event"
    },
    {
      "anonymous": false,
      "inputs": [
        {
          "indexed": false,
          "internalType": "string",
          "name": "value",
          "type": "string"
        },
        {
          "indexed": true,
          "internalType": "uint256",
          "name": "id",
          "type": "uint256"
        }
      ],
      "name": "URI",
      "type": "event"
    },
    {
      "inputs": [
        {
          "internalType": "address",
          "name": "account",
          "type": "address"
        },
        {
          "internalType": "uint256",
          "name": "id",
          "type": "uint256"
        }
      ],
      "name": "balanceOf",
      "outputs": [
        {
          "internalType": "uint256",
          "name": "",
          "type": "uint256"
        }
      ],
      "stateMutability": "view",
      "type": "function"
    },
    {
      "inputs": [
        {
          "internalType": "address[]",
          "name": "accounts",
          "type": "address[]"
        },
        {
          "internalType": "uint256[]",
          "name": "ids",
          "type": "uint256[]"
        }
      ],
      "name": "balanceOfBatch",
      "outputs": [
        {
          "internalType": "uint256[]",
          "name": "",
          "type": "uint256[]"
        }
      ],
      "stateMutability": "view",
      "type": "function"
    },
    {
      "inputs": [
        {
          "internalType": "address",
          "name": "account",
          "type": "address"
        },
        {
          "internalType": "address",
          "name": "operator",
          "type": "address"
        }
      ],
      "name": "isApprovedForAll",
      "outputs": [
        {
          "internalType": "bool",
          "name": "",
          "type": "bool"
        }
      ],
      "stateMutability": "view",
      "type": "function"
    },
    {
      "inputs": [
        {
          "internalType": "bytes32[]",
          "name": "merkleProof",
          "type": "bytes32[]"
        }
      ],
      "name": "isWhitelisted",
      "outputs": [
        {
          "internalType": "bool",
          "name": "",
          "type": "bool"
        }
      ],
      "stateMutability": "view",
      "type": "function"
    },
    {
      "inputs": [
        {
          "internalType": "uint256",
          "name": "",
          "type": "uint256"
        }
      ],
      "name": "lockingFlags",
      "outputs": [
        {
          "internalType": "bool",
          "name": "",
          "type": "bool"
        }
      ],
      "stateMutability": "view",
      "type": "function"
    },
    {
      "inputs": [],
      "name": "merkleRoot",
      "outputs": [
        {
          "internalType": "bytes32",
          "name": "",
          "type": "bytes32"
        }
      ],
      "stateMutability": "view",
      "type": "function"
    },
    {
      "inputs": [
        {
          "internalType": "uint256",
          "name": "amount",
          "type": "uint256"
        },
        {
          "internalType": "bytes",
          "name": "data",
          "type": "bytes"
        },
        {
          "internalType": "bytes32[]",
          "name": "merkleProof",
          "type": "bytes32[]"
        }
      ],
      "name": "mint",
      "outputs": [],
      "stateMutability": "nonpayable",
      "type": "function"
    },
    {
      "inputs": [],
      "name": "owner",
      "outputs": [
        {
          "internalType": "address",
          "name": "",
          "type": "address"
        }
      ],
      "stateMutability": "view",
      "type": "function"
    },
    {
      "inputs": [],
      "name": "renounceOwnership",
      "outputs": [],
      "stateMutability": "nonpayable",
      "type": "function"
    },
    {
      "inputs": [
        {
          "internalType": "address",
          "name": "from",
          "type": "address"
        },
        {
          "internalType": "address",
          "name": "to",
          "type": "address"
        },
        {
          "internalType": "uint256[]",
          "name": "ids",
          "type": "uint256[]"
        },
        {
          "internalType": "uint256[]",
          "name": "amounts",
          "type": "uint256[]"
        },
        {
          "internalType": "bytes",
          "name": "data",
          "type": "bytes"
        }
      ],
      "name": "safeBatchTransferFrom",
      "outputs": [],
      "stateMutability": "nonpayable",
      "type": "function"
    },
    {
      "inputs": [
        {
          "internalType": "address",
          "name": "from",
          "type": "address"
        },
        {
          "internalType": "address",
          "name": "to",
          "type": "address"
        },
        {
          "internalType": "uint256",
          "name": "id",
          "type": "uint256"
        },
        {
          "internalType": "uint256",
          "name": "amount",
          "type": "uint256"
        },
        {
          "internalType": "bytes",
          "name": "data",
          "type": "bytes"
        }
      ],
      "name": "safeTransferFrom",
      "outputs": [],
      "stateMutability": "nonpayable",
      "type": "function"
    },
    {
      "inputs": [
        {
          "internalType": "address",
          "name": "operator",
          "type": "address"
        },
        {
          "internalType": "bool",
          "name": "approved",
          "type": "bool"
        }
      ],
      "name": "setApprovalForAll",
      "outputs": [],
      "stateMutability": "nonpayable",
      "type": "function"
    },
    {
      "inputs": [
        {
          "internalType": "bytes32",
          "name": "_merkleRoot",
          "type": "bytes32"
        }
      ],
      "name": "setMerkleRoot",
      "outputs": [],
      "stateMutability": "nonpayable",
      "type": "function"
    },
    {
      "inputs": [
        {
          "internalType": "bytes4",
          "name": "interfaceId",
          "type": "bytes4"
        }
      ],
      "name": "supportsInterface",
      "outputs": [
        {
          "internalType": "bool",
          "name": "",
          "type": "bool"
        }
      ],
      "stateMutability": "view",
      "type": "function"
    },
    {
      "inputs": [
        {
          "internalType": "address",
          "name": "newOwner",
          "type": "address"
        }
      ],
      "name": "transferOwnership",
      "outputs": [],
      "stateMutability": "nonpayable",
      "type": "function"
    },
    {
      "inputs": [
        {
          "internalType": "uint256",
          "name": "",
          "type": "uint256"
        }
      ],
      "name": "uri",
      "outputs": [
        {
          "internalType": "string",
          "name": "",
          "type": "string"
        }
      ],
      "stateMutability": "view",
      "type": "function"
    }
  ],
  "bytecode": "0x60806040523480156200001157600080fd5b5060405162001dc038038062001dc083398101604081905262000034916200013a565b806200004081620000c0565b506200004c33620000d2565b60048290556001600160a01b038316620000ac5760405162461bcd60e51b815260206004820152601d60248201527f4f776e657220616464726573732063616e6e6f7420626520656d707479000000604482015260640160405180910390fd5b620000b783620000d2565b50505062000394565b6002620000ce8282620002c8565b5050565b600380546001600160a01b038381166001600160a01b0319831681179093556040519116919082907f8be0079c531659141344cd1fd0a4f28419497f9722a3daafe3b4186f6b6457e090600090a35050565b634e487b7160e01b600052604160045260246000fd5b6000806000606084860312156200015057600080fd5b83516001600160a01b03811681146200016857600080fd5b60208581015160408701519295509350906001600160401b03808211156200018f57600080fd5b818701915087601f830112620001a457600080fd5b815181811115620001b957620001b962000124565b604051601f8201601f19908116603f01168101908382118183101715620001e457620001e462000124565b816040528281528a86848701011115620001fd57600080fd5b600093505b8284101562000221578484018601518185018701529285019262000202565b60008684830101528096505050505050509250925092565b600181811c908216806200024e57607f821691505b6020821081036200026f57634e487b7160e01b600052602260045260246000fd5b50919050565b601f821115620002c357600081815260208120601f850160051c810160208610156200029e5750805b601f850160051c820191505b81811015620002bf57828155600101620002aa565b5050505b505050565b81516001600160401b03811115620002e457620002e462000124565b620002fc81620002f5845462000239565b8462000275565b602080601f8311600181146200033457600084156200031b5750858301515b600019600386901b1c1916600185901b178555620002bf565b600085815260208120601f198616915b82811015620003655788860151825594840194600190910190840162000344565b5085821015620003845787850151600019600388901b60f8161c191681555b5050505050600190811b01905550565b611a1c80620003a46000396000f3fe608060405234801561001057600080fd5b50600436106100ff5760003560e01c8063715018a611610097578063b843888111610066578063b84388811461022a578063e985e9c51461023d578063f242432a14610279578063f2fde38b1461028c57600080fd5b8063715018a6146101e15780637cb64759146101e95780638da5cb5b146101fc578063a22cb4651461021757600080fd5b80632eb2c2d6116100d35780632eb2c2d6146101805780632eb4a7ab146101955780632ecc61601461019e5780634e1273f4146101c157600080fd5b8062fdd58e1461010457806301ffc9a71461012a578063069824fb1461014d5780630e89341c14610160575b600080fd5b6101176101123660046110d0565b61029f565b6040519081526020015b60405180910390f35b61013d610138366004611110565b610338565b6040519015158152602001610121565b61013d61015b366004611179565b610388565b61017361016e3660046111bb565b61040c565b604051610121919061121a565b61019361018e366004611379565b6104a0565b005b61011760045481565b61013d6101ac3660046111bb565b60056020526000908152604090205460ff1681565b6101d46101cf366004611423565b6104ec565b6040516101219190611529565b610193610616565b6101936101f73660046111bb565b61062a565b6003546040516001600160a01b039091168152602001610121565b61019361022536600461153c565b610637565b610193610238366004611578565b610646565b61013d61024b3660046115e8565b6001600160a01b03918216600090815260016020908152604080832093909416825291909152205460ff1690565b61019361028736600461161b565b610761565b61019361029a366004611680565b6107a6565b60006001600160a01b03831661030f5760405162461bcd60e51b815260206004820152602a60248201527f455243313135353a2061646472657373207a65726f206973206e6f742061207660448201526930b634b21037bbb732b960b11b60648201526084015b60405180910390fd5b506000818152602081815260408083206001600160a01b03861684529091529020545b92915050565b60006001600160e01b03198216636cdb3d1360e11b148061036957506001600160e01b031982166303a24d0760e21b145b8061033257506301ffc9a760e01b6001600160e01b0319831614610332565b6040516bffffffffffffffffffffffff193360601b166020820152600090819060340160405160208183030381529060405280519060200120905061040484848080602002602001604051908101604052809392919081815260200183836020028082843760009201919091525050600454915084905061081f565b949350505050565b60606002805461041b9061169b565b80601f01602080910402602001604051908101604052809291908181526020018280546104479061169b565b80156104945780601f1061046957610100808354040283529160200191610494565b820191906000526020600020905b81548152906001019060200180831161047757829003601f168201915b50505050509050919050565b6001600160a01b0385163314806104bc57506104bc853361024b565b6104d85760405162461bcd60e51b8152600401610306906116d5565b6104e58585858585610835565b5050505050565b606081518351146105515760405162461bcd60e51b815260206004820152602960248201527f455243313135353a206163636f756e747320616e6420696473206c656e677468604482015268040dad2e6dac2e8c6d60bb1b6064820152608401610306565b6000835167ffffffffffffffff81111561056d5761056d61122d565b604051908082528060200260200182016040528015610596578160200160208202803683370190505b50905060005b845181101561060e576105e18582815181106105ba576105ba611723565b60200260200101518583815181106105d4576105d4611723565b602002602001015161029f565b8282815181106105f3576105f3611723565b60209081029190910101526106078161174f565b905061059c565b509392505050565b61061e610a12565b6106286000610a6c565b565b610632610a12565b600455565b610642338383610abe565b5050565b60065460008181526005602052604090205460ff16156106b65760405162461bcd60e51b815260206004820152602560248201527f546f6b656e2069732063757272656e746c79206c6f636b656420666f72206d696044820152646e74696e6760d81b6064820152608401610306565b6106c08383610388565b61070c5760405162461bcd60e51b815260206004820152601960248201527f43616c6c6572206973206e6f742077686974656c6973746564000000000000006044820152606401610306565b6000818152600560205260409020805460ff1916600117905561073133828787610b9e565b6000818152600560205260408120805460ff1916905560068054916107558361174f565b91905055505050505050565b6001600160a01b03851633148061077d575061077d853361024b565b6107995760405162461bcd60e51b8152600401610306906116d5565b6104e58585858585610cb2565b6107ae610a12565b6001600160a01b0381166108135760405162461bcd60e51b815260206004820152602660248201527f4f776e61626c653a206e6577206f776e657220697320746865207a65726f206160448201526564647265737360d01b6064820152608401610306565b61081c81610a6c565b50565b60008261082c8584610ddc565b14949350505050565b81518351146108975760405162461bcd60e51b815260206004820152602860248201527f455243313135353a2069647320616e6420616d6f756e7473206c656e677468206044820152670dad2e6dac2e8c6d60c31b6064820152608401610306565b6001600160a01b0384166108bd5760405162461bcd60e51b815260040161030690611768565b3360005b84518110156109a45760008582815181106108de576108de611723565b6020026020010151905060008583815181106108fc576108fc611723565b602090810291909101810151600084815280835260408082206001600160a01b038e16835290935291909120549091508181101561094c5760405162461bcd60e51b8152600401610306906117ad565b6000838152602081815260408083206001600160a01b038e8116855292528083208585039055908b168252812080548492906109899084906117f7565b925050819055505050508061099d9061174f565b90506108c1565b50846001600160a01b0316866001600160a01b0316826001600160a01b03167f4a39dc06d4c0dbc64b70af90fd698a233a518aa5d07e595d983b8c0526c8f7fb87876040516109f492919061180a565b60405180910390a4610a0a818787878787610e21565b505050505050565b6003546001600160a01b031633146106285760405162461bcd60e51b815260206004820181905260248201527f4f776e61626c653a2063616c6c6572206973206e6f7420746865206f776e65726044820152606401610306565b600380546001600160a01b038381166001600160a01b0319831681179093556040519116919082907f8be0079c531659141344cd1fd0a4f28419497f9722a3daafe3b4186f6b6457e090600090a35050565b816001600160a01b0316836001600160a01b031603610b315760405162461bcd60e51b815260206004820152602960248201527f455243313135353a2073657474696e6720617070726f76616c20737461747573604482015268103337b91039b2b63360b91b6064820152608401610306565b6001600160a01b03838116600081815260016020908152604080832094871680845294825291829020805460ff191686151590811790915591519182527f17307eab39ab6107e8899845ad3d59bd9653f200f220920489ca2b5937696c31910160405180910390a3505050565b6001600160a01b038416610bfe5760405162461bcd60e51b815260206004820152602160248201527f455243313135353a206d696e7420746f20746865207a65726f206164647265736044820152607360f81b6064820152608401610306565b336000610c0a85610f7c565b90506000610c1785610f7c565b90506000868152602081815260408083206001600160a01b038b16845290915281208054879290610c499084906117f7565b909155505060408051878152602081018790526001600160a01b03808a1692600092918716917fc3d58168c5ae7397731d063d5bbf3d657854427343f4c083240f7aacaa2d0f62910160405180910390a4610ca983600089898989610fc7565b50505050505050565b6001600160a01b038416610cd85760405162461bcd60e51b815260040161030690611768565b336000610ce485610f7c565b90506000610cf185610f7c565b90506000868152602081815260408083206001600160a01b038c16845290915290205485811015610d345760405162461bcd60e51b8152600401610306906117ad565b6000878152602081815260408083206001600160a01b038d8116855292528083208985039055908a16825281208054889290610d719084906117f7565b909155505060408051888152602081018890526001600160a01b03808b16928c821692918816917fc3d58168c5ae7397731d063d5bbf3d657854427343f4c083240f7aacaa2d0f62910160405180910390a4610dd1848a8a8a8a8a610fc7565b505050505050505050565b600081815b845181101561060e57610e0d82868381518110610e0057610e00611723565b6020026020010151611082565b915080610e198161174f565b915050610de1565b6001600160a01b0384163b15610a0a5760405163bc197c8160e01b81526001600160a01b0385169063bc197c8190610e659089908990889088908890600401611838565b6020604051808303816000875af1925050508015610ea0575060408051601f3d908101601f19168201909252610e9d91810190611896565b60015b610f4c57610eac6118b3565b806308c379a003610ee55750610ec06118cf565b80610ecb5750610ee7565b8060405162461bcd60e51b8152600401610306919061121a565b505b60405162461bcd60e51b815260206004820152603460248201527f455243313135353a207472616e7366657220746f206e6f6e2d455243313135356044820152732932b1b2b4bb32b91034b6b83632b6b2b73a32b960611b6064820152608401610306565b6001600160e01b0319811663bc197c8160e01b14610ca95760405162461bcd60e51b815260040161030690611959565b60408051600180825281830190925260609160009190602080830190803683370190505090508281600081518110610fb657610fb6611723565b602090810291909101015292915050565b6001600160a01b0384163b15610a0a5760405163f23a6e6160e01b81526001600160a01b0385169063f23a6e619061100b90899089908890889088906004016119a1565b6020604051808303816000875af1925050508015611046575060408051601f3d908101601f1916820190925261104391810190611896565b60015b61105257610eac6118b3565b6001600160e01b0319811663f23a6e6160e01b14610ca95760405162461bcd60e51b815260040161030690611959565b600081831061109e5760008281526020849052604090206110ad565b60008381526020839052604090205b9392505050565b80356001600160a01b03811681146110cb57600080fd5b919050565b600080604083850312156110e357600080fd5b6110ec836110b4565b946020939093013593505050565b6001600160e01b03198116811461081c57600080fd5b60006020828403121561112257600080fd5b81356110ad816110fa565b60008083601f84011261113f57600080fd5b50813567ffffffffffffffff81111561115757600080fd5b6020830191508360208260051b850101111561117257600080fd5b9250929050565b6000806020838503121561118c57600080fd5b823567ffffffffffffffff8111156111a357600080fd5b6111af8582860161112d565b90969095509350505050565b6000602082840312156111cd57600080fd5b5035919050565b6000815180845260005b818110156111fa576020818501810151868301820152016111de565b506000602082860101526020601f19601f83011685010191505092915050565b6020815260006110ad60208301846111d4565b634e487b7160e01b600052604160045260246000fd5b601f8201601f1916810167ffffffffffffffff811182821017156112695761126961122d565b6040525050565b600067ffffffffffffffff82111561128a5761128a61122d565b5060051b60200190565b600082601f8301126112a557600080fd5b813560206112b282611270565b6040516112bf8282611243565b83815260059390931b85018201928281019150868411156112df57600080fd5b8286015b848110156112fa57803583529183019183016112e3565b509695505050505050565b600082601f83011261131657600080fd5b813567ffffffffffffffff8111156113305761133061122d565b604051611347601f8301601f191660200182611243565b81815284602083860101111561135c57600080fd5b816020850160208301376000918101602001919091529392505050565b600080600080600060a0868803121561139157600080fd5b61139a866110b4565b94506113a8602087016110b4565b9350604086013567ffffffffffffffff808211156113c557600080fd5b6113d189838a01611294565b945060608801359150808211156113e757600080fd5b6113f389838a01611294565b9350608088013591508082111561140957600080fd5b5061141688828901611305565b9150509295509295909350565b6000806040838503121561143657600080fd5b823567ffffffffffffffff8082111561144e57600080fd5b818501915085601f83011261146257600080fd5b8135602061146f82611270565b60405161147c8282611243565b83815260059390931b850182019282810191508984111561149c57600080fd5b948201945b838610156114c1576114b2866110b4565b825294820194908201906114a1565b965050860135925050808211156114d757600080fd5b506114e485828601611294565b9150509250929050565b600081518084526020808501945080840160005b8381101561151e57815187529582019590820190600101611502565b509495945050505050565b6020815260006110ad60208301846114ee565b6000806040838503121561154f57600080fd5b611558836110b4565b91506020830135801515811461156d57600080fd5b809150509250929050565b6000806000806060858703121561158e57600080fd5b84359350602085013567ffffffffffffffff808211156115ad57600080fd5b6115b988838901611305565b945060408701359150808211156115cf57600080fd5b506115dc8782880161112d565b95989497509550505050565b600080604083850312156115fb57600080fd5b611604836110b4565b9150611612602084016110b4565b90509250929050565b600080600080600060a0868803121561163357600080fd5b61163c866110b4565b945061164a602087016110b4565b93506040860135925060608601359150608086013567ffffffffffffffff81111561167457600080fd5b61141688828901611305565b60006020828403121561169257600080fd5b6110ad826110b4565b600181811c908216806116af57607f821691505b6020821081036116cf57634e487b7160e01b600052602260045260246000fd5b50919050565b6020808252602e908201527f455243313135353a2063616c6c6572206973206e6f7420746f6b656e206f776e60408201526d195c881bdc88185c1c1c9bdd995960921b606082015260800190565b634e487b7160e01b600052603260045260246000fd5b634e487b7160e01b600052601160045260246000fd5b60006001820161176157611761611739565b5060010190565b60208082526025908201527f455243313135353a207472616e7366657220746f20746865207a65726f206164604082015264647265737360d81b606082015260800190565b6020808252602a908201527f455243313135353a20696e73756666696369656e742062616c616e636520666f60408201526939103a3930b739b332b960b11b606082015260800190565b8082018082111561033257610332611739565b60408152600061181d60408301856114ee565b828103602084015261182f81856114ee565b95945050505050565b6001600160a01b0386811682528516602082015260a060408201819052600090611864908301866114ee565b828103606084015261187681866114ee565b9050828103608084015261188a81856111d4565b98975050505050505050565b6000602082840312156118a857600080fd5b81516110ad816110fa565b600060033d11156118cc5760046000803e5060005160e01c5b90565b600060443d10156118dd5790565b6040516003193d81016004833e81513d67ffffffffffffffff816024840111818411171561190d57505050505090565b82850191508151818111156119255750505050505090565b843d870101602082850101111561193f5750505050505090565b61194e60208286010187611243565b509095945050505050565b60208082526028908201527f455243313135353a204552433131353552656365697665722072656a656374656040820152676420746f6b656e7360c01b606082015260800190565b6001600160a01b03868116825285166020820152604081018490526060810183905260a0608082018190526000906119db908301846111d4565b97965050505050505056fea264697066735822122083bdff4869f52cd10f43d997d1fa76879147355242a38dc4fdf3721aa861f64d64736f6c63430008130033",
  "linkReferences": {},
  "deployedLinkReferences": {}
}