{
  "_format": "hh-sol-artifact-1",
  "contractName": "SAFTToken",
  "sourceName": "contracts/SAFTToken.sol",
  "abi": [
    {
      "inputs": [
        {
          "internalType": "address",
          "name": "_owner",
          "type": "address"
        },
        {
          "internalType": "bytes32",
          "name": "_merkleRoot",
          "type": "bytes32"
        },
        {
          "internalType": "string",
          "name": "metadataUri",
          "type": "string"
        },
        {
          "internalType": "uint256",
          "name": "totalSupply",
          "type": "uint256"
        },
        {
          "internalType": "address",
          "name": "_executorManager",
          "type": "address"
        }
      ],
      "stateMutability": "nonpayable",
      "type": "constructor"
    },
    {
      "anonymous": false,
      "inputs": [
        {
          "indexed": true,
          "internalType": "address",
          "name": "account",
          "type": "address"
        },
        {
          "indexed": true,
          "internalType": "address",
          "name": "operator",
          "type": "address"
        },
        {
          "indexed": false,
          "internalType": "bool",
          "name": "approved",
          "type": "bool"
        }
      ],
      "name": "ApprovalForAll",
      "type": "event"
    },
    {
      "anonymous": false,
      "inputs": [
        {
          "indexed": true,
          "internalType": "address",
          "name": "executor",
          "type": "address"
        },
        {
          "indexed": true,
          "internalType": "uint256",
          "name": "bundleNonce",
          "type": "uint256"
        },
        {
          "indexed": false,
          "internalType": "bytes32",
          "name": "bundleHash",
          "type": "bytes32"
        },
        {
          "indexed": false,
          "internalType": "uint256",
          "name": "timestamp",
          "type": "uint256"
        }
      ],
      "name": "BundleProcessed",
      "type": "event"
    },
    {
      "anonymous": false,
      "inputs": [
        {
          "indexed": true,
          "internalType": "bytes32",
          "name": "role",
          "type": "bytes32"
        },
        {
          "indexed": true,
          "internalType": "bytes32",
          "name": "previousAdminRole",
          "type": "bytes32"
        },
        {
          "indexed": true,
          "internalType": "bytes32",
          "name": "newAdminRole",
          "type": "bytes32"
        }
      ],
      "name": "RoleAdminChanged",
      "type": "event"
    },
    {
      "anonymous": false,
      "inputs": [
        {
          "indexed": true,
          "internalType": "bytes32",
          "name": "role",
          "type": "bytes32"
        },
        {
          "indexed": true,
          "internalType": "address",
          "name": "account",
          "type": "address"
        },
        {
          "indexed": true,
          "internalType": "address",
          "name": "sender",
          "type": "address"
        }
      ],
      "name": "RoleGranted",
      "type": "event"
    },
    {
      "anonymous": false,
      "inputs": [
        {
          "indexed": true,
          "internalType": "bytes32",
          "name": "role",
          "type": "bytes32"
        },
        {
          "indexed": true,
          "internalType": "address",
          "name": "account",
          "type": "address"
        },
        {
          "indexed": true,
          "internalType": "address",
          "name": "sender",
          "type": "address"
        }
      ],
      "name": "RoleRevoked",
      "type": "event"
    },
    {
      "anonymous": false,
      "inputs": [
        {
          "indexed": true,
          "internalType": "address",
          "name": "operator",
          "type": "address"
        },
        {
          "indexed": true,
          "internalType": "address",
          "name": "from",
          "type": "address"
        },
        {
          "indexed": true,
          "internalType": "address",
          "name": "to",
          "type": "address"
        },
        {
          "indexed": false,
          "internalType": "uint256[]",
          "name": "ids",
          "type": "uint256[]"
        },
        {
          "indexed": false,
          "internalType": "uint256[]",
          "name": "values",
          "type": "uint256[]"
        }
      ],
      "name": "TransferBatch",
      "type": "event"
    },
    {
      "anonymous": false,
      "inputs": [
        {
          "indexed": true,
          "internalType": "address",
          "name": "operator",
          "type": "address"
        },
        {
          "indexed": true,
          "internalType": "address",
          "name": "from",
          "type": "address"
        },
        {
          "indexed": true,
          "internalType": "address",
          "name": "to",
          "type": "address"
        },
        {
          "indexed": false,
          "internalType": "uint256",
          "name": "id",
          "type": "uint256"
        },
        {
          "indexed": false,
          "internalType": "uint256",
          "name": "value",
          "type": "uint256"
        }
      ],
      "name": "TransferSingle",
      "type": "event"
    },
    {
      "anonymous": false,
      "inputs": [
        {
          "indexed": false,
          "internalType": "string",
          "name": "value",
          "type": "string"
        },
        {
          "indexed": true,
          "internalType": "uint256",
          "name": "id",
          "type": "uint256"
        }
      ],
      "name": "URI",
      "type": "event"
    },
    {
      "inputs": [],
      "name": "DEFAULT_ADMIN_ROLE",
      "outputs": [
        {
          "internalType": "bytes32",
          "name": "",
          "type": "bytes32"
        }
      ],
      "stateMutability": "view",
      "type": "function"
    },
    {
      "inputs": [],
      "name": "EXECUTOR_ROLE",
      "outputs": [
        {
          "internalType": "bytes32",
          "name": "",
          "type": "bytes32"
        }
      ],
      "stateMutability": "view",
      "type": "function"
    },
    {
      "inputs": [
        {
          "internalType": "address",
          "name": "account",
          "type": "address"
        },
        {
          "internalType": "uint256",
          "name": "id",
          "type": "uint256"
        }
      ],
      "name": "balanceOf",
      "outputs": [
        {
          "internalType": "uint256",
          "name": "",
          "type": "uint256"
        }
      ],
      "stateMutability": "view",
      "type": "function"
    },
    {
      "inputs": [
        {
          "internalType": "address[]",
          "name": "accounts",
          "type": "address[]"
        },
        {
          "internalType": "uint256[]",
          "name": "ids",
          "type": "uint256[]"
        }
      ],
      "name": "balanceOfBatch",
      "outputs": [
        {
          "internalType": "uint256[]",
          "name": "",
          "type": "uint256[]"
        }
      ],
      "stateMutability": "view",
      "type": "function"
    },
    {
      "inputs": [],
      "name": "executorManager",
      "outputs": [
        {
          "internalType": "contract IExecutorManager",
          "name": "",
          "type": "address"
        }
      ],
      "stateMutability": "view",
      "type": "function"
    },
    {
      "inputs": [
        {
          "internalType": "bytes32",
          "name": "role",
          "type": "bytes32"
        }
      ],
      "name": "getRoleAdmin",
      "outputs": [
        {
          "internalType": "bytes32",
          "name": "",
          "type": "bytes32"
        }
      ],
      "stateMutability": "view",
      "type": "function"
    },
    {
      "inputs": [
        {
          "internalType": "bytes32",
          "name": "role",
          "type": "bytes32"
        },
        {
          "internalType": "address",
          "name": "account",
          "type": "address"
        }
      ],
      "name": "grantRole",
      "outputs": [],
      "stateMutability": "nonpayable",
      "type": "function"
    },
    {
      "inputs": [
        {
          "internalType": "bytes32",
          "name": "role",
          "type": "bytes32"
        },
        {
          "internalType": "address",
          "name": "account",
          "type": "address"
        }
      ],
      "name": "hasRole",
      "outputs": [
        {
          "internalType": "bool",
          "name": "",
          "type": "bool"
        }
      ],
      "stateMutability": "view",
      "type": "function"
    },
    {
      "inputs": [
        {
          "internalType": "address",
          "name": "account",
          "type": "address"
        },
        {
          "internalType": "address",
          "name": "operator",
          "type": "address"
        }
      ],
      "name": "isApprovedForAll",
      "outputs": [
        {
          "internalType": "bool",
          "name": "",
          "type": "bool"
        }
      ],
      "stateMutability": "view",
      "type": "function"
    },
    {
      "inputs": [
        {
          "internalType": "bytes32[]",
          "name": "merkleProof",
          "type": "bytes32[]"
        }
      ],
      "name": "isWhitelisted",
      "outputs": [
        {
          "internalType": "bool",
          "name": "",
          "type": "bool"
        }
      ],
      "stateMutability": "view",
      "type": "function"
    },
    {
      "inputs": [
        {
          "internalType": "uint256",
          "name": "",
          "type": "uint256"
        }
      ],
      "name": "lockingFlags",
      "outputs": [
        {
          "internalType": "bool",
          "name": "",
          "type": "bool"
        }
      ],
      "stateMutability": "view",
      "type": "function"
    },
    {
      "inputs": [],
      "name": "merkleRoot",
      "outputs": [
        {
          "internalType": "bytes32",
          "name": "",
          "type": "bytes32"
        }
      ],
      "stateMutability": "view",
      "type": "function"
    },
    {
      "inputs": [
        {
          "internalType": "bytes",
          "name": "bundleData",
          "type": "bytes"
        },
        {
          "internalType": "uint256",
          "name": "bundleNonce",
          "type": "uint256"
        }
      ],
      "name": "processBundle",
      "outputs": [],
      "stateMutability": "nonpayable",
      "type": "function"
    },
    {
      "inputs": [
        {
          "internalType": "bytes32",
          "name": "role",
          "type": "bytes32"
        },
        {
          "internalType": "address",
          "name": "account",
          "type": "address"
        }
      ],
      "name": "renounceRole",
      "outputs": [],
      "stateMutability": "nonpayable",
      "type": "function"
    },
    {
      "inputs": [
        {
          "internalType": "bytes32",
          "name": "role",
          "type": "bytes32"
        },
        {
          "internalType": "address",
          "name": "account",
          "type": "address"
        }
      ],
      "name": "revokeRole",
      "outputs": [],
      "stateMutability": "nonpayable",
      "type": "function"
    },
    {
      "inputs": [
        {
          "internalType": "address",
          "name": "from",
          "type": "address"
        },
        {
          "internalType": "address",
          "name": "to",
          "type": "address"
        },
        {
          "internalType": "uint256[]",
          "name": "ids",
          "type": "uint256[]"
        },
        {
          "internalType": "uint256[]",
          "name": "amounts",
          "type": "uint256[]"
        },
        {
          "internalType": "bytes",
          "name": "data",
          "type": "bytes"
        }
      ],
      "name": "safeBatchTransferFrom",
      "outputs": [],
      "stateMutability": "nonpayable",
      "type": "function"
    },
    {
      "inputs": [
        {
          "internalType": "address",
          "name": "from",
          "type": "address"
        },
        {
          "internalType": "address",
          "name": "to",
          "type": "address"
        },
        {
          "internalType": "uint256",
          "name": "id",
          "type": "uint256"
        },
        {
          "internalType": "uint256",
          "name": "amount",
          "type": "uint256"
        },
        {
          "internalType": "bytes",
          "name": "data",
          "type": "bytes"
        }
      ],
      "name": "safeTransferFrom",
      "outputs": [],
      "stateMutability": "nonpayable",
      "type": "function"
    },
    {
      "inputs": [
        {
          "internalType": "address",
          "name": "operator",
          "type": "address"
        },
        {
          "internalType": "bool",
          "name": "approved",
          "type": "bool"
        }
      ],
      "name": "setApprovalForAll",
      "outputs": [],
      "stateMutability": "nonpayable",
      "type": "function"
    },
    {
      "inputs": [
        {
          "internalType": "address",
          "name": "_executorManager",
          "type": "address"
        }
      ],
      "name": "setExecutorManager",
      "outputs": [],
      "stateMutability": "nonpayable",
      "type": "function"
    },
    {
      "inputs": [
        {
          "internalType": "bytes32",
          "name": "_merkleRoot",
          "type": "bytes32"
        }
      ],
      "name": "setMerkleRoot",
      "outputs": [],
      "stateMutability": "nonpayable",
      "type": "function"
    },
    {
      "inputs": [
        {
          "internalType": "bytes4",
          "name": "interfaceId",
          "type": "bytes4"
        }
      ],
      "name": "supportsInterface",
      "outputs": [
        {
          "internalType": "bool",
          "name": "",
          "type": "bool"
        }
      ],
      "stateMutability": "view",
      "type": "function"
    },
    {
      "inputs": [
        {
          "internalType": "uint256",
          "name": "",
          "type": "uint256"
        }
      ],
      "name": "uri",
      "outputs": [
        {
          "internalType": "string",
          "name": "",
          "type": "string"
        }
      ],
      "stateMutability": "view",
      "type": "function"
    },
    {
      "inputs": [
        {
          "internalType": "uint256",
          "name": "amount",
          "type": "uint256"
        },
        {
          "internalType": "bytes",
          "name": "data",
          "type": "bytes"
        },
        {
          "internalType": "bytes32[]",
          "name": "merkleProof",
          "type": "bytes32[]"
        }
      ],
      "name": "whitelistMint",
      "outputs": [],
      "stateMutability": "nonpayable",
      "type": "function"
    }
  ],
  "bytecode": "0x60806040523480156200001157600080fd5b5060405162002bd038038062002bd0833981016040819052620000349162000595565b8262000040816200010c565b506001600160a01b0385166200009d5760405162461bcd60e51b815260206004820152601d60248201527f4f776e657220616464726573732063616e6e6f7420626520656d70747900000060448201526064015b60405180910390fd5b60068054620000d1913391906000620000b68362000689565b9091555060408051602081019091526000815285906200011e565b620000de6000336200023c565b6004939093555050600780546001600160a01b0319166001600160a01b039092169190911790555062000991565b60026200011a828262000730565b5050565b6001600160a01b038416620001805760405162461bcd60e51b815260206004820152602160248201527f455243313135353a206d696e7420746f20746865207a65726f206164647265736044820152607360f81b606482015260840162000094565b3360006200018e8562000248565b905060006200019d8562000248565b90506000868152602081815260408083206001600160a01b038b16845290915281208054879290620001d1908490620007fc565b909155505060408051878152602081018790526001600160a01b03808a1692600092918716917fc3d58168c5ae7397731d063d5bbf3d657854427343f4c083240f7aacaa2d0f62910160405180910390a462000233836000898989896200029e565b50505050505050565b6200011a828262000456565b6040805160018082528183019092526060916000919060208083019080368337019050509050828160008151811062000285576200028562000812565b602090810291909101015292915050565b505050505050565b6001600160a01b0384163b15620002965760405163f23a6e6160e01b81526001600160a01b0385169063f23a6e6190620002e5908990899088908890889060040162000856565b6020604051808303816000875af192505050801562000323575060408051601f3d908101601f1916820190925262000320918101906200089d565b60015b620003e35762000332620008d0565b806308c379a00362000372575062000349620008ed565b8062000356575062000374565b8060405162461bcd60e51b81526004016200009491906200097c565b505b60405162461bcd60e51b815260206004820152603460248201527f455243313135353a207472616e7366657220746f206e6f6e2d4552433131353560448201527f526563656976657220696d706c656d656e746572000000000000000000000000606482015260840162000094565b6001600160e01b0319811663f23a6e6160e01b14620002335760405162461bcd60e51b815260206004820152602860248201527f455243313135353a204552433131353552656365697665722072656a656374656044820152676420746f6b656e7360c01b606482015260840162000094565b620004628282620004e0565b6200011a5760008281526003602090815260408083206001600160a01b03851684529091529020805460ff191660011790556200049c3390565b6001600160a01b0316816001600160a01b0316837f2f8788117e7eff1d82e926ec794901d17c78024a50270940304540a733656f0d60405160405180910390a45050565b60008281526003602090815260408083206001600160a01b038516845290915290205460ff165b92915050565b80516001600160a01b03811681146200052557600080fd5b919050565b634e487b7160e01b600052604160045260246000fd5b601f8201601f191681016001600160401b03811182821017156200056857620005686200052a565b6040525050565b60005b838110156200058c57818101518382015260200162000572565b50506000910152565b600080600080600060a08688031215620005ae57600080fd5b620005b9866200050d565b6020870151604088015191965094506001600160401b0380821115620005de57600080fd5b818801915088601f830112620005f357600080fd5b8151818111156200060857620006086200052a565b604051915062000623601f8201601f19166020018362000540565b8082528960208285010111156200063957600080fd5b6200064c8160208401602086016200056f565b5080945050506060860151915062000667608087016200050d565b90509295509295909350565b634e487b7160e01b600052601160045260246000fd5b6000600182016200069e576200069e62000673565b5060010190565b600181811c90821680620006ba57607f821691505b602082108103620006db57634e487b7160e01b600052602260045260246000fd5b50919050565b601f8211156200072b57600081815260208120601f850160051c810160208610156200070a5750805b601f850160051c820191505b81811015620002965782815560010162000716565b505050565b81516001600160401b038111156200074c576200074c6200052a565b62000764816200075d8454620006a5565b84620006e1565b602080601f8311600181146200079c5760008415620007835750858301515b600019600386901b1c1916600185901b17855562000296565b600085815260208120601f198616915b82811015620007cd57888601518255948401946001909101908401620007ac565b5085821015620007ec5787850151600019600388901b60f8161c191681555b5050505050600190811b01905550565b8082018082111562000507576200050762000673565b634e487b7160e01b600052603260045260246000fd5b60008151808452620008428160208601602086016200056f565b601f01601f19169290920160200192915050565b6001600160a01b03868116825285166020820152604081018490526060810183905260a060808201819052600090620008929083018462000828565b979650505050505050565b600060208284031215620008b057600080fd5b81516001600160e01b031981168114620008c957600080fd5b9392505050565b600060033d1115620008ea5760046000803e5060005160e01c5b90565b600060443d1015620008fc5790565b6040516003193d81016004833e81513d6001600160401b0380831160248401831017156200092c57505050505090565b8285019150815181811115620009455750505050505090565b843d8701016020828501011115620009605750505050505090565b620009716020828601018762000540565b509095945050505050565b602081526000620008c9602083018462000828565b61222f80620009a16000396000f3fe608060405234801561001057600080fd5b506004361061014c5760003560e01c80633e352e62116100c3578063c0883b921161007c578063c0883b92146102f2578063c3ae2b781461031d578063d547741f14610330578063e985e9c514610343578063ef0d45721461037f578063f242432a1461039257600080fd5b80633e352e621461027e5780634e1273f4146102915780637cb64759146102b157806391d14854146102c4578063a217fddf146102d7578063a22cb465146102df57600080fd5b8063248a9ca311610115578063248a9ca3146101f45780632eb2c2d6146102175780632eb4a7ab1461022c5780632ecc6160146102355780632f2ff15d1461025857806336568abe1461026b57600080fd5b8062fdd58e1461015157806301ffc9a714610177578063069824fb1461019a57806307bd0265146101ad5780630e89341c146101d4575b600080fd5b61016461015f3660046116f3565b6103a5565b6040519081526020015b60405180910390f35b61018a610185366004611735565b61043e565b604051901515815260200161016e565b61018a6101a836600461179d565b610458565b6101647fd8aa0f3194971a2a116679f7c2090f6939c8d4e01a2a8d7e41d55e5351469e6381565b6101e76101e23660046117de565b6104dc565b60405161016e9190611847565b6101646102023660046117de565b60009081526003602052604090206001015490565b61022a6102253660046119a3565b610570565b005b61016460045481565b61018a6102433660046117de565b60056020526000908152604090205460ff1681565b61022a610266366004611a50565b6105bc565b61022a610279366004611a50565b6105e6565b61022a61028c366004611a80565b610664565b6102a461029f366004611af7565b61085d565b60405161016e9190611bfe565b61022a6102bf3660046117de565b610986565b61018a6102d2366004611a50565b610997565b610164600081565b61022a6102ed366004611c1f565b6109c2565b600754610305906001600160a01b031681565b6040516001600160a01b03909116815260200161016e565b61022a61032b366004611c4d565b6109cd565b61022a61033e366004611a50565b610ae8565b61018a610351366004611cbc565b6001600160a01b03918216600090815260016020908152604080832093909416825291909152205460ff1690565b61022a61038d366004611cea565b610b0d565b61022a6103a0366004611d07565b610b3b565b60006001600160a01b0383166104155760405162461bcd60e51b815260206004820152602a60248201527f455243313135353a2061646472657373207a65726f206973206e6f742061207660448201526930b634b21037bbb732b960b11b60648201526084015b60405180910390fd5b506000818152602081815260408083206001600160a01b03861684529091529020545b92915050565b600061044982610b80565b80610438575061043882610bd0565b6040516bffffffffffffffffffffffff193360601b16602082015260009081906034016040516020818303038152906040528051906020012090506104d4848480806020026020016040519081016040528093929190818152602001838360200280828437600092019190915250506004549150849050610bf5565b949350505050565b6060600280546104eb90611d6f565b80601f016020809104026020016040519081016040528092919081815260200182805461051790611d6f565b80156105645780601f1061053957610100808354040283529160200191610564565b820191906000526020600020905b81548152906001019060200180831161054757829003601f168201915b50505050509050919050565b6001600160a01b03851633148061058c575061058c8533610351565b6105a85760405162461bcd60e51b815260040161040c90611da9565b6105b58585858585610c0b565b5050505050565b6000828152600360205260409020600101546105d781610de8565b6105e18383610df5565b505050565b6001600160a01b03811633146106565760405162461bcd60e51b815260206004820152602f60248201527f416363657373436f6e74726f6c3a2063616e206f6e6c792072656e6f756e636560448201526e103937b632b9903337b91039b2b63360891b606482015260840161040c565b6106608282610e7b565b5050565b600754604051630debfda360e41b81523360048201526001600160a01b039091169063debfda3090602401602060405180830381865afa1580156106ac573d6000803e3d6000fd5b505050506040513d601f19601f820116820180604052508101906106d09190611df7565b6107285760405162461bcd60e51b8152602060048201526024808201527f43616c6c6572206973206e6f7420616e20617574686f72697a656420657865636044820152633aba37b960e11b606482015260840161040c565b60005b82811015610800576000808080878588610746826068611e2a565b9261075393929190611e3d565b8101906107609190611e67565b93509350935093508061077384846103a5565b10156107cc5760405162461bcd60e51b815260206004820152602260248201527f53656c6c657220646f6573206e6f74206861766520656e6f75676820746f6b656044820152616e7360f01b606482015260840161040c565b6107e88385848460405180602001604052806000815250610ee2565b505050506068816107f99190611e2a565b905061072b565b5060008383604051610813929190611ead565b604080519182900382208083524260208401529250839133917f78202e946262627c432f6c5b92fee2a7224c9aabdb3c71f747fccbad2fb470a4910160405180910390a350505050565b606081518351146108c25760405162461bcd60e51b815260206004820152602960248201527f455243313135353a206163636f756e747320616e6420696473206c656e677468604482015268040dad2e6dac2e8c6d60bb1b606482015260840161040c565b600083516001600160401b038111156108dd576108dd61185a565b604051908082528060200260200182016040528015610906578160200160208202803683370190505b50905060005b845181101561097e5761095185828151811061092a5761092a611ebd565b602002602001015185838151811061094457610944611ebd565b60200260200101516103a5565b82828151811061096357610963611ebd565b602090810291909101015261097781611ed3565b905061090c565b509392505050565b600061099181610de8565b50600455565b60009182526003602090815260408084206001600160a01b0393909316845291905290205460ff1690565b61066033838361100c565b60065460008181526005602052604090205460ff1615610a3d5760405162461bcd60e51b815260206004820152602560248201527f546f6b656e2069732063757272656e746c79206c6f636b656420666f72206d696044820152646e74696e6760d81b606482015260840161040c565b610a478383610458565b610a935760405162461bcd60e51b815260206004820152601960248201527f43616c6c6572206973206e6f742077686974656c697374656400000000000000604482015260640161040c565b6000818152600560205260409020805460ff19166001179055610ab8338287876110ec565b6000818152600560205260408120805460ff191690556006805491610adc83611ed3565b91905055505050505050565b600082815260036020526040902060010154610b0381610de8565b6105e18383610e7b565b6000610b1881610de8565b50600780546001600160a01b0319166001600160a01b0392909216919091179055565b6001600160a01b038516331480610b575750610b578533610351565b610b735760405162461bcd60e51b815260040161040c90611da9565b6105b58585858585610ee2565b60006001600160e01b03198216636cdb3d1360e11b1480610bb157506001600160e01b031982166303a24d0760e21b145b8061043857506301ffc9a760e01b6001600160e01b0319831614610438565b60006001600160e01b03198216637965db0b60e01b1480610438575061043882610b80565b600082610c028584611200565b14949350505050565b8151835114610c6d5760405162461bcd60e51b815260206004820152602860248201527f455243313135353a2069647320616e6420616d6f756e7473206c656e677468206044820152670dad2e6dac2e8c6d60c31b606482015260840161040c565b6001600160a01b038416610c935760405162461bcd60e51b815260040161040c90611eec565b3360005b8451811015610d7a576000858281518110610cb457610cb4611ebd565b602002602001015190506000858381518110610cd257610cd2611ebd565b602090810291909101810151600084815280835260408082206001600160a01b038e168352909352919091205490915081811015610d225760405162461bcd60e51b815260040161040c90611f31565b6000838152602081815260408083206001600160a01b038e8116855292528083208585039055908b16825281208054849290610d5f908490611e2a565b9250508190555050505080610d7390611ed3565b9050610c97565b50846001600160a01b0316866001600160a01b0316826001600160a01b03167f4a39dc06d4c0dbc64b70af90fd698a233a518aa5d07e595d983b8c0526c8f7fb8787604051610dca929190611f7b565b60405180910390a4610de0818787878787611245565b505050505050565b610df281336113a0565b50565b610dff8282610997565b6106605760008281526003602090815260408083206001600160a01b03851684529091529020805460ff19166001179055610e373390565b6001600160a01b0316816001600160a01b0316837f2f8788117e7eff1d82e926ec794901d17c78024a50270940304540a733656f0d60405160405180910390a45050565b610e858282610997565b156106605760008281526003602090815260408083206001600160a01b0385168085529252808320805460ff1916905551339285917ff6391f5c32d9c69d2a47ea670b442974b53935d1edc7fd64eb21e047a839171b9190a45050565b6001600160a01b038416610f085760405162461bcd60e51b815260040161040c90611eec565b336000610f14856113f9565b90506000610f21856113f9565b90506000868152602081815260408083206001600160a01b038c16845290915290205485811015610f645760405162461bcd60e51b815260040161040c90611f31565b6000878152602081815260408083206001600160a01b038d8116855292528083208985039055908a16825281208054889290610fa1908490611e2a565b909155505060408051888152602081018890526001600160a01b03808b16928c821692918816917fc3d58168c5ae7397731d063d5bbf3d657854427343f4c083240f7aacaa2d0f62910160405180910390a4611001848a8a8a8a8a611444565b505050505050505050565b816001600160a01b0316836001600160a01b03160361107f5760405162461bcd60e51b815260206004820152602960248201527f455243313135353a2073657474696e6720617070726f76616c20737461747573604482015268103337b91039b2b63360b91b606482015260840161040c565b6001600160a01b03838116600081815260016020908152604080832094871680845294825291829020805460ff191686151590811790915591519182527f17307eab39ab6107e8899845ad3d59bd9653f200f220920489ca2b5937696c31910160405180910390a3505050565b6001600160a01b03841661114c5760405162461bcd60e51b815260206004820152602160248201527f455243313135353a206d696e7420746f20746865207a65726f206164647265736044820152607360f81b606482015260840161040c565b336000611158856113f9565b90506000611165856113f9565b90506000868152602081815260408083206001600160a01b038b16845290915281208054879290611197908490611e2a565b909155505060408051878152602081018790526001600160a01b03808a1692600092918716917fc3d58168c5ae7397731d063d5bbf3d657854427343f4c083240f7aacaa2d0f62910160405180910390a46111f783600089898989611444565b50505050505050565b600081815b845181101561097e576112318286838151811061122457611224611ebd565b60200260200101516114ff565b91508061123d81611ed3565b915050611205565b6001600160a01b0384163b15610de05760405163bc197c8160e01b81526001600160a01b0385169063bc197c81906112899089908990889088908890600401611fa9565b6020604051808303816000875af19250505080156112c4575060408051601f3d908101601f191682019092526112c191810190612007565b60015b611370576112d0612024565b806308c379a00361130957506112e4612040565b806112ef575061130b565b8060405162461bcd60e51b815260040161040c9190611847565b505b60405162461bcd60e51b815260206004820152603460248201527f455243313135353a207472616e7366657220746f206e6f6e2d455243313135356044820152732932b1b2b4bb32b91034b6b83632b6b2b73a32b960611b606482015260840161040c565b6001600160e01b0319811663bc197c8160e01b146111f75760405162461bcd60e51b815260040161040c906120c9565b6113aa8282610997565b610660576113b781611531565b6113c2836020611543565b6040516020016113d3929190612111565b60408051601f198184030181529082905262461bcd60e51b825261040c91600401611847565b6040805160018082528183019092526060916000919060208083019080368337019050509050828160008151811061143357611433611ebd565b602090810291909101015292915050565b6001600160a01b0384163b15610de05760405163f23a6e6160e01b81526001600160a01b0385169063f23a6e61906114889089908990889088908890600401612186565b6020604051808303816000875af19250505080156114c3575060408051601f3d908101601f191682019092526114c091810190612007565b60015b6114cf576112d0612024565b6001600160e01b0319811663f23a6e6160e01b146111f75760405162461bcd60e51b815260040161040c906120c9565b600081831061151b57600082815260208490526040902061152a565b60008381526020839052604090205b9392505050565b60606104386001600160a01b03831660145b606060006115528360026121cb565b61155d906002611e2a565b6001600160401b038111156115745761157461185a565b6040519080825280601f01601f19166020018201604052801561159e576020820181803683370190505b509050600360fc1b816000815181106115b9576115b9611ebd565b60200101906001600160f81b031916908160001a905350600f60fb1b816001815181106115e8576115e8611ebd565b60200101906001600160f81b031916908160001a905350600061160c8460026121cb565b611617906001611e2a565b90505b600181111561168f576f181899199a1a9b1b9c1cb0b131b232b360811b85600f166010811061164b5761164b611ebd565b1a60f81b82828151811061166157611661611ebd565b60200101906001600160f81b031916908160001a90535060049490941c93611688816121e2565b905061161a565b50831561152a5760405162461bcd60e51b815260206004820181905260248201527f537472696e67733a20686578206c656e67746820696e73756666696369656e74604482015260640161040c565b6001600160a01b0381168114610df257600080fd5b6000806040838503121561170657600080fd5b8235611711816116de565b946020939093013593505050565b6001600160e01b031981168114610df257600080fd5b60006020828403121561174757600080fd5b813561152a8161171f565b60008083601f84011261176457600080fd5b5081356001600160401b0381111561177b57600080fd5b6020830191508360208260051b850101111561179657600080fd5b9250929050565b600080602083850312156117b057600080fd5b82356001600160401b038111156117c657600080fd5b6117d285828601611752565b90969095509350505050565b6000602082840312156117f057600080fd5b5035919050565b60005b838110156118125781810151838201526020016117fa565b50506000910152565b600081518084526118338160208601602086016117f7565b601f01601f19169290920160200192915050565b60208152600061152a602083018461181b565b634e487b7160e01b600052604160045260246000fd5b601f8201601f191681016001600160401b03811182821017156118955761189561185a565b6040525050565b60006001600160401b038211156118b5576118b561185a565b5060051b60200190565b600082601f8301126118d057600080fd5b813560206118dd8261189c565b6040516118ea8282611870565b83815260059390931b850182019282810191508684111561190a57600080fd5b8286015b84811015611925578035835291830191830161190e565b509695505050505050565b600082601f83011261194157600080fd5b81356001600160401b0381111561195a5761195a61185a565b604051611971601f8301601f191660200182611870565b81815284602083860101111561198657600080fd5b816020850160208301376000918101602001919091529392505050565b600080600080600060a086880312156119bb57600080fd5b85356119c6816116de565b945060208601356119d6816116de565b935060408601356001600160401b03808211156119f257600080fd5b6119fe89838a016118bf565b94506060880135915080821115611a1457600080fd5b611a2089838a016118bf565b93506080880135915080821115611a3657600080fd5b50611a4388828901611930565b9150509295509295909350565b60008060408385031215611a6357600080fd5b823591506020830135611a75816116de565b809150509250929050565b600080600060408486031215611a9557600080fd5b83356001600160401b0380821115611aac57600080fd5b818601915086601f830112611ac057600080fd5b813581811115611acf57600080fd5b876020828501011115611ae157600080fd5b6020928301989097509590910135949350505050565b60008060408385031215611b0a57600080fd5b82356001600160401b0380821115611b2157600080fd5b818501915085601f830112611b3557600080fd5b81356020611b428261189c565b604051611b4f8282611870565b83815260059390931b8501820192828101915089841115611b6f57600080fd5b948201945b83861015611b96578535611b87816116de565b82529482019490820190611b74565b96505086013592505080821115611bac57600080fd5b50611bb9858286016118bf565b9150509250929050565b600081518084526020808501945080840160005b83811015611bf357815187529582019590820190600101611bd7565b509495945050505050565b60208152600061152a6020830184611bc3565b8015158114610df257600080fd5b60008060408385031215611c3257600080fd5b8235611c3d816116de565b91506020830135611a7581611c11565b60008060008060608587031215611c6357600080fd5b8435935060208501356001600160401b0380821115611c8157600080fd5b611c8d88838901611930565b94506040870135915080821115611ca357600080fd5b50611cb087828801611752565b95989497509550505050565b60008060408385031215611ccf57600080fd5b8235611cda816116de565b91506020830135611a75816116de565b600060208284031215611cfc57600080fd5b813561152a816116de565b600080600080600060a08688031215611d1f57600080fd5b8535611d2a816116de565b94506020860135611d3a816116de565b9350604086013592506060860135915060808601356001600160401b03811115611d6357600080fd5b611a4388828901611930565b600181811c90821680611d8357607f821691505b602082108103611da357634e487b7160e01b600052602260045260246000fd5b50919050565b6020808252602e908201527f455243313135353a2063616c6c6572206973206e6f7420746f6b656e206f776e60408201526d195c881bdc88185c1c1c9bdd995960921b606082015260800190565b600060208284031215611e0957600080fd5b815161152a81611c11565b634e487b7160e01b600052601160045260246000fd5b8082018082111561043857610438611e14565b60008085851115611e4d57600080fd5b83861115611e5a57600080fd5b5050820193919092039150565b60008060008060808587031215611e7d57600080fd5b8435611e88816116de565b93506020850135611e98816116de565b93969395505050506040820135916060013590565b8183823760009101908152919050565b634e487b7160e01b600052603260045260246000fd5b600060018201611ee557611ee5611e14565b5060010190565b60208082526025908201527f455243313135353a207472616e7366657220746f20746865207a65726f206164604082015264647265737360d81b606082015260800190565b6020808252602a908201527f455243313135353a20696e73756666696369656e742062616c616e636520666f60408201526939103a3930b739b332b960b11b606082015260800190565b604081526000611f8e6040830185611bc3565b8281036020840152611fa08185611bc3565b95945050505050565b6001600160a01b0386811682528516602082015260a060408201819052600090611fd590830186611bc3565b8281036060840152611fe78186611bc3565b90508281036080840152611ffb818561181b565b98975050505050505050565b60006020828403121561201957600080fd5b815161152a8161171f565b600060033d111561203d5760046000803e5060005160e01c5b90565b600060443d101561204e5790565b6040516003193d81016004833e81513d6001600160401b03816024840111818411171561207d57505050505090565b82850191508151818111156120955750505050505090565b843d87010160208285010111156120af5750505050505090565b6120be60208286010187611870565b509095945050505050565b60208082526028908201527f455243313135353a204552433131353552656365697665722072656a656374656040820152676420746f6b656e7360c01b606082015260800190565b7f416363657373436f6e74726f6c3a206163636f756e74200000000000000000008152600083516121498160178501602088016117f7565b7001034b99036b4b9b9b4b733903937b6329607d1b601791840191820152835161217a8160288401602088016117f7565b01602801949350505050565b6001600160a01b03868116825285166020820152604081018490526060810183905260a0608082018190526000906121c09083018461181b565b979650505050505050565b808202811582820484141761043857610438611e14565b6000816121f1576121f1611e14565b50600019019056fea2646970667358221220bde04d8ea11c624538c0295fcd3d6b74a74e1f6047cd7827cf73a25d7f09f5da64736f6c63430008130033",
  "linkReferences": {},
  "deployedLinkReferences": {}
}