{
  "_format": "hh-sol-artifact-1",
  "contractName": "BundlerManager",
  "sourceName": "contracts/BundlerManager.sol",
  "abi": [
    {
      "anonymous": false,
      "inputs": [
        {
          "indexed": true,
          "internalType": "address",
          "name": "bundler",
          "type": "address"
        }
      ],
      "name": "BundlerRegistered",
      "type": "event"
    },
    {
      "anonymous": false,
      "inputs": [
        {
          "indexed": true,
          "internalType": "address",
          "name": "bundler",
          "type": "address"
        },
        {
          "indexed": false,
          "internalType": "uint256",
          "name": "timestamp",
          "type": "uint256"
        }
      ],
      "name": "Heartbeat",
      "type": "event"
    },
    {
      "inputs": [],
      "name": "heartbeat",
      "outputs": [],
      "stateMutability": "nonpayable",
      "type": "function"
    },
    {
      "inputs": [
        {
          "internalType": "address",
          "name": "",
          "type": "address"
        }
      ],
      "name": "isBundler",
      "outputs": [
        {
          "internalType": "bool",
          "name": "",
          "type": "bool"
        }
      ],
      "stateMutability": "view",
      "type": "function"
    },
    {
      "inputs": [
        {
          "internalType": "address",
          "name": "",
          "type": "address"
        }
      ],
      "name": "lastHeartbeat",
      "outputs": [
        {
          "internalType": "uint256",
          "name": "",
          "type": "uint256"
        }
      ],
      "stateMutability": "view",
      "type": "function"
    },
    {
      "inputs": [],
      "name": "registerAsBundler",
      "outputs": [],
      "stateMutability": "payable",
      "type": "function"
    },
    {
      "inputs": [],
      "name": "registrationFee",
      "outputs": [
        {
          "internalType": "uint256",
          "name": "",
          "type": "uint256"
        }
      ],
      "stateMutability": "view",
      "type": "function"
    },
    {
      "inputs": [
        {
          "internalType": "uint256",
          "name": "fee",
          "type": "uint256"
        }
      ],
      "name": "setRegistrationFee",
      "outputs": [],
      "stateMutability": "nonpayable",
      "type": "function"
    }
  ],
  "bytecode": "0x608060405234801561001057600080fd5b506102df806100206000396000f3fe6080604052600436106100555760003560e01c806314c44e091461005a5780632220967e146100835780633defb962146100b0578063551530d6146100c7578063827a0ea614610107578063c320c7271461010f575b600080fd5b34801561006657600080fd5b5061007060025481565b6040519081526020015b60405180910390f35b34801561008f57600080fd5b5061007061009e366004610260565b60016020526000908152604090205481565b3480156100bc57600080fd5b506100c561012f565b005b3480156100d357600080fd5b506100f76100e2366004610260565b60006020819052908152604090205460ff1681565b604051901515815260200161007a565b6100c56101dd565b34801561011b57600080fd5b506100c561012a366004610290565b600255565b3360009081526020819052604090205460ff166101935760405162461bcd60e51b815260206004820152601860248201527f4e6f74206120726567697374657265642062756e646c6572000000000000000060448201526064015b60405180910390fd5b33600081815260016020908152604091829020429081905591519182527f524ff62d10e7448ae7f4b3312273a3f8400a0662bc7991a69119576c86cecabe910160405180910390a2565b600254341461021e5760405162461bcd60e51b815260206004820152600d60248201526c496e636f72726563742066656560981b604482015260640161018a565b33600081815260208190526040808220805460ff19166001179055517f2f8f01b91096d69e5a523003459876ae74534592e7ffe3ab00a1a21e9a8f5d9c9190a2565b60006020828403121561027257600080fd5b81356001600160a01b038116811461028957600080fd5b9392505050565b6000602082840312156102a257600080fd5b503591905056fea26469706673582212206f597bfb89231640d309447cf9ba42fbaef92f5f79a52560f703b5e703717a4764736f6c63430008130033",
  "linkReferences": {},
  "deployedLinkReferences": {}
}