{
  "_format": "hh-sol-artifact-1",
  "contractName": "ExecutorManager",
  "sourceName": "contracts/ExecutorManager.sol",
  "abi": [
    {
      "inputs": [],
      "stateMutability": "nonpayable",
      "type": "constructor"
    },
    {
      "anonymous": false,
      "inputs": [
        {
          "indexed": true,
          "internalType": "address",
          "name": "executor",
          "type": "address"
        }
      ],
      "name": "ExecutorRegistered",
      "type": "event"
    },
    {
      "anonymous": false,
      "inputs": [
        {
          "indexed": true,
          "internalType": "address",
          "name": "executor",
          "type": "address"
        }
      ],
      "name": "ExecutorUnregistered",
      "type": "event"
    },
    {
      "anonymous": false,
      "inputs": [
        {
          "indexed": true,
          "internalType": "bytes32",
          "name": "role",
          "type": "bytes32"
        },
        {
          "indexed": true,
          "internalType": "bytes32",
          "name": "previousAdminRole",
          "type": "bytes32"
        },
        {
          "indexed": true,
          "internalType": "bytes32",
          "name": "newAdminRole",
          "type": "bytes32"
        }
      ],
      "name": "RoleAdminChanged",
      "type": "event"
    },
    {
      "anonymous": false,
      "inputs": [
        {
          "indexed": true,
          "internalType": "bytes32",
          "name": "role",
          "type": "bytes32"
        },
        {
          "indexed": true,
          "internalType": "address",
          "name": "account",
          "type": "address"
        },
        {
          "indexed": true,
          "internalType": "address",
          "name": "sender",
          "type": "address"
        }
      ],
      "name": "RoleGranted",
      "type": "event"
    },
    {
      "anonymous": false,
      "inputs": [
        {
          "indexed": true,
          "internalType": "bytes32",
          "name": "role",
          "type": "bytes32"
        },
        {
          "indexed": true,
          "internalType": "address",
          "name": "account",
          "type": "address"
        },
        {
          "indexed": true,
          "internalType": "address",
          "name": "sender",
          "type": "address"
        }
      ],
      "name": "RoleRevoked",
      "type": "event"
    },
    {
      "inputs": [],
      "name": "DEFAULT_ADMIN_ROLE",
      "outputs": [
        {
          "internalType": "bytes32",
          "name": "",
          "type": "bytes32"
        }
      ],
      "stateMutability": "view",
      "type": "function"
    },
    {
      "inputs": [],
      "name": "EXECUTOR_ROLE",
      "outputs": [
        {
          "internalType": "bytes32",
          "name": "",
          "type": "bytes32"
        }
      ],
      "stateMutability": "view",
      "type": "function"
    },
    {
      "inputs": [
        {
          "internalType": "bytes32",
          "name": "role",
          "type": "bytes32"
        }
      ],
      "name": "getRoleAdmin",
      "outputs": [
        {
          "internalType": "bytes32",
          "name": "",
          "type": "bytes32"
        }
      ],
      "stateMutability": "view",
      "type": "function"
    },
    {
      "inputs": [
        {
          "internalType": "bytes32",
          "name": "role",
          "type": "bytes32"
        },
        {
          "internalType": "address",
          "name": "account",
          "type": "address"
        }
      ],
      "name": "grantRole",
      "outputs": [],
      "stateMutability": "nonpayable",
      "type": "function"
    },
    {
      "inputs": [
        {
          "internalType": "bytes32",
          "name": "role",
          "type": "bytes32"
        },
        {
          "internalType": "address",
          "name": "account",
          "type": "address"
        }
      ],
      "name": "hasRole",
      "outputs": [
        {
          "internalType": "bool",
          "name": "",
          "type": "bool"
        }
      ],
      "stateMutability": "view",
      "type": "function"
    },
    {
      "inputs": [
        {
          "internalType": "address",
          "name": "executor",
          "type": "address"
        }
      ],
      "name": "isExecutor",
      "outputs": [
        {
          "internalType": "bool",
          "name": "",
          "type": "bool"
        }
      ],
      "stateMutability": "view",
      "type": "function"
    },
    {
      "inputs": [
        {
          "internalType": "address",
          "name": "executor",
          "type": "address"
        }
      ],
      "name": "registerExecutor",
      "outputs": [],
      "stateMutability": "nonpayable",
      "type": "function"
    },
    {
      "inputs": [
        {
          "internalType": "bytes32",
          "name": "role",
          "type": "bytes32"
        },
        {
          "internalType": "address",
          "name": "account",
          "type": "address"
        }
      ],
      "name": "renounceRole",
      "outputs": [],
      "stateMutability": "nonpayable",
      "type": "function"
    },
    {
      "inputs": [
        {
          "internalType": "bytes32",
          "name": "role",
          "type": "bytes32"
        },
        {
          "internalType": "address",
          "name": "account",
          "type": "address"
        }
      ],
      "name": "revokeRole",
      "outputs": [],
      "stateMutability": "nonpayable",
      "type": "function"
    },
    {
      "inputs": [
        {
          "internalType": "bytes4",
          "name": "interfaceId",
          "type": "bytes4"
        }
      ],
      "name": "supportsInterface",
      "outputs": [
        {
          "internalType": "bool",
          "name": "",
          "type": "bool"
        }
      ],
      "stateMutability": "view",
      "type": "function"
    },
    {
      "inputs": [
        {
          "internalType": "address",
          "name": "executor",
          "type": "address"
        }
      ],
      "name": "unregisterExecutor",
      "outputs": [],
      "stateMutability": "nonpayable",
      "type": "function"
    }
  ],
  "bytecode": "0x608060405234801561001057600080fd5b5061001c600033610021565b6100cd565b61002b828261002f565b5050565b6000828152602081815260408083206001600160a01b038516845290915290205460ff1661002b576000828152602081815260408083206001600160a01b03851684529091529020805460ff191660011790556100893390565b6001600160a01b0316816001600160a01b0316837f2f8788117e7eff1d82e926ec794901d17c78024a50270940304540a733656f0d60405160405180910390a45050565b610906806100dc6000396000f3fe608060405234801561001057600080fd5b50600436106100a95760003560e01c8063894d12c211610071578063894d12c21461014457806391d1485414610157578063a09c59fb1461016a578063a217fddf1461017d578063d547741f14610185578063debfda301461019857600080fd5b806301ffc9a7146100ae57806307bd0265146100d6578063248a9ca3146100f95780632f2ff15d1461011c57806336568abe14610131575b600080fd5b6100c16100bc3660046106bb565b6101ab565b60405190151581526020015b60405180910390f35b6100eb6000805160206108b183398151915281565b6040519081526020016100cd565b6100eb6101073660046106e5565b60009081526020819052604090206001015490565b61012f61012a36600461071a565b6101e2565b005b61012f61013f36600461071a565b61020c565b61012f610152366004610746565b61028f565b6100c161016536600461071a565b6102ea565b61012f610178366004610746565b610313565b6100eb600081565b61012f61019336600461071a565b61036e565b6100c16101a6366004610746565b610393565b60006001600160e01b03198216637965db0b60e01b14806101dc57506301ffc9a760e01b6001600160e01b03198316145b92915050565b6000828152602081905260409020600101546101fd816103ad565b61020783836103ba565b505050565b6001600160a01b03811633146102815760405162461bcd60e51b815260206004820152602f60248201527f416363657373436f6e74726f6c3a2063616e206f6e6c792072656e6f756e636560448201526e103937b632b9903337b91039b2b63360891b60648201526084015b60405180910390fd5b61028b828261043e565b5050565b600061029a816103ad565b6102b26000805160206108b18339815191528361043e565b6040516001600160a01b038316907fdd96f65ca46c65c337946f2242c6e8a2383b8733b20e36dad5b48a648ea3210890600090a25050565b6000918252602082815260408084206001600160a01b0393909316845291905290205460ff1690565b600061031e816103ad565b6103366000805160206108b1833981519152836104a3565b6040516001600160a01b038316907f12ad16bd2a8e5f789a2584f92dba7594ec459e9eb0d00b0dba8843f6c59f035b90600090a25050565b600082815260208190526040902060010154610389816103ad565b610207838361043e565b60006101dc6000805160206108b1833981519152836102ea565b6103b781336104ad565b50565b6103c482826102ea565b61028b576000828152602081815260408083206001600160a01b03851684529091529020805460ff191660011790556103fa3390565b6001600160a01b0316816001600160a01b0316837f2f8788117e7eff1d82e926ec794901d17c78024a50270940304540a733656f0d60405160405180910390a45050565b61044882826102ea565b1561028b576000828152602081815260408083206001600160a01b0385168085529252808320805460ff1916905551339285917ff6391f5c32d9c69d2a47ea670b442974b53935d1edc7fd64eb21e047a839171b9190a45050565b61028b82826103ba565b6104b782826102ea565b61028b576104c481610506565b6104cf836020610518565b6040516020016104e0929190610785565b60408051601f198184030181529082905262461bcd60e51b8252610278916004016107fa565b60606101dc6001600160a01b03831660145b60606000610527836002610843565b61053290600261085a565b67ffffffffffffffff81111561054a5761054a61086d565b6040519080825280601f01601f191660200182016040528015610574576020820181803683370190505b509050600360fc1b8160008151811061058f5761058f610883565b60200101906001600160f81b031916908160001a905350600f60fb1b816001815181106105be576105be610883565b60200101906001600160f81b031916908160001a90535060006105e2846002610843565b6105ed90600161085a565b90505b6001811115610665576f181899199a1a9b1b9c1cb0b131b232b360811b85600f166010811061062157610621610883565b1a60f81b82828151811061063757610637610883565b60200101906001600160f81b031916908160001a90535060049490941c9361065e81610899565b90506105f0565b5083156106b45760405162461bcd60e51b815260206004820181905260248201527f537472696e67733a20686578206c656e67746820696e73756666696369656e746044820152606401610278565b9392505050565b6000602082840312156106cd57600080fd5b81356001600160e01b0319811681146106b457600080fd5b6000602082840312156106f757600080fd5b5035919050565b80356001600160a01b038116811461071557600080fd5b919050565b6000806040838503121561072d57600080fd5b8235915061073d602084016106fe565b90509250929050565b60006020828403121561075857600080fd5b6106b4826106fe565b60005b8381101561077c578181015183820152602001610764565b50506000910152565b7f416363657373436f6e74726f6c3a206163636f756e74200000000000000000008152600083516107bd816017850160208801610761565b7001034b99036b4b9b9b4b733903937b6329607d1b60179184019182015283516107ee816028840160208801610761565b01602801949350505050565b6020815260008251806020840152610819816040850160208701610761565b601f01601f19169190910160400192915050565b634e487b7160e01b600052601160045260246000fd5b80820281158282048414176101dc576101dc61082d565b808201808211156101dc576101dc61082d565b634e487b7160e01b600052604160045260246000fd5b634e487b7160e01b600052603260045260246000fd5b6000816108a8576108a861082d565b50600019019056fed8aa0f3194971a2a116679f7c2090f6939c8d4e01a2a8d7e41d55e5351469e63a26469706673582212207a6934922d690497ff91f54a3cf13c8e12ba1e47b4a80d3956e051824f35cec064736f6c63430008130033",
  "linkReferences": {},
  "deployedLinkReferences": {}
}