{"contracts/BundlerManager.sol":{"BundlerManager":{"abi":[{"anonymous":false,"inputs":[{"indexed":true,"internalType":"address","name":"bundler","type":"address"}],"name":"BundlerRegistered","type":"event"},{"anonymous":false,"inputs":[{"indexed":true,"internalType":"address","name":"bundler","type":"address"},{"indexed":false,"internalType":"uint256","name":"timestamp","type":"uint256"}],"name":"Heartbeat","type":"event"},{"inputs":[],"name":"heartbeat","outputs":[],"stateMutability":"nonpayable","type":"function"},{"inputs":[{"internalType":"address","name":"","type":"address"}],"name":"isBundler","outputs":[{"internalType":"bool","name":"","type":"bool"}],"stateMutability":"view","type":"function"},{"inputs":[{"internalType":"address","name":"","type":"address"}],"name":"lastHeartbeat","outputs":[{"internalType":"uint256","name":"","type":"uint256"}],"stateMutability":"view","type":"function"},{"inputs":[],"name":"registerAsBundler","outputs":[],"stateMutability":"payable","type":"function"},{"inputs":[],"name":"registrationFee","outputs":[{"internalType":"uint256","name":"","type":"uint256"}],"stateMutability":"view","type":"function"},{"inputs":[{"internalType":"uint256","name":"fee","type":"uint256"}],"name":"setRegistrationFee","outputs":[],"stateMutability":"nonpayable","type":"function"}],"devdoc":{"kind":"dev","methods":{},"version":1},"evm":{"bytecode":{"linkReferences":{},"object":"608060405234801561001057600080fd5b506102df806100206000396000f3fe6080604052600436106100555760003560e01c806314c44e091461005a5780632220967e146100835780633defb962146100b0578063551530d6146100c7578063827a0ea614610107578063c320c7271461010f575b600080fd5b34801561006657600080fd5b5061007060025481565b6040519081526020015b60405180910390f35b34801561008f57600080fd5b5061007061009e366004610260565b60016020526000908152604090205481565b3480156100bc57600080fd5b506100c561012f565b005b3480156100d357600080fd5b506100f76100e2366004610260565b60006020819052908152604090205460ff1681565b604051901515815260200161007a565b6100c56101dd565b34801561011b57600080fd5b506100c561012a366004610290565b600255565b3360009081526020819052604090205460ff166101935760405162461bcd60e51b815260206004820152601860248201527f4e6f74206120726567697374657265642062756e646c6572000000000000000060448201526064015b60405180910390fd5b33600081815260016020908152604091829020429081905591519182527f524ff62d10e7448ae7f4b3312273a3f8400a0662bc7991a69119576c86cecabe910160405180910390a2565b600254341461021e5760405162461bcd60e51b815260206004820152600d60248201526c496e636f72726563742066656560981b604482015260640161018a565b33600081815260208190526040808220805460ff19166001179055517f2f8f01b91096d69e5a523003459876ae74534592e7ffe3ab00a1a21e9a8f5d9c9190a2565b60006020828403121561027257600080fd5b81356001600160a01b038116811461028957600080fd5b9392505050565b6000602082840312156102a257600080fd5b503591905056fea26469706673582212206f597bfb89231640d309447cf9ba42fbaef92f5f79a52560f703b5e703717a4764736f6c63430008130033","opcodes":"PUSH1 0x80 PUSH1 0x40 MSTORE CALLVALUE DUP1 ISZERO PUSH2 0x10 JUMPI PUSH1 0x0 DUP1 REVERT JUMPDEST POP PUSH2 0x2DF DUP1 PUSH2 0x20 PUSH1 0x0 CODECOPY PUSH1 0x0 RETURN INVALID PUSH1 0x80 PUSH1 0x40 MSTORE PUSH1 0x4 CALLDATASIZE LT PUSH2 0x55 JUMPI PUSH1 0x0 CALLDATALOAD PUSH1 0xE0 SHR DUP1 PUSH4 0x14C44E09 EQ PUSH2 0x5A JUMPI DUP1 PUSH4 0x2220967E EQ PUSH2 0x83 JUMPI DUP1 PUSH4 0x3DEFB962 EQ PUSH2 0xB0 JUMPI DUP1 PUSH4 0x551530D6 EQ PUSH2 0xC7 JUMPI DUP1 PUSH4 0x827A0EA6 EQ PUSH2 0x107 JUMPI DUP1 PUSH4 0xC320C727 EQ PUSH2 0x10F JUMPI JUMPDEST PUSH1 0x0 DUP1 REVERT JUMPDEST CALLVALUE DUP1 ISZERO PUSH2 0x66 JUMPI PUSH1 0x0 DUP1 REVERT JUMPDEST POP PUSH2 0x70 PUSH1 0x2 SLOAD DUP2 JUMP JUMPDEST PUSH1 0x40 MLOAD SWAP1 DUP2 MSTORE PUSH1 0x20 ADD JUMPDEST PUSH1 0x40 MLOAD DUP1 SWAP2 SUB SWAP1 RETURN JUMPDEST CALLVALUE DUP1 ISZERO PUSH2 0x8F JUMPI PUSH1 0x0 DUP1 REVERT JUMPDEST POP PUSH2 0x70 PUSH2 0x9E CALLDATASIZE PUSH1 0x4 PUSH2 0x260 JUMP JUMPDEST PUSH1 0x1 PUSH1 0x20 MSTORE PUSH1 0x0 SWAP1 DUP2 MSTORE PUSH1 0x40 SWAP1 KECCAK256 SLOAD DUP2 JUMP JUMPDEST CALLVALUE DUP1 ISZERO PUSH2 0xBC JUMPI PUSH1 0x0 DUP1 REVERT JUMPDEST POP PUSH2 0xC5 PUSH2 0x12F JUMP JUMPDEST STOP JUMPDEST CALLVALUE DUP1 ISZERO PUSH2 0xD3 JUMPI PUSH1 0x0 DUP1 REVERT JUMPDEST POP PUSH2 0xF7 PUSH2 0xE2 CALLDATASIZE PUSH1 0x4 PUSH2 0x260 JUMP JUMPDEST PUSH1 0x0 PUSH1 0x20 DUP2 SWAP1 MSTORE SWAP1 DUP2 MSTORE PUSH1 0x40 SWAP1 KECCAK256 SLOAD PUSH1 0xFF AND DUP2 JUMP JUMPDEST PUSH1 0x40 MLOAD SWAP1 ISZERO ISZERO DUP2 MSTORE PUSH1 0x20 ADD PUSH2 0x7A JUMP JUMPDEST PUSH2 0xC5 PUSH2 0x1DD JUMP JUMPDEST CALLVALUE DUP1 ISZERO PUSH2 0x11B JUMPI PUSH1 0x0 DUP1 REVERT JUMPDEST POP PUSH2 0xC5 PUSH2 0x12A CALLDATASIZE PUSH1 0x4 PUSH2 0x290 JUMP JUMPDEST PUSH1 0x2 SSTORE JUMP JUMPDEST CALLER PUSH1 0x0 SWAP1 DUP2 MSTORE PUSH1 0x20 DUP2 SWAP1 MSTORE PUSH1 0x40 SWAP1 KECCAK256 SLOAD PUSH1 0xFF AND PUSH2 0x193 JUMPI PUSH1 0x40 MLOAD PUSH3 0x461BCD PUSH1 0xE5 SHL DUP2 MSTORE PUSH1 0x20 PUSH1 0x4 DUP3 ADD MSTORE PUSH1 0x18 PUSH1 0x24 DUP3 ADD MSTORE PUSH32 0x4E6F74206120726567697374657265642062756E646C65720000000000000000 PUSH1 0x44 DUP3 ADD MSTORE PUSH1 0x64 ADD JUMPDEST PUSH1 0x40 MLOAD DUP1 SWAP2 SUB SWAP1 REVERT JUMPDEST CALLER PUSH1 0x0 DUP2 DUP2 MSTORE PUSH1 0x1 PUSH1 0x20 SWAP1 DUP2 MSTORE PUSH1 0x40 SWAP2 DUP3 SWAP1 KECCAK256 TIMESTAMP SWAP1 DUP2 SWAP1 SSTORE SWAP2 MLOAD SWAP2 DUP3 MSTORE PUSH32 0x524FF62D10E7448AE7F4B3312273A3F8400A0662BC7991A69119576C86CECABE SWAP2 ADD PUSH1 0x40 MLOAD DUP1 SWAP2 SUB SWAP1 LOG2 JUMP JUMPDEST PUSH1 0x2 SLOAD CALLVALUE EQ PUSH2 0x21E JUMPI PUSH1 0x40 MLOAD PUSH3 0x461BCD PUSH1 0xE5 SHL DUP2 MSTORE PUSH1 0x20 PUSH1 0x4 DUP3 ADD MSTORE PUSH1 0xD PUSH1 0x24 DUP3 ADD MSTORE PUSH13 0x496E636F727265637420666565 PUSH1 0x98 SHL PUSH1 0x44 DUP3 ADD MSTORE PUSH1 0x64 ADD PUSH2 0x18A JUMP JUMPDEST CALLER PUSH1 0x0 DUP2 DUP2 MSTORE PUSH1 0x20 DUP2 SWAP1 MSTORE PUSH1 0x40 DUP1 DUP3 KECCAK256 DUP1 SLOAD PUSH1 0xFF NOT AND PUSH1 0x1 OR SWAP1 SSTORE MLOAD PUSH32 0x2F8F01B91096D69E5A523003459876AE74534592E7FFE3AB00A1A21E9A8F5D9C SWAP2 SWAP1 LOG2 JUMP JUMPDEST PUSH1 0x0 PUSH1 0x20 DUP3 DUP5 SUB SLT ISZERO PUSH2 0x272 JUMPI PUSH1 0x0 DUP1 REVERT JUMPDEST DUP2 CALLDATALOAD PUSH1 0x1 PUSH1 0x1 PUSH1 0xA0 SHL SUB DUP2 AND DUP2 EQ PUSH2 0x289 JUMPI PUSH1 0x0 DUP1 REVERT JUMPDEST SWAP4 SWAP3 POP POP POP JUMP JUMPDEST PUSH1 0x0 PUSH1 0x20 DUP3 DUP5 SUB SLT ISZERO PUSH2 0x2A2 JUMPI PUSH1 0x0 DUP1 REVERT JUMPDEST POP CALLDATALOAD SWAP2 SWAP1 POP JUMP INVALID LOG2 PUSH5 0x6970667358 0x22 SLT KECCAK256 PUSH16 0x597BFB89231640D309447CF9BA42FBAE 0xF9 0x2F 0x5F PUSH26 0xA52560F703B5E703717A4764736F6C6343000813003300000000 "},"gasEstimates":{"creation":{"codeDepositCost":"147000","executionCost":"190","totalCost":"147190"},"external":{"heartbeat()":"25983","isBundler(address)":"2543","lastHeartbeat(address)":"2473","registerAsBundler()":"27743","registrationFee()":"2262","setRegistrationFee(uint256)":"22400"}},"methodIdentifiers":{"heartbeat()":"3defb962","isBundler(address)":"551530d6","lastHeartbeat(address)":"2220967e","registerAsBundler()":"827a0ea6","registrationFee()":"14c44e09","setRegistrationFee(uint256)":"c320c727"}},"storageLayout":{"storage":[{"astId":3725,"contract":"contracts/BundlerManager.sol:BundlerManager","label":"isBundler","offset":0,"slot":"0","type":"t_mapping(t_address,t_bool)"},{"astId":3729,"contract":"contracts/BundlerManager.sol:BundlerManager","label":"lastHeartbeat","offset":0,"slot":"1","type":"t_mapping(t_address,t_uint256)"},{"astId":3731,"contract":"contracts/BundlerManager.sol:BundlerManager","label":"registrationFee","offset":0,"slot":"2","type":"t_uint256"}],"types":{"t_address":{"encoding":"inplace","label":"address","numberOfBytes":"20"},"t_bool":{"encoding":"inplace","label":"bool","numberOfBytes":"1"},"t_mapping(t_address,t_bool)":{"encoding":"mapping","key":"t_address","label":"mapping(address => bool)","numberOfBytes":"32","value":"t_bool"},"t_mapping(t_address,t_uint256)":{"encoding":"mapping","key":"t_address","label":"mapping(address => uint256)","numberOfBytes":"32","value":"t_uint256"},"t_uint256":{"encoding":"inplace","label":"uint256","numberOfBytes":"32"}}},"userdoc":{"kind":"user","methods":{},"version":1}}}}