{"contracts/SAFTDestinationMinter.sol":{"SAFTDestinationMinter":{"abi":[{"inputs":[{"internalType":"address","name":"router","type":"address"},{"internalType":"address","name":"saftAddress","type":"address"}],"stateMutability":"nonpayable","type":"constructor"},{"inputs":[{"internalType":"address","name":"router","type":"address"}],"name":"InvalidRouter","type":"error"},{"anonymous":false,"inputs":[],"name":"MintCallSuccessfull","type":"event"},{"inputs":[{"components":[{"internalType":"bytes32","name":"messageId","type":"bytes32"},{"internalType":"uint64","name":"sourceChainSelector","type":"uint64"},{"internalType":"bytes","name":"sender","type":"bytes"},{"internalType":"bytes","name":"data","type":"bytes"},{"components":[{"internalType":"address","name":"token","type":"address"},{"internalType":"uint256","name":"amount","type":"uint256"}],"internalType":"struct Client.EVMTokenAmount[]","name":"destTokenAmounts","type":"tuple[]"}],"internalType":"struct Client.Any2EVMMessage","name":"message","type":"tuple"}],"name":"ccipReceive","outputs":[],"stateMutability":"nonpayable","type":"function"},{"inputs":[],"name":"getRouter","outputs":[{"internalType":"address","name":"","type":"address"}],"stateMutability":"view","type":"function"},{"inputs":[{"internalType":"bytes4","name":"interfaceId","type":"bytes4"}],"name":"supportsInterface","outputs":[{"internalType":"bool","name":"","type":"bool"}],"stateMutability":"pure","type":"function"}],"devdoc":{"kind":"dev","methods":{"ccipReceive((bytes32,uint64,bytes,bytes,(address,uint256)[]))":{"details":"Note ensure you check the msg.sender is the OffRampRouter","params":{"message":"CCIP Message"}},"getRouter()":{"returns":{"_0":"i_router address"}},"supportsInterface(bytes4)":{"details":"Should indicate whether the contract implements IAny2EVMMessageReceiver e.g. return interfaceId == type(IAny2EVMMessageReceiver).interfaceId || interfaceId == type(IERC165).interfaceId This allows CCIP to check if ccipReceive is available before calling it. If this returns false or reverts, only tokens are transferred to the receiver. If this returns true, tokens are transferred and ccipReceive is called atomically. Additionally, if the receiver address does not have code associated with it at the time of execution (EXTCODESIZE returns 0), only tokens will be transferred.","params":{"interfaceId":"The interfaceId to check"},"returns":{"_0":"true if the interfaceId is supported"}}},"version":1},"evm":{"bytecode":{"linkReferences":{},"object":"60a060405234801561001057600080fd5b5060405161064438038061064483398101604081905261002f916100a6565b816001600160a01b03811661005e576040516335fdcccd60e21b81526000600482015260240160405180910390fd5b6001600160a01b03908116608052600080546001600160a01b03191692909116919091179055506100d9565b80516001600160a01b03811681146100a157600080fd5b919050565b600080604083850312156100b957600080fd5b6100c28361008a565b91506100d06020840161008a565b90509250929050565b60805161054b6100f9600039600081816090015260fc015261054b6000f3fe608060405234801561001057600080fd5b50600436106100415760003560e01c806301ffc9a71461004657806385572ffb1461006e578063b0f479a114610083575b600080fd5b6100596100543660046101f3565b6100ba565b60405190151581526020015b60405180910390f35b61008161007c366004610224565b6100f1565b005b6040516001600160a01b037f0000000000000000000000000000000000000000000000000000000000000000168152602001610065565b60006001600160e01b031982166385572ffb60e01b14806100eb57506001600160e01b031982166301ffc9a760e01b145b92915050565b336001600160a01b037f00000000000000000000000000000000000000000000000000000000000000001614610140576040516335fdcccd60e21b815233600482015260240160405180910390fd5b61015161014c82610439565b610154565b50565b6000805460608301516040516001600160a01b039092169161017691906104e6565b6000604051808303816000865af19150503d80600081146101b3576040519150601f19603f3d011682016040523d82523d6000602084013e6101b8565b606091505b50509050806101c657600080fd5b6040517fa8bcb6a278444293ea5c0bce4a4734a060a5f557bb999d8a57c4f69e96f1fe8890600090a15050565b60006020828403121561020557600080fd5b81356001600160e01b03198116811461021d57600080fd5b9392505050565b60006020828403121561023657600080fd5b813567ffffffffffffffff81111561024d57600080fd5b820160a0818503121561021d57600080fd5b634e487b7160e01b600052604160045260246000fd5b6040805190810167ffffffffffffffff811182821017156102985761029861025f565b60405290565b60405160a0810167ffffffffffffffff811182821017156102985761029861025f565b604051601f8201601f1916810167ffffffffffffffff811182821017156102ea576102ea61025f565b604052919050565b803567ffffffffffffffff8116811461030a57600080fd5b919050565b600082601f83011261032057600080fd5b813567ffffffffffffffff81111561033a5761033a61025f565b61034d601f8201601f19166020016102c1565b81815284602083860101111561036257600080fd5b816020850160208301376000918101602001919091529392505050565b600082601f83011261039057600080fd5b8135602067ffffffffffffffff8211156103ac576103ac61025f565b6103ba818360051b016102c1565b82815260069290921b840181019181810190868411156103d957600080fd5b8286015b8481101561042e57604081890312156103f65760008081fd5b6103fe610275565b81356001600160a01b03811681146104165760008081fd5b815281850135858201528352918301916040016103dd565b509695505050505050565b600060a0823603121561044b57600080fd5b61045361029e565b82358152610463602084016102f2565b6020820152604083013567ffffffffffffffff8082111561048357600080fd5b61048f3683870161030f565b604084015260608501359150808211156104a857600080fd5b6104b43683870161030f565b606084015260808501359150808211156104cd57600080fd5b506104da3682860161037f565b60808301525092915050565b6000825160005b8181101561050757602081860181015185830152016104ed565b50600092019182525091905056fea2646970667358221220fdbe1d183390493380e55ce16c59ef7ed912f524ded27b95092b47575789853364736f6c63430008130033","opcodes":"PUSH1 0xA0 PUSH1 0x40 MSTORE CALLVALUE DUP1 ISZERO PUSH2 0x10 JUMPI PUSH1 0x0 DUP1 REVERT JUMPDEST POP PUSH1 0x40 MLOAD PUSH2 0x644 CODESIZE SUB DUP1 PUSH2 0x644 DUP4 CODECOPY DUP2 ADD PUSH1 0x40 DUP2 SWAP1 MSTORE PUSH2 0x2F SWAP2 PUSH2 0xA6 JUMP JUMPDEST DUP2 PUSH1 0x1 PUSH1 0x1 PUSH1 0xA0 SHL SUB DUP2 AND PUSH2 0x5E JUMPI PUSH1 0x40 MLOAD PUSH4 0x35FDCCCD PUSH1 0xE2 SHL DUP2 MSTORE PUSH1 0x0 PUSH1 0x4 DUP3 ADD MSTORE PUSH1 0x24 ADD PUSH1 0x40 MLOAD DUP1 SWAP2 SUB SWAP1 REVERT JUMPDEST PUSH1 0x1 PUSH1 0x1 PUSH1 0xA0 SHL SUB SWAP1 DUP2 AND PUSH1 0x80 MSTORE PUSH1 0x0 DUP1 SLOAD PUSH1 0x1 PUSH1 0x1 PUSH1 0xA0 SHL SUB NOT AND SWAP3 SWAP1 SWAP2 AND SWAP2 SWAP1 SWAP2 OR SWAP1 SSTORE POP PUSH2 0xD9 JUMP JUMPDEST DUP1 MLOAD PUSH1 0x1 PUSH1 0x1 PUSH1 0xA0 SHL SUB DUP2 AND DUP2 EQ PUSH2 0xA1 JUMPI PUSH1 0x0 DUP1 REVERT JUMPDEST SWAP2 SWAP1 POP JUMP JUMPDEST PUSH1 0x0 DUP1 PUSH1 0x40 DUP4 DUP6 SUB SLT ISZERO PUSH2 0xB9 JUMPI PUSH1 0x0 DUP1 REVERT JUMPDEST PUSH2 0xC2 DUP4 PUSH2 0x8A JUMP JUMPDEST SWAP2 POP PUSH2 0xD0 PUSH1 0x20 DUP5 ADD PUSH2 0x8A JUMP JUMPDEST SWAP1 POP SWAP3 POP SWAP3 SWAP1 POP JUMP JUMPDEST PUSH1 0x80 MLOAD PUSH2 0x54B PUSH2 0xF9 PUSH1 0x0 CODECOPY PUSH1 0x0 DUP2 DUP2 PUSH1 0x90 ADD MSTORE PUSH1 0xFC ADD MSTORE PUSH2 0x54B PUSH1 0x0 RETURN INVALID PUSH1 0x80 PUSH1 0x40 MSTORE CALLVALUE DUP1 ISZERO PUSH2 0x10 JUMPI PUSH1 0x0 DUP1 REVERT JUMPDEST POP PUSH1 0x4 CALLDATASIZE LT PUSH2 0x41 JUMPI PUSH1 0x0 CALLDATALOAD PUSH1 0xE0 SHR DUP1 PUSH4 0x1FFC9A7 EQ PUSH2 0x46 JUMPI DUP1 PUSH4 0x85572FFB EQ PUSH2 0x6E JUMPI DUP1 PUSH4 0xB0F479A1 EQ PUSH2 0x83 JUMPI JUMPDEST PUSH1 0x0 DUP1 REVERT JUMPDEST PUSH2 0x59 PUSH2 0x54 CALLDATASIZE PUSH1 0x4 PUSH2 0x1F3 JUMP JUMPDEST PUSH2 0xBA JUMP JUMPDEST PUSH1 0x40 MLOAD SWAP1 ISZERO ISZERO DUP2 MSTORE PUSH1 0x20 ADD JUMPDEST PUSH1 0x40 MLOAD DUP1 SWAP2 SUB SWAP1 RETURN JUMPDEST PUSH2 0x81 PUSH2 0x7C CALLDATASIZE PUSH1 0x4 PUSH2 0x224 JUMP JUMPDEST PUSH2 0xF1 JUMP JUMPDEST STOP JUMPDEST PUSH1 0x40 MLOAD PUSH1 0x1 PUSH1 0x1 PUSH1 0xA0 SHL SUB PUSH32 0x0 AND DUP2 MSTORE PUSH1 0x20 ADD PUSH2 0x65 JUMP JUMPDEST PUSH1 0x0 PUSH1 0x1 PUSH1 0x1 PUSH1 0xE0 SHL SUB NOT DUP3 AND PUSH4 0x85572FFB PUSH1 0xE0 SHL EQ DUP1 PUSH2 0xEB JUMPI POP PUSH1 0x1 PUSH1 0x1 PUSH1 0xE0 SHL SUB NOT DUP3 AND PUSH4 0x1FFC9A7 PUSH1 0xE0 SHL EQ JUMPDEST SWAP3 SWAP2 POP POP JUMP JUMPDEST CALLER PUSH1 0x1 PUSH1 0x1 PUSH1 0xA0 SHL SUB PUSH32 0x0 AND EQ PUSH2 0x140 JUMPI PUSH1 0x40 MLOAD PUSH4 0x35FDCCCD PUSH1 0xE2 SHL DUP2 MSTORE CALLER PUSH1 0x4 DUP3 ADD MSTORE PUSH1 0x24 ADD PUSH1 0x40 MLOAD DUP1 SWAP2 SUB SWAP1 REVERT JUMPDEST PUSH2 0x151 PUSH2 0x14C DUP3 PUSH2 0x439 JUMP JUMPDEST PUSH2 0x154 JUMP JUMPDEST POP JUMP JUMPDEST PUSH1 0x0 DUP1 SLOAD PUSH1 0x60 DUP4 ADD MLOAD PUSH1 0x40 MLOAD PUSH1 0x1 PUSH1 0x1 PUSH1 0xA0 SHL SUB SWAP1 SWAP3 AND SWAP2 PUSH2 0x176 SWAP2 SWAP1 PUSH2 0x4E6 JUMP JUMPDEST PUSH1 0x0 PUSH1 0x40 MLOAD DUP1 DUP4 SUB DUP2 PUSH1 0x0 DUP7 GAS CALL SWAP2 POP POP RETURNDATASIZE DUP1 PUSH1 0x0 DUP2 EQ PUSH2 0x1B3 JUMPI PUSH1 0x40 MLOAD SWAP2 POP PUSH1 0x1F NOT PUSH1 0x3F RETURNDATASIZE ADD AND DUP3 ADD PUSH1 0x40 MSTORE RETURNDATASIZE DUP3 MSTORE RETURNDATASIZE PUSH1 0x0 PUSH1 0x20 DUP5 ADD RETURNDATACOPY PUSH2 0x1B8 JUMP JUMPDEST PUSH1 0x60 SWAP2 POP JUMPDEST POP POP SWAP1 POP DUP1 PUSH2 0x1C6 JUMPI PUSH1 0x0 DUP1 REVERT JUMPDEST PUSH1 0x40 MLOAD PUSH32 0xA8BCB6A278444293EA5C0BCE4A4734A060A5F557BB999D8A57C4F69E96F1FE88 SWAP1 PUSH1 0x0 SWAP1 LOG1 POP POP JUMP JUMPDEST PUSH1 0x0 PUSH1 0x20 DUP3 DUP5 SUB SLT ISZERO PUSH2 0x205 JUMPI PUSH1 0x0 DUP1 REVERT JUMPDEST DUP2 CALLDATALOAD PUSH1 0x1 PUSH1 0x1 PUSH1 0xE0 SHL SUB NOT DUP2 AND DUP2 EQ PUSH2 0x21D JUMPI PUSH1 0x0 DUP1 REVERT JUMPDEST SWAP4 SWAP3 POP POP POP JUMP JUMPDEST PUSH1 0x0 PUSH1 0x20 DUP3 DUP5 SUB SLT ISZERO PUSH2 0x236 JUMPI PUSH1 0x0 DUP1 REVERT JUMPDEST DUP2 CALLDATALOAD PUSH8 0xFFFFFFFFFFFFFFFF DUP2 GT ISZERO PUSH2 0x24D JUMPI PUSH1 0x0 DUP1 REVERT JUMPDEST DUP3 ADD PUSH1 0xA0 DUP2 DUP6 SUB SLT ISZERO PUSH2 0x21D JUMPI PUSH1 0x0 DUP1 REVERT JUMPDEST PUSH4 0x4E487B71 PUSH1 0xE0 SHL PUSH1 0x0 MSTORE PUSH1 0x41 PUSH1 0x4 MSTORE PUSH1 0x24 PUSH1 0x0 REVERT JUMPDEST PUSH1 0x40 DUP1 MLOAD SWAP1 DUP2 ADD PUSH8 0xFFFFFFFFFFFFFFFF DUP2 GT DUP3 DUP3 LT OR ISZERO PUSH2 0x298 JUMPI PUSH2 0x298 PUSH2 0x25F JUMP JUMPDEST PUSH1 0x40 MSTORE SWAP1 JUMP JUMPDEST PUSH1 0x40 MLOAD PUSH1 0xA0 DUP2 ADD PUSH8 0xFFFFFFFFFFFFFFFF DUP2 GT DUP3 DUP3 LT OR ISZERO PUSH2 0x298 JUMPI PUSH2 0x298 PUSH2 0x25F JUMP JUMPDEST PUSH1 0x40 MLOAD PUSH1 0x1F DUP3 ADD PUSH1 0x1F NOT AND DUP2 ADD PUSH8 0xFFFFFFFFFFFFFFFF DUP2 GT DUP3 DUP3 LT OR ISZERO PUSH2 0x2EA JUMPI PUSH2 0x2EA PUSH2 0x25F JUMP JUMPDEST PUSH1 0x40 MSTORE SWAP2 SWAP1 POP JUMP JUMPDEST DUP1 CALLDATALOAD PUSH8 0xFFFFFFFFFFFFFFFF DUP2 AND DUP2 EQ PUSH2 0x30A JUMPI PUSH1 0x0 DUP1 REVERT JUMPDEST SWAP2 SWAP1 POP JUMP JUMPDEST PUSH1 0x0 DUP3 PUSH1 0x1F DUP4 ADD SLT PUSH2 0x320 JUMPI PUSH1 0x0 DUP1 REVERT JUMPDEST DUP2 CALLDATALOAD PUSH8 0xFFFFFFFFFFFFFFFF DUP2 GT ISZERO PUSH2 0x33A JUMPI PUSH2 0x33A PUSH2 0x25F JUMP JUMPDEST PUSH2 0x34D PUSH1 0x1F DUP3 ADD PUSH1 0x1F NOT AND PUSH1 0x20 ADD PUSH2 0x2C1 JUMP JUMPDEST DUP2 DUP2 MSTORE DUP5 PUSH1 0x20 DUP4 DUP7 ADD ADD GT ISZERO PUSH2 0x362 JUMPI PUSH1 0x0 DUP1 REVERT JUMPDEST DUP2 PUSH1 0x20 DUP6 ADD PUSH1 0x20 DUP4 ADD CALLDATACOPY PUSH1 0x0 SWAP2 DUP2 ADD PUSH1 0x20 ADD SWAP2 SWAP1 SWAP2 MSTORE SWAP4 SWAP3 POP POP POP JUMP JUMPDEST PUSH1 0x0 DUP3 PUSH1 0x1F DUP4 ADD SLT PUSH2 0x390 JUMPI PUSH1 0x0 DUP1 REVERT JUMPDEST DUP2 CALLDATALOAD PUSH1 0x20 PUSH8 0xFFFFFFFFFFFFFFFF DUP3 GT ISZERO PUSH2 0x3AC JUMPI PUSH2 0x3AC PUSH2 0x25F JUMP JUMPDEST PUSH2 0x3BA DUP2 DUP4 PUSH1 0x5 SHL ADD PUSH2 0x2C1 JUMP JUMPDEST DUP3 DUP2 MSTORE PUSH1 0x6 SWAP3 SWAP1 SWAP3 SHL DUP5 ADD DUP2 ADD SWAP2 DUP2 DUP2 ADD SWAP1 DUP7 DUP5 GT ISZERO PUSH2 0x3D9 JUMPI PUSH1 0x0 DUP1 REVERT JUMPDEST DUP3 DUP7 ADD JUMPDEST DUP5 DUP2 LT ISZERO PUSH2 0x42E JUMPI PUSH1 0x40 DUP2 DUP10 SUB SLT ISZERO PUSH2 0x3F6 JUMPI PUSH1 0x0 DUP1 DUP2 REVERT JUMPDEST PUSH2 0x3FE PUSH2 0x275 JUMP JUMPDEST DUP2 CALLDATALOAD PUSH1 0x1 PUSH1 0x1 PUSH1 0xA0 SHL SUB DUP2 AND DUP2 EQ PUSH2 0x416 JUMPI PUSH1 0x0 DUP1 DUP2 REVERT JUMPDEST DUP2 MSTORE DUP2 DUP6 ADD CALLDATALOAD DUP6 DUP3 ADD MSTORE DUP4 MSTORE SWAP2 DUP4 ADD SWAP2 PUSH1 0x40 ADD PUSH2 0x3DD JUMP JUMPDEST POP SWAP7 SWAP6 POP POP POP POP POP POP JUMP JUMPDEST PUSH1 0x0 PUSH1 0xA0 DUP3 CALLDATASIZE SUB SLT ISZERO PUSH2 0x44B JUMPI PUSH1 0x0 DUP1 REVERT JUMPDEST PUSH2 0x453 PUSH2 0x29E JUMP JUMPDEST DUP3 CALLDATALOAD DUP2 MSTORE PUSH2 0x463 PUSH1 0x20 DUP5 ADD PUSH2 0x2F2 JUMP JUMPDEST PUSH1 0x20 DUP3 ADD MSTORE PUSH1 0x40 DUP4 ADD CALLDATALOAD PUSH8 0xFFFFFFFFFFFFFFFF DUP1 DUP3 GT ISZERO PUSH2 0x483 JUMPI PUSH1 0x0 DUP1 REVERT JUMPDEST PUSH2 0x48F CALLDATASIZE DUP4 DUP8 ADD PUSH2 0x30F JUMP JUMPDEST PUSH1 0x40 DUP5 ADD MSTORE PUSH1 0x60 DUP6 ADD CALLDATALOAD SWAP2 POP DUP1 DUP3 GT ISZERO PUSH2 0x4A8 JUMPI PUSH1 0x0 DUP1 REVERT JUMPDEST PUSH2 0x4B4 CALLDATASIZE DUP4 DUP8 ADD PUSH2 0x30F JUMP JUMPDEST PUSH1 0x60 DUP5 ADD MSTORE PUSH1 0x80 DUP6 ADD CALLDATALOAD SWAP2 POP DUP1 DUP3 GT ISZERO PUSH2 0x4CD JUMPI PUSH1 0x0 DUP1 REVERT JUMPDEST POP PUSH2 0x4DA CALLDATASIZE DUP3 DUP7 ADD PUSH2 0x37F JUMP JUMPDEST PUSH1 0x80 DUP4 ADD MSTORE POP SWAP3 SWAP2 POP POP JUMP JUMPDEST PUSH1 0x0 DUP3 MLOAD PUSH1 0x0 JUMPDEST DUP2 DUP2 LT ISZERO PUSH2 0x507 JUMPI PUSH1 0x20 DUP2 DUP7 ADD DUP2 ADD MLOAD DUP6 DUP4 ADD MSTORE ADD PUSH2 0x4ED JUMP JUMPDEST POP PUSH1 0x0 SWAP3 ADD SWAP2 DUP3 MSTORE POP SWAP2 SWAP1 POP JUMP INVALID LOG2 PUSH5 0x6970667358 0x22 SLT KECCAK256 REVERT 0xBE SAR XOR CALLER SWAP1 0x49 CALLER DUP1 0xE5 0x5C 0xE1 PUSH13 0x59EF7ED912F524DED27B95092B SELFBALANCE JUMPI JUMPI DUP10 DUP6 CALLER PUSH5 0x736F6C6343 STOP ADDMOD SGT STOP CALLER "},"gasEstimates":{"creation":{"codeDepositCost":"271000","executionCost":"infinite","totalCost":"infinite"},"external":{"ccipReceive((bytes32,uint64,bytes,bytes,(address,uint256)[]))":"infinite","getRouter()":"infinite","supportsInterface(bytes4)":"404"},"internal":{"_ccipReceive(struct Client.Any2EVMMessage memory)":"infinite"}},"methodIdentifiers":{"ccipReceive((bytes32,uint64,bytes,bytes,(address,uint256)[]))":"85572ffb","getRouter()":"b0f479a1","supportsInterface(bytes4)":"01ffc9a7"}},"storageLayout":{"storage":[{"astId":2763,"contract":"contracts/SAFTDestinationMinter.sol:SAFTDestinationMinter","label":"saft","offset":0,"slot":"0","type":"t_contract(SAFTToken)3104"}],"types":{"t_contract(SAFTToken)3104":{"encoding":"inplace","label":"contract SAFTToken","numberOfBytes":"20"}}},"userdoc":{"kind":"user","methods":{"ccipReceive((bytes32,uint64,bytes,bytes,(address,uint256)[]))":{"notice":"Called by the Router to deliver a message. If this reverts, any token transfers also revert. The message will move to a FAILED state and become available for manual execution."},"getRouter()":{"notice":"Return the current router"},"supportsInterface(bytes4)":{"notice":"IERC165 supports an interfaceId"}},"version":1}}}}