{
  "_format": "hh-sol-artifact-1",
  "contractName": "SAFTToken",
  "sourceName": "contracts/SAFTToken.sol",
  "abi": [
    {
      "inputs": [
        {
          "internalType": "address",
          "name": "_owner",
          "type": "address"
        },
        {
          "internalType": "bytes32",
          "name": "_merkleRoot",
          "type": "bytes32"
        },
        {
          "internalType": "string",
          "name": "metadataUri",
          "type": "string"
        }
      ],
      "stateMutability": "nonpayable",
      "type": "constructor"
    },
    {
      "anonymous": false,
      "inputs": [
        {
          "indexed": true,
          "internalType": "address",
          "name": "account",
          "type": "address"
        },
        {
          "indexed": true,
          "internalType": "address",
          "name": "operator",
          "type": "address"
        },
        {
          "indexed": false,
          "internalType": "bool",
          "name": "approved",
          "type": "bool"
        }
      ],
      "name": "ApprovalForAll",
      "type": "event"
    },
    {
      "anonymous": false,
      "inputs": [
        {
          "indexed": true,
          "internalType": "address",
          "name": "previousOwner",
          "type": "address"
        },
        {
          "indexed": true,
          "internalType": "address",
          "name": "newOwner",
          "type": "address"
        }
      ],
      "name": "OwnershipTransferred",
      "type": "event"
    },
    {
      "anonymous": false,
      "inputs": [
        {
          "indexed": true,
          "internalType": "address",
          "name": "operator",
          "type": "address"
        },
        {
          "indexed": true,
          "internalType": "address",
          "name": "from",
          "type": "address"
        },
        {
          "indexed": true,
          "internalType": "address",
          "name": "to",
          "type": "address"
        },
        {
          "indexed": false,
          "internalType": "uint256[]",
          "name": "ids",
          "type": "uint256[]"
        },
        {
          "indexed": false,
          "internalType": "uint256[]",
          "name": "values",
          "type": "uint256[]"
        }
      ],
      "name": "TransferBatch",
      "type": "event"
    },
    {
      "anonymous": false,
      "inputs": [
        {
          "indexed": true,
          "internalType": "address",
          "name": "operator",
          "type": "address"
        },
        {
          "indexed": true,
          "internalType": "address",
          "name": "from",
          "type": "address"
        },
        {
          "indexed": true,
          "internalType": "address",
          "name": "to",
          "type": "address"
        },
        {
          "indexed": false,
          "internalType": "uint256",
          "name": "id",
          "type": "uint256"
        },
        {
          "indexed": false,
          "internalType": "uint256",
          "name": "value",
          "type": "uint256"
        }
      ],
      "name": "TransferSingle",
      "type": "event"
    },
    {
      "anonymous": false,
      "inputs": [
        {
          "indexed": false,
          "internalType": "string",
          "name": "value",
          "type": "string"
        },
        {
          "indexed": true,
          "internalType": "uint256",
          "name": "id",
          "type": "uint256"
        }
      ],
      "name": "URI",
      "type": "event"
    },
    {
      "inputs": [
        {
          "internalType": "address",
          "name": "account",
          "type": "address"
        },
        {
          "internalType": "uint256",
          "name": "id",
          "type": "uint256"
        }
      ],
      "name": "balanceOf",
      "outputs": [
        {
          "internalType": "uint256",
          "name": "",
          "type": "uint256"
        }
      ],
      "stateMutability": "view",
      "type": "function"
    },
    {
      "inputs": [
        {
          "internalType": "address[]",
          "name": "accounts",
          "type": "address[]"
        },
        {
          "internalType": "uint256[]",
          "name": "ids",
          "type": "uint256[]"
        }
      ],
      "name": "balanceOfBatch",
      "outputs": [
        {
          "internalType": "uint256[]",
          "name": "",
          "type": "uint256[]"
        }
      ],
      "stateMutability": "view",
      "type": "function"
    },
    {
      "inputs": [
        {
          "internalType": "address",
          "name": "account",
          "type": "address"
        },
        {
          "internalType": "address",
          "name": "operator",
          "type": "address"
        }
      ],
      "name": "isApprovedForAll",
      "outputs": [
        {
          "internalType": "bool",
          "name": "",
          "type": "bool"
        }
      ],
      "stateMutability": "view",
      "type": "function"
    },
    {
      "inputs": [
        {
          "internalType": "address",
          "name": "account",
          "type": "address"
        },
        {
          "internalType": "bytes32[]",
          "name": "merkleProof",
          "type": "bytes32[]"
        }
      ],
      "name": "isWhitelisted",
      "outputs": [
        {
          "internalType": "bool",
          "name": "",
          "type": "bool"
        }
      ],
      "stateMutability": "view",
      "type": "function"
    },
    {
      "inputs": [
        {
          "internalType": "uint256",
          "name": "",
          "type": "uint256"
        }
      ],
      "name": "lockingFlags",
      "outputs": [
        {
          "internalType": "bool",
          "name": "",
          "type": "bool"
        }
      ],
      "stateMutability": "view",
      "type": "function"
    },
    {
      "inputs": [],
      "name": "merkleRoot",
      "outputs": [
        {
          "internalType": "bytes32",
          "name": "",
          "type": "bytes32"
        }
      ],
      "stateMutability": "view",
      "type": "function"
    },
    {
      "inputs": [
        {
          "internalType": "address",
          "name": "account",
          "type": "address"
        },
        {
          "internalType": "uint256",
          "name": "amount",
          "type": "uint256"
        },
        {
          "internalType": "bytes",
          "name": "data",
          "type": "bytes"
        },
        {
          "internalType": "bytes32[]",
          "name": "merkleProof",
          "type": "bytes32[]"
        }
      ],
      "name": "mint",
      "outputs": [],
      "stateMutability": "nonpayable",
      "type": "function"
    },
    {
      "inputs": [],
      "name": "owner",
      "outputs": [
        {
          "internalType": "address",
          "name": "",
          "type": "address"
        }
      ],
      "stateMutability": "view",
      "type": "function"
    },
    {
      "inputs": [],
      "name": "renounceOwnership",
      "outputs": [],
      "stateMutability": "nonpayable",
      "type": "function"
    },
    {
      "inputs": [
        {
          "internalType": "address",
          "name": "from",
          "type": "address"
        },
        {
          "internalType": "address",
          "name": "to",
          "type": "address"
        },
        {
          "internalType": "uint256[]",
          "name": "ids",
          "type": "uint256[]"
        },
        {
          "internalType": "uint256[]",
          "name": "amounts",
          "type": "uint256[]"
        },
        {
          "internalType": "bytes",
          "name": "data",
          "type": "bytes"
        }
      ],
      "name": "safeBatchTransferFrom",
      "outputs": [],
      "stateMutability": "nonpayable",
      "type": "function"
    },
    {
      "inputs": [
        {
          "internalType": "address",
          "name": "from",
          "type": "address"
        },
        {
          "internalType": "address",
          "name": "to",
          "type": "address"
        },
        {
          "internalType": "uint256",
          "name": "id",
          "type": "uint256"
        },
        {
          "internalType": "uint256",
          "name": "amount",
          "type": "uint256"
        },
        {
          "internalType": "bytes",
          "name": "data",
          "type": "bytes"
        }
      ],
      "name": "safeTransferFrom",
      "outputs": [],
      "stateMutability": "nonpayable",
      "type": "function"
    },
    {
      "inputs": [
        {
          "internalType": "address",
          "name": "operator",
          "type": "address"
        },
        {
          "internalType": "bool",
          "name": "approved",
          "type": "bool"
        }
      ],
      "name": "setApprovalForAll",
      "outputs": [],
      "stateMutability": "nonpayable",
      "type": "function"
    },
    {
      "inputs": [
        {
          "internalType": "bytes32",
          "name": "_merkleRoot",
          "type": "bytes32"
        }
      ],
      "name": "setMerkleRoot",
      "outputs": [],
      "stateMutability": "nonpayable",
      "type": "function"
    },
    {
      "inputs": [
        {
          "internalType": "bytes4",
          "name": "interfaceId",
          "type": "bytes4"
        }
      ],
      "name": "supportsInterface",
      "outputs": [
        {
          "internalType": "bool",
          "name": "",
          "type": "bool"
        }
      ],
      "stateMutability": "view",
      "type": "function"
    },
    {
      "inputs": [
        {
          "internalType": "address",
          "name": "newOwner",
          "type": "address"
        }
      ],
      "name": "transferOwnership",
      "outputs": [],
      "stateMutability": "nonpayable",
      "type": "function"
    },
    {
      "inputs": [
        {
          "internalType": "uint256",
          "name": "",
          "type": "uint256"
        }
      ],
      "name": "uri",
      "outputs": [
        {
          "internalType": "string",
          "name": "",
          "type": "string"
        }
      ],
      "stateMutability": "view",
      "type": "function"
    }
  ],
  "bytecode": "0x60806040523480156200001157600080fd5b5060405162001e8738038062001e8783398101604081905262000034916200013a565b806200004081620000c0565b506200004c33620000d2565b60048290556001600160a01b038316620000ac5760405162461bcd60e51b815260206004820152601d60248201527f4f776e657220616464726573732063616e6e6f7420626520656d707479000000604482015260640160405180910390fd5b620000b783620000d2565b50505062000394565b6002620000ce8282620002c8565b5050565b600380546001600160a01b038381166001600160a01b0319831681179093556040519116919082907f8be0079c531659141344cd1fd0a4f28419497f9722a3daafe3b4186f6b6457e090600090a35050565b634e487b7160e01b600052604160045260246000fd5b6000806000606084860312156200015057600080fd5b83516001600160a01b03811681146200016857600080fd5b60208581015160408701519295509350906001600160401b03808211156200018f57600080fd5b818701915087601f830112620001a457600080fd5b815181811115620001b957620001b962000124565b604051601f8201601f19908116603f01168101908382118183101715620001e457620001e462000124565b816040528281528a86848701011115620001fd57600080fd5b600093505b8284101562000221578484018601518185018701529285019262000202565b60008684830101528096505050505050509250925092565b600181811c908216806200024e57607f821691505b6020821081036200026f57634e487b7160e01b600052602260045260246000fd5b50919050565b601f821115620002c357600081815260208120601f850160051c810160208610156200029e5750805b601f850160051c820191505b81811015620002bf57828155600101620002aa565b5050505b505050565b81516001600160401b03811115620002e457620002e462000124565b620002fc81620002f5845462000239565b8462000275565b602080601f8311600181146200033457600084156200031b5750858301515b600019600386901b1c1916600185901b178555620002bf565b600085815260208120601f198616915b82811015620003655788860151825594840194600190910190840162000344565b5085821015620003845787850151600019600388901b60f8161c191681555b5050505050600190811b01905550565b611ae380620003a46000396000f3fe608060405234801561001057600080fd5b50600436106100ff5760003560e01c8063715018a611610097578063a22cb46511610066578063a22cb4651461022a578063e985e9c51461023d578063f242432a14610279578063f2fde38b1461028c57600080fd5b8063715018a6146101e157806375809de3146101e95780637cb64759146101fc5780638da5cb5b1461020f57600080fd5b80632eb4a7ab116100d35780632eb4a7ab146101825780632ecc61601461018b5780634e1273f4146101ae5780635a23dd99146101ce57600080fd5b8062fdd58e1461010457806301ffc9a71461012a5780630e89341c1461014d5780632eb2c2d61461016d575b600080fd5b61011761011236600461117a565b61029f565b6040519081526020015b60405180910390f35b61013d6101383660046111ba565b610338565b6040519015158152602001610121565b61016061015b3660046111d7565b610388565b6040516101219190611236565b61018061017b366004611395565b61041c565b005b61011760045481565b61013d6101993660046111d7565b60056020526000908152604090205460ff1681565b6101c16101bc36600461143f565b610468565b6040516101219190611545565b61013d6101dc3660046115a4565b610592565b610180610618565b6101806101f73660046115f7565b61062c565b61018061020a3660046111d7565b61078b565b6003546040516001600160a01b039091168152602001610121565b61018061023836600461167c565b610798565b61013d61024b3660046116b8565b6001600160a01b03918216600090815260016020908152604080832093909416825291909152205460ff1690565b6101806102873660046116eb565b6107a7565b61018061029a366004611750565b6107ec565b60006001600160a01b03831661030f5760405162461bcd60e51b815260206004820152602a60248201527f455243313135353a2061646472657373207a65726f206973206e6f742061207660448201526930b634b21037bbb732b960b11b60648201526084015b60405180910390fd5b506000818152602081815260408083206001600160a01b03861684529091529020545b92915050565b60006001600160e01b03198216636cdb3d1360e11b148061036957506001600160e01b031982166303a24d0760e21b145b8061033257506301ffc9a760e01b6001600160e01b0319831614610332565b6060600280546103979061176b565b80601f01602080910402602001604051908101604052809291908181526020018280546103c39061176b565b80156104105780601f106103e557610100808354040283529160200191610410565b820191906000526020600020905b8154815290600101906020018083116103f357829003601f168201915b50505050509050919050565b6001600160a01b0385163314806104385750610438853361024b565b6104545760405162461bcd60e51b8152600401610306906117a5565b6104618585858585610865565b5050505050565b606081518351146104cd5760405162461bcd60e51b815260206004820152602960248201527f455243313135353a206163636f756e747320616e6420696473206c656e677468604482015268040dad2e6dac2e8c6d60bb1b6064820152608401610306565b6000835167ffffffffffffffff8111156104e9576104e9611249565b604051908082528060200260200182016040528015610512578160200160208202803683370190505b50905060005b845181101561058a5761055d858281518110610536576105366117f3565b6020026020010151858381518110610550576105506117f3565b602002602001015161029f565b82828151811061056f5761056f6117f3565b60209081029190910101526105838161181f565b9050610518565b509392505050565b6040516bffffffffffffffffffffffff19606085901b166020820152600090819060340160405160208183030381529060405280519060200120905061060f848480806020026020016040519081016040528093929190818152602001838360200280828437600092019190915250506004549150849050610a42565b95945050505050565b610620610a58565b61062a6000610ab2565b565b60065460008181526005602052604090205460ff161561069c5760405162461bcd60e51b815260206004820152602560248201527f546f6b656e2069732063757272656e746c79206c6f636b656420666f72206d696044820152646e74696e6760d81b6064820152608401610306565b6004546040516bffffffffffffffffffffffff19606089901b166020820152603481018790526106e991859185919060540160405160208183030381529060405280519060200120610b04565b6107355760405162461bcd60e51b815260206004820152601960248201527f43616c6c6572206973206e6f742077686974656c6973746564000000000000006044820152606401610306565b6000818152600560205260409020805460ff1916600117905561075a86828787610b1c565b6000818152600560205260408120805460ff19169055600680549161077e8361181f565b9190505550505050505050565b610793610a58565b600455565b6107a3338383610c30565b5050565b6001600160a01b0385163314806107c357506107c3853361024b565b6107df5760405162461bcd60e51b8152600401610306906117a5565b6104618585858585610d10565b6107f4610a58565b6001600160a01b0381166108595760405162461bcd60e51b815260206004820152602660248201527f4f776e61626c653a206e6577206f776e657220697320746865207a65726f206160448201526564647265737360d01b6064820152608401610306565b61086281610ab2565b50565b81518351146108c75760405162461bcd60e51b815260206004820152602860248201527f455243313135353a2069647320616e6420616d6f756e7473206c656e677468206044820152670dad2e6dac2e8c6d60c31b6064820152608401610306565b6001600160a01b0384166108ed5760405162461bcd60e51b815260040161030690611838565b3360005b84518110156109d457600085828151811061090e5761090e6117f3565b60200260200101519050600085838151811061092c5761092c6117f3565b602090810291909101810151600084815280835260408082206001600160a01b038e16835290935291909120549091508181101561097c5760405162461bcd60e51b81526004016103069061187d565b6000838152602081815260408083206001600160a01b038e8116855292528083208585039055908b168252812080548492906109b99084906118c7565b92505081905550505050806109cd9061181f565b90506108f1565b50846001600160a01b0316866001600160a01b0316826001600160a01b03167f4a39dc06d4c0dbc64b70af90fd698a233a518aa5d07e595d983b8c0526c8f7fb8787604051610a249291906118da565b60405180910390a4610a3a818787878787610e3a565b505050505050565b600082610a4f8584610f95565b14949350505050565b6003546001600160a01b0316331461062a5760405162461bcd60e51b815260206004820181905260248201527f4f776e61626c653a2063616c6c6572206973206e6f7420746865206f776e65726044820152606401610306565b600380546001600160a01b038381166001600160a01b0319831681179093556040519116919082907f8be0079c531659141344cd1fd0a4f28419497f9722a3daafe3b4186f6b6457e090600090a35050565b600082610b12868685610fda565b1495945050505050565b6001600160a01b038416610b7c5760405162461bcd60e51b815260206004820152602160248201527f455243313135353a206d696e7420746f20746865207a65726f206164647265736044820152607360f81b6064820152608401610306565b336000610b8885611026565b90506000610b9585611026565b90506000868152602081815260408083206001600160a01b038b16845290915281208054879290610bc79084906118c7565b909155505060408051878152602081018790526001600160a01b03808a1692600092918716917fc3d58168c5ae7397731d063d5bbf3d657854427343f4c083240f7aacaa2d0f62910160405180910390a4610c2783600089898989611071565b50505050505050565b816001600160a01b0316836001600160a01b031603610ca35760405162461bcd60e51b815260206004820152602960248201527f455243313135353a2073657474696e6720617070726f76616c20737461747573604482015268103337b91039b2b63360b91b6064820152608401610306565b6001600160a01b03838116600081815260016020908152604080832094871680845294825291829020805460ff191686151590811790915591519182527f17307eab39ab6107e8899845ad3d59bd9653f200f220920489ca2b5937696c31910160405180910390a3505050565b6001600160a01b038416610d365760405162461bcd60e51b815260040161030690611838565b336000610d4285611026565b90506000610d4f85611026565b90506000868152602081815260408083206001600160a01b038c16845290915290205485811015610d925760405162461bcd60e51b81526004016103069061187d565b6000878152602081815260408083206001600160a01b038d8116855292528083208985039055908a16825281208054889290610dcf9084906118c7565b909155505060408051888152602081018890526001600160a01b03808b16928c821692918816917fc3d58168c5ae7397731d063d5bbf3d657854427343f4c083240f7aacaa2d0f62910160405180910390a4610e2f848a8a8a8a8a611071565b505050505050505050565b6001600160a01b0384163b15610a3a5760405163bc197c8160e01b81526001600160a01b0385169063bc197c8190610e7e90899089908890889088906004016118ff565b6020604051808303816000875af1925050508015610eb9575060408051601f3d908101601f19168201909252610eb69181019061195d565b60015b610f6557610ec561197a565b806308c379a003610efe5750610ed9611996565b80610ee45750610f00565b8060405162461bcd60e51b81526004016103069190611236565b505b60405162461bcd60e51b815260206004820152603460248201527f455243313135353a207472616e7366657220746f206e6f6e2d455243313135356044820152732932b1b2b4bb32b91034b6b83632b6b2b73a32b960611b6064820152608401610306565b6001600160e01b0319811663bc197c8160e01b14610c275760405162461bcd60e51b815260040161030690611a20565b600081815b845181101561058a57610fc682868381518110610fb957610fb96117f3565b602002602001015161112c565b915080610fd28161181f565b915050610f9a565b600081815b8481101561101d5761100982878784818110610ffd57610ffd6117f3565b9050602002013561112c565b9150806110158161181f565b915050610fdf565b50949350505050565b60408051600180825281830190925260609160009190602080830190803683370190505090508281600081518110611060576110606117f3565b602090810291909101015292915050565b6001600160a01b0384163b15610a3a5760405163f23a6e6160e01b81526001600160a01b0385169063f23a6e61906110b59089908990889088908890600401611a68565b6020604051808303816000875af19250505080156110f0575060408051601f3d908101601f191682019092526110ed9181019061195d565b60015b6110fc57610ec561197a565b6001600160e01b0319811663f23a6e6160e01b14610c275760405162461bcd60e51b815260040161030690611a20565b6000818310611148576000828152602084905260409020611157565b60008381526020839052604090205b9392505050565b80356001600160a01b038116811461117557600080fd5b919050565b6000806040838503121561118d57600080fd5b6111968361115e565b946020939093013593505050565b6001600160e01b03198116811461086257600080fd5b6000602082840312156111cc57600080fd5b8135611157816111a4565b6000602082840312156111e957600080fd5b5035919050565b6000815180845260005b81811015611216576020818501810151868301820152016111fa565b506000602082860101526020601f19601f83011685010191505092915050565b60208152600061115760208301846111f0565b634e487b7160e01b600052604160045260246000fd5b601f8201601f1916810167ffffffffffffffff8111828210171561128557611285611249565b6040525050565b600067ffffffffffffffff8211156112a6576112a6611249565b5060051b60200190565b600082601f8301126112c157600080fd5b813560206112ce8261128c565b6040516112db828261125f565b83815260059390931b85018201928281019150868411156112fb57600080fd5b8286015b8481101561131657803583529183019183016112ff565b509695505050505050565b600082601f83011261133257600080fd5b813567ffffffffffffffff81111561134c5761134c611249565b604051611363601f8301601f19166020018261125f565b81815284602083860101111561137857600080fd5b816020850160208301376000918101602001919091529392505050565b600080600080600060a086880312156113ad57600080fd5b6113b68661115e565b94506113c46020870161115e565b9350604086013567ffffffffffffffff808211156113e157600080fd5b6113ed89838a016112b0565b9450606088013591508082111561140357600080fd5b61140f89838a016112b0565b9350608088013591508082111561142557600080fd5b5061143288828901611321565b9150509295509295909350565b6000806040838503121561145257600080fd5b823567ffffffffffffffff8082111561146a57600080fd5b818501915085601f83011261147e57600080fd5b8135602061148b8261128c565b604051611498828261125f565b83815260059390931b85018201928281019150898411156114b857600080fd5b948201945b838610156114dd576114ce8661115e565b825294820194908201906114bd565b965050860135925050808211156114f357600080fd5b50611500858286016112b0565b9150509250929050565b600081518084526020808501945080840160005b8381101561153a5781518752958201959082019060010161151e565b509495945050505050565b602081526000611157602083018461150a565b60008083601f84011261156a57600080fd5b50813567ffffffffffffffff81111561158257600080fd5b6020830191508360208260051b850101111561159d57600080fd5b9250929050565b6000806000604084860312156115b957600080fd5b6115c28461115e565b9250602084013567ffffffffffffffff8111156115de57600080fd5b6115ea86828701611558565b9497909650939450505050565b60008060008060006080868803121561160f57600080fd5b6116188661115e565b945060208601359350604086013567ffffffffffffffff8082111561163c57600080fd5b61164889838a01611321565b9450606088013591508082111561165e57600080fd5b5061166b88828901611558565b969995985093965092949392505050565b6000806040838503121561168f57600080fd5b6116988361115e565b9150602083013580151581146116ad57600080fd5b809150509250929050565b600080604083850312156116cb57600080fd5b6116d48361115e565b91506116e26020840161115e565b90509250929050565b600080600080600060a0868803121561170357600080fd5b61170c8661115e565b945061171a6020870161115e565b93506040860135925060608601359150608086013567ffffffffffffffff81111561174457600080fd5b61143288828901611321565b60006020828403121561176257600080fd5b6111578261115e565b600181811c9082168061177f57607f821691505b60208210810361179f57634e487b7160e01b600052602260045260246000fd5b50919050565b6020808252602e908201527f455243313135353a2063616c6c6572206973206e6f7420746f6b656e206f776e60408201526d195c881bdc88185c1c1c9bdd995960921b606082015260800190565b634e487b7160e01b600052603260045260246000fd5b634e487b7160e01b600052601160045260246000fd5b60006001820161183157611831611809565b5060010190565b60208082526025908201527f455243313135353a207472616e7366657220746f20746865207a65726f206164604082015264647265737360d81b606082015260800190565b6020808252602a908201527f455243313135353a20696e73756666696369656e742062616c616e636520666f60408201526939103a3930b739b332b960b11b606082015260800190565b8082018082111561033257610332611809565b6040815260006118ed604083018561150a565b828103602084015261060f818561150a565b6001600160a01b0386811682528516602082015260a06040820181905260009061192b9083018661150a565b828103606084015261193d818661150a565b9050828103608084015261195181856111f0565b98975050505050505050565b60006020828403121561196f57600080fd5b8151611157816111a4565b600060033d11156119935760046000803e5060005160e01c5b90565b600060443d10156119a45790565b6040516003193d81016004833e81513d67ffffffffffffffff81602484011181841117156119d457505050505090565b82850191508151818111156119ec5750505050505090565b843d8701016020828501011115611a065750505050505090565b611a156020828601018761125f565b509095945050505050565b60208082526028908201527f455243313135353a204552433131353552656365697665722072656a656374656040820152676420746f6b656e7360c01b606082015260800190565b6001600160a01b03868116825285166020820152604081018490526060810183905260a060808201819052600090611aa2908301846111f0565b97965050505050505056fea26469706673582212205052ee0c5093ad714ba4e9225bf470110f3576de3a1f78a768d654dba04018c964736f6c63430008110033",
  "linkReferences": {},
  "deployedLinkReferences": {}
}