{
  "_format": "hh-sol-artifact-1",
  "contractName": "TradingWallet",
  "sourceName": "contracts/TradingWallet.sol",
  "abi": [
    {
      "inputs": [
        {
          "internalType": "address",
          "name": "_executorManager",
          "type": "address"
        }
      ],
      "stateMutability": "nonpayable",
      "type": "constructor"
    },
    {
      "anonymous": false,
      "inputs": [
        {
          "indexed": true,
          "internalType": "address",
          "name": "user",
          "type": "address"
        },
        {
          "indexed": true,
          "internalType": "address",
          "name": "token",
          "type": "address"
        },
        {
          "indexed": false,
          "internalType": "uint256",
          "name": "amount",
          "type": "uint256"
        }
      ],
      "name": "Deposit",
      "type": "event"
    },
    {
      "anonymous": false,
      "inputs": [
        {
          "indexed": true,
          "internalType": "address",
          "name": "from",
          "type": "address"
        },
        {
          "indexed": true,
          "internalType": "address",
          "name": "to",
          "type": "address"
        },
        {
          "indexed": true,
          "internalType": "address",
          "name": "token",
          "type": "address"
        },
        {
          "indexed": false,
          "internalType": "uint256",
          "name": "amount",
          "type": "uint256"
        }
      ],
      "name": "UpdateBalance",
      "type": "event"
    },
    {
      "anonymous": false,
      "inputs": [
        {
          "indexed": true,
          "internalType": "address",
          "name": "user",
          "type": "address"
        },
        {
          "indexed": true,
          "internalType": "address",
          "name": "token",
          "type": "address"
        },
        {
          "indexed": false,
          "internalType": "uint256",
          "name": "amount",
          "type": "uint256"
        }
      ],
      "name": "Withdrawal",
      "type": "event"
    },
    {
      "inputs": [
        {
          "internalType": "address[]",
          "name": "fromAddresses",
          "type": "address[]"
        },
        {
          "internalType": "address[]",
          "name": "toAddresses",
          "type": "address[]"
        },
        {
          "internalType": "address",
          "name": "token",
          "type": "address"
        },
        {
          "internalType": "uint256[]",
          "name": "amounts",
          "type": "uint256[]"
        }
      ],
      "name": "batchUpdateBalances",
      "outputs": [],
      "stateMutability": "nonpayable",
      "type": "function"
    },
    {
      "inputs": [
        {
          "internalType": "address",
          "name": "token",
          "type": "address"
        },
        {
          "internalType": "uint256",
          "name": "amount",
          "type": "uint256"
        }
      ],
      "name": "depositERC20",
      "outputs": [],
      "stateMutability": "nonpayable",
      "type": "function"
    },
    {
      "inputs": [],
      "name": "depositETH",
      "outputs": [],
      "stateMutability": "payable",
      "type": "function"
    },
    {
      "inputs": [],
      "name": "executorManager",
      "outputs": [
        {
          "internalType": "contract IExecutorManager",
          "name": "",
          "type": "address"
        }
      ],
      "stateMutability": "view",
      "type": "function"
    },
    {
      "inputs": [
        {
          "internalType": "address",
          "name": "user",
          "type": "address"
        },
        {
          "internalType": "address",
          "name": "token",
          "type": "address"
        }
      ],
      "name": "getERC20Balance",
      "outputs": [
        {
          "internalType": "uint256",
          "name": "",
          "type": "uint256"
        }
      ],
      "stateMutability": "view",
      "type": "function"
    },
    {
      "inputs": [
        {
          "internalType": "address",
          "name": "token",
          "type": "address"
        },
        {
          "internalType": "uint256",
          "name": "amount",
          "type": "uint256"
        }
      ],
      "name": "withdrawERC20",
      "outputs": [],
      "stateMutability": "nonpayable",
      "type": "function"
    }
  ],
  "bytecode": "0x608060405234801561001057600080fd5b50604051610c44380380610c4483398101604081905261002f91610059565b6001600055600280546001600160a01b0319166001600160a01b0392909216919091179055610089565b60006020828403121561006b57600080fd5b81516001600160a01b038116811461008257600080fd5b9392505050565b610bac806100986000396000f3fe6080604052600436106100555760003560e01c8063384191041461005a57806397feb9261461007c578063a1db97821461009c578063c0883b92146100bc578063c3a8962c146100f9578063f6326fb314610127575b600080fd5b34801561006657600080fd5b5061007a610075366004610953565b61012f565b005b34801561008857600080fd5b5061007a610097366004610a40565b61043f565b3480156100a857600080fd5b5061007a6100b7366004610a40565b6105a3565b3480156100c857600080fd5b506002546100dc906001600160a01b031681565b6040516001600160a01b0390911681526020015b60405180910390f35b34801561010557600080fd5b50610119610114366004610a6a565b610739565b6040519081526020016100f0565b61007a610766565b610137610801565b600254604051630debfda360e41b81523360048201526001600160a01b039091169063debfda3090602401602060405180830381865afa15801561017f573d6000803e3d6000fd5b505050506040513d601f19601f820116820180604052508101906101a39190610a9d565b6101ff5760405162461bcd60e51b815260206004820152602260248201527f5065726d697373696f6e2064656e69656420666f72206e6f6e2d65786563757460448201526137b960f11b60648201526084015b60405180910390fd5b82518451148015610211575080518351145b61025d5760405162461bcd60e51b815260206004820181905260248201527f417272617973206d7573742068617665207468652073616d65206c656e67746860448201526064016101f6565b60005b845181101561042e57600085828151811061027d5761027d610ac6565b60200260200101519050600085838151811061029b5761029b610ac6565b6020026020010151905060008484815181106102b9576102b9610ac6565b6020908102919091018101516001600160a01b038086166000908152600184526040808220928b16825291909352909120549091508111156103475760405162461bcd60e51b815260206004820152602160248201527f496e73756666696369656e742062616c616e636520666f72207472616e7366656044820152603960f91b60648201526084016101f6565b6001600160a01b038084166000908152600160209081526040808320938a168352929052908120805483929061037e908490610af2565b90915550506001600160a01b038083166000908152600160209081526040808320938a16835292905290812080548392906103ba908490610b05565b92505081905550856001600160a01b0316826001600160a01b0316846001600160a01b03167f574df9673a0ccb6b90a7b340bd6334f98323bd2b74c515ae8aa95243de848c488460405161041091815260200190565b60405180910390a4505050808061042690610b18565b915050610260565b506104396001600055565b50505050565b610447610801565b600081116104675760405162461bcd60e51b81526004016101f690610b31565b6040516323b872dd60e01b8152336004820152306024820152604481018290526001600160a01b038316906323b872dd906064016020604051808303816000875af11580156104ba573d6000803e3d6000fd5b505050506040513d601f19601f820116820180604052508101906104de9190610a9d565b61051c5760405162461bcd60e51b815260206004820152600f60248201526e151c985b9cd9995c8819985a5b1959608a1b60448201526064016101f6565b3360009081526001602090815260408083206001600160a01b03861684529091528120805483929061054f908490610b05565b90915550506040518181526001600160a01b0383169033907f5548c837ab068cf56a2c2479df0882a4922fd203edb7517321831d95078c5f62906020015b60405180910390a361059f6001600055565b5050565b6105ab610801565b3360009081526001602090815260408083206001600160a01b03861684529091529020548111156106155760405162461bcd60e51b8152602060048201526014602482015273496e73756666696369656e742062616c616e636560601b60448201526064016101f6565b3360009081526001602090815260408083206001600160a01b038616845290915281208054839290610648908490610af2565b909155505060405163a9059cbb60e01b8152336004820152602481018290526001600160a01b0383169063a9059cbb906044016020604051808303816000875af115801561069a573d6000803e3d6000fd5b505050506040513d601f19601f820116820180604052508101906106be9190610a9d565b6106fc5760405162461bcd60e51b815260206004820152600f60248201526e151c985b9cd9995c8819985a5b1959608a1b60448201526064016101f6565b6040518181526001600160a01b0383169033907f2717ead6b9200dd235aad468c9809ea400fe33ac69b5bfaa6d3e90fc922b63989060200161058d565b6001600160a01b038083166000908152600160209081526040808320938516835292905220545b92915050565b61076e610801565b6000341161078e5760405162461bcd60e51b81526004016101f690610b31565b336000908152600160209081526040808320838052909152812080543492906107b8908490610b05565b909155505060405134815260009033907f5548c837ab068cf56a2c2479df0882a4922fd203edb7517321831d95078c5f629060200160405180910390a36107ff6001600055565b565b6002600054036108535760405162461bcd60e51b815260206004820152601f60248201527f5265656e7472616e637947756172643a207265656e7472616e742063616c6c0060448201526064016101f6565b6002600055565b634e487b7160e01b600052604160045260246000fd5b604051601f8201601f1916810167ffffffffffffffff811182821017156108995761089961085a565b604052919050565b600067ffffffffffffffff8211156108bb576108bb61085a565b5060051b60200190565b80356001600160a01b03811681146108dc57600080fd5b919050565b600082601f8301126108f257600080fd5b81356020610907610902836108a1565b610870565b82815260059290921b8401810191818101908684111561092657600080fd5b8286015b848110156109485761093b816108c5565b835291830191830161092a565b509695505050505050565b6000806000806080858703121561096957600080fd5b843567ffffffffffffffff8082111561098157600080fd5b61098d888389016108e1565b95506020915081870135818111156109a457600080fd5b6109b089828a016108e1565b9550506109bf604088016108c5565b93506060870135818111156109d357600080fd5b87019050601f810188136109e657600080fd5b80356109f4610902826108a1565b81815260059190911b8201830190838101908a831115610a1357600080fd5b928401925b82841015610a3157833582529284019290840190610a18565b979a9699509497505050505050565b60008060408385031215610a5357600080fd5b610a5c836108c5565b946020939093013593505050565b60008060408385031215610a7d57600080fd5b610a86836108c5565b9150610a94602084016108c5565b90509250929050565b600060208284031215610aaf57600080fd5b81518015158114610abf57600080fd5b9392505050565b634e487b7160e01b600052603260045260246000fd5b634e487b7160e01b600052601160045260246000fd5b8181038181111561076057610760610adc565b8082018082111561076057610760610adc565b600060018201610b2a57610b2a610adc565b5060010190565b60208082526025908201527f4465706f73697420616d6f756e74206d75737420626520677265617465722074604082015264068616e20360dc1b60608201526080019056fea264697066735822122047fd7a23e5d2253bec588b46b14e17c3132dd5c0cd3fa12af23432654792690164736f6c63430008130033",
  "linkReferences": {},
  "deployedLinkReferences": {}
}