{
  "_format": "hh-sol-artifact-1",
  "contractName": "TradingWallet",
  "sourceName": "contracts/TradingWallet.sol",
  "abi": [
    {
      "anonymous": false,
      "inputs": [
        {
          "indexed": true,
          "internalType": "address",
          "name": "user",
          "type": "address"
        },
        {
          "indexed": true,
          "internalType": "address",
          "name": "token",
          "type": "address"
        },
        {
          "indexed": false,
          "internalType": "uint256",
          "name": "amount",
          "type": "uint256"
        }
      ],
      "name": "Deposit",
      "type": "event"
    },
    {
      "inputs": [
        {
          "internalType": "address",
          "name": "token",
          "type": "address"
        },
        {
          "internalType": "uint256",
          "name": "amount",
          "type": "uint256"
        }
      ],
      "name": "depositERC20",
      "outputs": [],
      "stateMutability": "nonpayable",
      "type": "function"
    },
    {
      "inputs": [],
      "name": "depositETH",
      "outputs": [],
      "stateMutability": "payable",
      "type": "function"
    }
  ],
  "bytecode": "0x608060405234801561001057600080fd5b50610285806100206000396000f3fe6080604052600436106100295760003560e01c806397feb9261461002e578063f6326fb314610050575b600080fd5b34801561003a57600080fd5b5061004e6100493660046101ee565b610058565b005b61004e610156565b6040516323b872dd60e01b8152336004820152306024820152604481018290526001600160a01b038316906323b872dd906064016020604051808303816000875af11580156100ab573d6000803e3d6000fd5b505050506040513d601f19601f820116820180604052508101906100cf9190610226565b6101125760405162461bcd60e51b815260206004820152600f60248201526e151c985b9cd9995c8819985a5b1959608a1b60448201526064015b60405180910390fd5b6040518181526001600160a01b0383169033907f5548c837ab068cf56a2c2479df0882a4922fd203edb7517321831d95078c5f629060200160405180910390a35050565b600034116101b45760405162461bcd60e51b815260206004820152602560248201527f4465706f73697420616d6f756e74206d75737420626520677265617465722074604482015264068616e20360dc1b6064820152608401610109565b60405134815260009033907f5548c837ab068cf56a2c2479df0882a4922fd203edb7517321831d95078c5f629060200160405180910390a3565b6000806040838503121561020157600080fd5b82356001600160a01b038116811461021857600080fd5b946020939093013593505050565b60006020828403121561023857600080fd5b8151801515811461024857600080fd5b939250505056fea2646970667358221220557d5796df1db5c9b3e96262fb6fb4a70a7962ca9d3437cf0d6ac06102e2194164736f6c63430008130033",
  "linkReferences": {},
  "deployedLinkReferences": {}
}