{
  "_format": "hh-sol-artifact-1",
  "contractName": "DOTCBundlerService",
  "sourceName": "contracts/DOTCBundlerService.sol",
  "abi": [
    {
      "inputs": [
        {
          "internalType": "uint64",
          "name": "_vrfSubscriptionId",
          "type": "uint64"
        },
        {
          "internalType": "address",
          "name": "router",
          "type": "address"
        }
      ],
      "stateMutability": "nonpayable",
      "type": "constructor"
    },
    {
      "inputs": [],
      "name": "EmptyArgs",
      "type": "error"
    },
    {
      "inputs": [],
      "name": "EmptySecrets",
      "type": "error"
    },
    {
      "inputs": [],
      "name": "EmptySource",
      "type": "error"
    },
    {
      "inputs": [],
      "name": "NoInlineSecrets",
      "type": "error"
    },
    {
      "inputs": [
        {
          "internalType": "address",
          "name": "have",
          "type": "address"
        },
        {
          "internalType": "address",
          "name": "want",
          "type": "address"
        }
      ],
      "name": "OnlyCoordinatorCanFulfill",
      "type": "error"
    },
    {
      "inputs": [],
      "name": "OnlyRouterCanFulfill",
      "type": "error"
    },
    {
      "inputs": [
        {
          "internalType": "bytes32",
          "name": "requestId",
          "type": "bytes32"
        }
      ],
      "name": "UnexpectedCLFnRequestID",
      "type": "error"
    },
    {
      "anonymous": false,
      "inputs": [
        {
          "indexed": false,
          "internalType": "uint256",
          "name": "requestId",
          "type": "uint256"
        },
        {
          "indexed": false,
          "internalType": "uint256[]",
          "name": "bundlerIds",
          "type": "uint256[]"
        }
      ],
      "name": "BundlerIdRequestFulfilled",
      "type": "event"
    },
    {
      "anonymous": false,
      "inputs": [
        {
          "indexed": true,
          "internalType": "address",
          "name": "from",
          "type": "address"
        },
        {
          "indexed": true,
          "internalType": "address",
          "name": "to",
          "type": "address"
        }
      ],
      "name": "OwnershipTransferRequested",
      "type": "event"
    },
    {
      "anonymous": false,
      "inputs": [
        {
          "indexed": true,
          "internalType": "address",
          "name": "from",
          "type": "address"
        },
        {
          "indexed": true,
          "internalType": "address",
          "name": "to",
          "type": "address"
        }
      ],
      "name": "OwnershipTransferred",
      "type": "event"
    },
    {
      "anonymous": false,
      "inputs": [
        {
          "indexed": true,
          "internalType": "bytes32",
          "name": "id",
          "type": "bytes32"
        }
      ],
      "name": "RequestFulfilled",
      "type": "event"
    },
    {
      "anonymous": false,
      "inputs": [
        {
          "indexed": false,
          "internalType": "uint256",
          "name": "requestId",
          "type": "uint256"
        },
        {
          "indexed": false,
          "internalType": "uint32",
          "name": "numWords",
          "type": "uint32"
        }
      ],
      "name": "RequestSent",
      "type": "event"
    },
    {
      "anonymous": false,
      "inputs": [
        {
          "indexed": true,
          "internalType": "bytes32",
          "name": "id",
          "type": "bytes32"
        }
      ],
      "name": "RequestSent",
      "type": "event"
    },
    {
      "anonymous": false,
      "inputs": [
        {
          "indexed": true,
          "internalType": "bytes32",
          "name": "requestId",
          "type": "bytes32"
        },
        {
          "indexed": false,
          "internalType": "bytes",
          "name": "response",
          "type": "bytes"
        },
        {
          "indexed": false,
          "internalType": "bytes",
          "name": "err",
          "type": "bytes"
        }
      ],
      "name": "Response",
      "type": "event"
    },
    {
      "inputs": [],
      "name": "acceptOwnership",
      "outputs": [],
      "stateMutability": "nonpayable",
      "type": "function"
    },
    {
      "inputs": [
        {
          "internalType": "uint256",
          "name": "",
          "type": "uint256"
        }
      ],
      "name": "bundlerIdRequests",
      "outputs": [
        {
          "internalType": "bool",
          "name": "fulfilled",
          "type": "bool"
        },
        {
          "internalType": "bool",
          "name": "exists",
          "type": "bool"
        }
      ],
      "stateMutability": "view",
      "type": "function"
    },
    {
      "inputs": [
        {
          "internalType": "uint256",
          "name": "_requestId",
          "type": "uint256"
        }
      ],
      "name": "getRequestStatus",
      "outputs": [
        {
          "internalType": "bool",
          "name": "fulfilled",
          "type": "bool"
        },
        {
          "internalType": "uint256[]",
          "name": "bundlerIds",
          "type": "uint256[]"
        }
      ],
      "stateMutability": "view",
      "type": "function"
    },
    {
      "inputs": [
        {
          "internalType": "bytes32",
          "name": "requestId",
          "type": "bytes32"
        },
        {
          "internalType": "bytes",
          "name": "response",
          "type": "bytes"
        },
        {
          "internalType": "bytes",
          "name": "err",
          "type": "bytes"
        }
      ],
      "name": "handleOracleFulfillment",
      "outputs": [],
      "stateMutability": "nonpayable",
      "type": "function"
    },
    {
      "inputs": [],
      "name": "lastRequestId",
      "outputs": [
        {
          "internalType": "uint256",
          "name": "",
          "type": "uint256"
        }
      ],
      "stateMutability": "view",
      "type": "function"
    },
    {
      "inputs": [],
      "name": "owner",
      "outputs": [
        {
          "internalType": "address",
          "name": "",
          "type": "address"
        }
      ],
      "stateMutability": "view",
      "type": "function"
    },
    {
      "inputs": [
        {
          "internalType": "uint256",
          "name": "requestId",
          "type": "uint256"
        },
        {
          "internalType": "uint256[]",
          "name": "randomWords",
          "type": "uint256[]"
        }
      ],
      "name": "rawFulfillRandomWords",
      "outputs": [],
      "stateMutability": "nonpayable",
      "type": "function"
    },
    {
      "inputs": [],
      "name": "requestBundlerId",
      "outputs": [
        {
          "internalType": "uint256",
          "name": "requestId",
          "type": "uint256"
        }
      ],
      "stateMutability": "nonpayable",
      "type": "function"
    },
    {
      "inputs": [
        {
          "internalType": "uint256",
          "name": "",
          "type": "uint256"
        }
      ],
      "name": "requestIds",
      "outputs": [
        {
          "internalType": "uint256",
          "name": "",
          "type": "uint256"
        }
      ],
      "stateMutability": "view",
      "type": "function"
    },
    {
      "inputs": [],
      "name": "s_lastError",
      "outputs": [
        {
          "internalType": "bytes",
          "name": "",
          "type": "bytes"
        }
      ],
      "stateMutability": "view",
      "type": "function"
    },
    {
      "inputs": [],
      "name": "s_lastRequestId",
      "outputs": [
        {
          "internalType": "bytes32",
          "name": "",
          "type": "bytes32"
        }
      ],
      "stateMutability": "view",
      "type": "function"
    },
    {
      "inputs": [],
      "name": "s_lastResponse",
      "outputs": [
        {
          "internalType": "bytes",
          "name": "",
          "type": "bytes"
        }
      ],
      "stateMutability": "view",
      "type": "function"
    },
    {
      "inputs": [
        {
          "internalType": "string",
          "name": "source",
          "type": "string"
        },
        {
          "internalType": "bytes",
          "name": "encryptedSecretsUrls",
          "type": "bytes"
        },
        {
          "internalType": "uint8",
          "name": "donHostedSecretsSlotID",
          "type": "uint8"
        },
        {
          "internalType": "uint64",
          "name": "donHostedSecretsVersion",
          "type": "uint64"
        },
        {
          "internalType": "string[]",
          "name": "args",
          "type": "string[]"
        },
        {
          "internalType": "bytes[]",
          "name": "bytesArgs",
          "type": "bytes[]"
        },
        {
          "internalType": "uint64",
          "name": "subscriptionId",
          "type": "uint64"
        },
        {
          "internalType": "uint32",
          "name": "gasLimit",
          "type": "uint32"
        },
        {
          "internalType": "bytes32",
          "name": "donID",
          "type": "bytes32"
        }
      ],
      "name": "sendRequest",
      "outputs": [
        {
          "internalType": "bytes32",
          "name": "requestId",
          "type": "bytes32"
        }
      ],
      "stateMutability": "nonpayable",
      "type": "function"
    },
    {
      "inputs": [
        {
          "internalType": "address",
          "name": "to",
          "type": "address"
        }
      ],
      "name": "transferOwnership",
      "outputs": [],
      "stateMutability": "nonpayable",
      "type": "function"
    }
  ],
  "bytecode": "0x60c06040527f354d2f95da55398f44b7cff77da56283d9c6c829a4bdf1bbcaf2ad6a4d081f61600955600a80546001600160501b03191666010003000186a01790553480156200004e57600080fd5b50604051620020ea380380620020ea833981016040819052620000719162000212565b732ed832ba664535e5886b75d64c46eb9a228c2610608052803380600081620000e15760405162461bcd60e51b815260206004820152601860248201527f43616e6e6f7420736574206f776e657220746f207a65726f000000000000000060448201526064015b60405180910390fd5b600080546001600160a01b0319166001600160a01b03848116919091179091558116156200011457620001148162000167565b5050506001600160a01b031660a05250600380546001600160401b03909216600160a01b026001600160e01b031990921691909117732ed832ba664535e5886b75d64c46eb9a228c261017905562000267565b336001600160a01b03821603620001c15760405162461bcd60e51b815260206004820152601760248201527f43616e6e6f74207472616e7366657220746f2073656c660000000000000000006044820152606401620000d8565b600180546001600160a01b0319166001600160a01b0383811691821790925560008054604051929316917fed8889f560326eb138920d842192f0eb3dd22b4f139c87a2c57538e05bae12789190a350565b600080604083850312156200022657600080fd5b82516001600160401b03811681146200023e57600080fd5b60208401519092506001600160a01b03811681146200025c57600080fd5b809150509250929050565b60805160a051611e4f6200029b600039600081816102300152610dd70152600081816102b401526102f60152611e4f6000f3fe608060405234801561001057600080fd5b50600436106100ea5760003560e01c80637ad1e26e1161008c578063b1e2174911610066578063b1e21749146101df578063d8a4676f146101e8578063f2fde38b14610209578063fc2a88c31461021c57600080fd5b80637ad1e26e146101a95780638796ba8c146101b15780638da5cb5b146101c457600080fd5b806348ea8609116100c857806348ea8609146101355780634b0795a81461017857806352a81eeb1461018057806379ba5097146101a157600080fd5b80630ca76175146100ef5780631fe543e3146101045780633944ea3a14610117575b600080fd5b6101026100fd366004611596565b610225565b005b610102610112366004611625565b6102a9565b61011f610336565b60405161012c919061170c565b60405180910390f35b61016161014336600461171f565b60026020526000908152604090205460ff8082169161010090041682565b60408051921515835290151560208301520161012c565b61011f6103c4565b61019361018e366004611882565b6103d1565b60405190815260200161012c565b6101026104a0565b61019361054a565b6101936101bf36600461171f565b61070e565b6000546040516001600160a01b03909116815260200161012c565b61019360065481565b6101fb6101f636600461171f565b61072f565b60405161012c9291906119b6565b6101026102173660046119d9565b610823565b61019360055481565b336001600160a01b037f0000000000000000000000000000000000000000000000000000000000000000161461026e5760405163c6829f8360e01b815260040160405180910390fd5b610279838383610837565b60405183907f85e1543bf2f84fe80c6badbce3648c8539ad1df4d2b3d822938ca0538be727e690600090a2505050565b336001600160a01b037f000000000000000000000000000000000000000000000000000000000000000016146103285760405163073e64fd60e21b81523360048201526001600160a01b037f00000000000000000000000000000000000000000000000000000000000000001660248201526044015b60405180910390fd5b61033282826108b7565b5050565b6007805461034390611a02565b80601f016020809104026020016040519081016040528092919081815260200182805461036f90611a02565b80156103bc5780601f10610391576101008083540402835291602001916103bc565b820191906000526020600020905b81548152906001019060200180831161039f57829003601f168201915b505050505081565b6008805461034390611a02565b60006103db61097d565b61041c6040805160e0810190915280600081526020016000815260200160008152602001606081526020016060815260200160608152602001606081525090565b610426818c6109d2565b89511561043c57610437818b6109df565b610456565b6001600160401b0388161561045657610456818a8a610a10565b865115610467576104678188610aa6565b855115610478576104788187610ad0565b61048c61048482610afa565b868686610dd2565b60068190559b9a5050505050505050505050565b6001546001600160a01b031633146104f35760405162461bcd60e51b815260206004820152601660248201527526bab9ba10313290383937b837b9b2b21037bbb732b960511b604482015260640161031f565b60008054336001600160a01b0319808316821784556001805490911690556040516001600160a01b0390921692909183917f8be0079c531659141344cd1fd0a4f28419497f9722a3daafe3b4186f6b6457e091a350565b600061055461097d565b600354600954600a546040516305d3b1d360e41b81526004810192909252600160a01b83046001600160401b03166024830152640100000000810461ffff16604483015263ffffffff808216606484015266010000000000009091041660848201526001600160a01b0390911690635d3b1d309060a4016020604051808303816000875af11580156105ea573d6000803e3d6000fd5b505050506040513d601f19601f8201168201806040525081019061060e9190611a3c565b6040805160608101825260008082526001602080840182815285518481528083018752858701908152878552600283529590932084518154945161ffff1990951690151561ff00191617610100941515949094029390931783559351805195965092949193610683939185019291019061144c565b5050600480546001810182556000919091527f8a35acfbc15ff81a39ae7d344fd709f28e8600b4aa8c65c6b64bfe7fe36bd19b01829055506005819055600a5460408051838152660100000000000090920463ffffffff1660208301527fcc58b13ad3eab50626c6a6300b1d139cd6ebb1688a7cced9461c2f7e762665ee910160405180910390a190565b6004818154811061071e57600080fd5b600091825260209091200154905081565b600081815260026020526040812054606090610100900460ff166107895760405162461bcd60e51b81526020600482015260116024820152701c995c5d595cdd081b9bdd08199bdd5b99607a1b604482015260640161031f565b60008381526002602090815260408083208151606081018352815460ff808216151583526101009091041615158185015260018201805484518187028101870186528181529295939486019383018282801561080457602002820191906000526020600020905b8154815260200190600101908083116107f0575b5050505050815250509050806000015181604001519250925050915091565b61082b61097d565b61083481610ea4565b50565b826006541461085c5760405163298af5a160e11b81526004810184905260240161031f565b60076108688382611aa3565b5060086108758282611aa3565b50827f7873807bf6ddc50401cd3d29bbe0decee23fd4d68d273f4b5eb83cded4d2f172600760086040516108aa929190611bdf565b60405180910390a2505050565b600082815260026020526040902054610100900460ff1661090e5760405162461bcd60e51b81526020600482015260116024820152701c995c5d595cdd081b9bdd08199bdd5b99607a1b604482015260640161031f565b6000828152600260209081526040909120805460ff191660019081178255835161093f93929091019184019061144c565b507f2a6397164cb289acd15bdeafe099df45082f777cf290a245a4376dc31256bd3a8282604051610971929190611c0d565b60405180910390a15050565b6000546001600160a01b031633146109d05760405162461bcd60e51b815260206004820152601660248201527527b7363c9031b0b63630b1363290313c9037bbb732b960511b604482015260640161031f565b565b6103328260008084610f4d565b8051600003610a015760405163e889636f60e01b815260040160405180910390fd5b60016020830152608090910152565b6000610a1d610100610fcb565b9050610a50604051806040016040528060068152602001651cdb1bdd125160d21b81525082610fec90919063ffffffff16565b610a5d8160ff851661100a565b6040805180820190915260078152663b32b939b4b7b760c91b6020820152610a86908290610fec565b610a90818361100a565b6002602085015251516080909301929092525050565b8051600003610ac85760405163fe936cb760e01b815260040160405180910390fd5b60a090910152565b8051600003610af25760405163fe936cb760e01b815260040160405180910390fd5b60c090910152565b60606000610b09610100610fcb565b9050610b426040518060400160405280600c81526020016b31b7b232a637b1b0ba34b7b760a11b81525082610fec90919063ffffffff16565b8251610b60906002811115610b5957610b59611c26565b8290611016565b6040805180820190915260088152676c616e677561676560c01b6020820152610b8a908290610fec565b6040830151610ba1908015610b5957610b59611c26565b604080518082019091526006815265736f7572636560d01b6020820152610bc9908290610fec565b6060830151610bd9908290610fec565b60a08301515115610c6d576040805180820190915260048152636172677360e01b6020820152610c0a908290610fec565b610c138161104f565b60005b8360a0015151811015610c6357610c538460a001518281518110610c3c57610c3c611c3c565b602002602001015183610fec90919063ffffffff16565b610c5c81611c68565b9050610c16565b50610c6d81611073565b60808301515115610d3157600083602001516002811115610c9057610c90611c26565b03610cae5760405163a80d31f760e01b815260040160405180910390fd5b60408051808201909152600f81526e39b2b1b932ba39a637b1b0ba34b7b760891b6020820152610cdf908290610fec565b610cf883602001516002811115610b5957610b59611c26565b6040805180820190915260078152667365637265747360c81b6020820152610d21908290610fec565b6080830151610d31908290611091565b60c08301515115610dca5760408051808201909152600981526862797465734172677360b81b6020820152610d67908290610fec565b610d708161104f565b60005b8360c0015151811015610dc057610db08460c001518281518110610d9957610d99611c3c565b60200260200101518361109190919063ffffffff16565b610db981611c68565b9050610d73565b50610dca81611073565b515192915050565b6000807f00000000000000000000000000000000000000000000000000000000000000006001600160a01b031663461d27628688600188886040518663ffffffff1660e01b8152600401610e2a959493929190611c81565b6020604051808303816000875af1158015610e49573d6000803e3d6000fd5b505050506040513d601f19601f82011682018060405250810190610e6d9190611a3c565b60405190915081907f1131472297a800fee664d1d89cfa8f7676ff07189ecc53f80bbb5f4969099db890600090a295945050505050565b336001600160a01b03821603610efc5760405162461bcd60e51b815260206004820152601760248201527f43616e6e6f74207472616e7366657220746f2073656c66000000000000000000604482015260640161031f565b600180546001600160a01b0319166001600160a01b0383811691821790925560008054604051929316917fed8889f560326eb138920d842192f0eb3dd22b4f139c87a2c57538e05bae12789190a350565b8051600003610f6f576040516322ce3edd60e01b815260040160405180910390fd5b83836002811115610f8257610f82611c26565b90816002811115610f9557610f95611c26565b90525060408401828015610fab57610fab611c26565b90818015610fbb57610fbb611c26565b9052506060909301929092525050565b610fd3611497565b8051610fdf908361109e565b5060006020820152919050565b610ff98260038351611118565b81516110059082611237565b505050565b61033282600083611118565b81516110239060c261125f565b50610332828260405160200161103b91815260200190565b604051602081830303815290604052611091565b61105a8160046112c8565b60018160200181815161106d9190611cca565b90525050565b61107e8160076112c8565b60018160200181815161106d9190611cdd565b610ff98260028351611118565b6040805180820190915260608152600060208201526110be602083611cf0565b156110e6576110ce602083611cf0565b6110d9906020611cdd565b6110e39083611cca565b91505b60208084018390526040518085526000815290818401018181101561110a57600080fd5b604052508290505b92915050565b6017816001600160401b03161161114457825161113e9060e0600585901b16831761125f565b50505050565b60ff816001600160401b03161161118457825161116c906018611fe0600586901b161761125f565b50825161113e906001600160401b03831660016112df565b61ffff816001600160401b0316116111c55782516111ad906019611fe0600586901b161761125f565b50825161113e906001600160401b03831660026112df565b63ffffffff816001600160401b0316116112085782516111f090601a611fe0600586901b161761125f565b50825161113e906001600160401b03831660046112df565b825161121f90601b611fe0600586901b161761125f565b50825161113e906001600160401b03831660086112df565b60408051808201909152606081526000602082015261125883838451611364565b9392505050565b6040805180820190915260608152600060208201528251516000611284826001611cca565b9050846020015182106112a5576112a5856112a0836002611d12565b611435565b84516020838201018581535080518211156112be578181525b5093949350505050565b815161100590601f611fe0600585901b161761125f565b60408051808201909152606081526000602082015283515160006113038285611cca565b9050856020015181111561132057611320866112a0836002611d12565b6000600161133086610100611e0d565b61133a9190611cdd565b90508651828101878319825116178152508051831115611358578281525b50959695505050505050565b604080518082019091526060815260006020820152825182111561138757600080fd5b83515160006113968483611cca565b905085602001518111156113b3576113b3866112a0836002611d12565b8551805183820160200191600091808511156113cd578482525b505050602086015b6020861061140d57805182526113ec602083611cca565b91506113f9602082611cca565b9050611406602087611cdd565b95506113d5565b51815160001960208890036101000a0190811690199190911617905250849150509392505050565b8151611441838361109e565b5061113e8382611237565b828054828255906000526020600020908101928215611487579160200282015b8281111561148757825182559160200191906001019061146c565b506114939291506114cc565b5090565b60405180604001604052806114bf604051806040016040528060608152602001600081525090565b8152602001600081525090565b5b8082111561149357600081556001016114cd565b634e487b7160e01b600052604160045260246000fd5b604051601f8201601f191681016001600160401b038111828210171561151f5761151f6114e1565b604052919050565b600082601f83011261153857600080fd5b81356001600160401b03811115611551576115516114e1565b611564601f8201601f19166020016114f7565b81815284602083860101111561157957600080fd5b816020850160208301376000918101602001919091529392505050565b6000806000606084860312156115ab57600080fd5b8335925060208401356001600160401b03808211156115c957600080fd5b6115d587838801611527565b935060408601359150808211156115eb57600080fd5b506115f886828701611527565b9150509250925092565b60006001600160401b0382111561161b5761161b6114e1565b5060051b60200190565b6000806040838503121561163857600080fd5b823591506020808401356001600160401b0381111561165657600080fd5b8401601f8101861361166757600080fd5b803561167a61167582611602565b6114f7565b81815260059190911b8201830190838101908883111561169957600080fd5b928401925b828410156116b75783358252928401929084019061169e565b80955050505050509250929050565b6000815180845260005b818110156116ec576020818501810151868301820152016116d0565b506000602082860101526020601f19601f83011685010191505092915050565b60208152600061125860208301846116c6565b60006020828403121561173157600080fd5b5035919050565b803560ff8116811461174957600080fd5b919050565b80356001600160401b038116811461174957600080fd5b600082601f83011261177657600080fd5b8135602061178661167583611602565b82815260059290921b840181019181810190868411156117a557600080fd5b8286015b848110156117e45780356001600160401b038111156117c85760008081fd5b6117d68986838b0101611527565b8452509183019183016117a9565b509695505050505050565b600082601f83011261180057600080fd5b8135602061181061167583611602565b82815260059290921b8401810191818101908684111561182f57600080fd5b8286015b848110156117e45780356001600160401b038111156118525760008081fd5b6118608986838b0101611527565b845250918301918301611833565b803563ffffffff8116811461174957600080fd5b60008060008060008060008060006101208a8c0312156118a157600080fd5b89356001600160401b03808211156118b857600080fd5b6118c48d838e01611527565b9a5060208c01359150808211156118da57600080fd5b6118e68d838e01611527565b99506118f460408d01611738565b985061190260608d0161174e565b975060808c013591508082111561191857600080fd5b6119248d838e01611765565b965060a08c013591508082111561193a57600080fd5b506119478c828d016117ef565b94505061195660c08b0161174e565b925061196460e08b0161186e565b91506101008a013590509295985092959850929598565b600081518084526020808501945080840160005b838110156119ab5781518752958201959082019060010161198f565b509495945050505050565b82151581526040602082015260006119d1604083018461197b565b949350505050565b6000602082840312156119eb57600080fd5b81356001600160a01b038116811461125857600080fd5b600181811c90821680611a1657607f821691505b602082108103611a3657634e487b7160e01b600052602260045260246000fd5b50919050565b600060208284031215611a4e57600080fd5b5051919050565b601f82111561100557600081815260208120601f850160051c81016020861015611a7c5750805b601f850160051c820191505b81811015611a9b57828155600101611a88565b505050505050565b81516001600160401b03811115611abc57611abc6114e1565b611ad081611aca8454611a02565b84611a55565b602080601f831160018114611b055760008415611aed5750858301515b600019600386901b1c1916600185901b178555611a9b565b600085815260208120601f198616915b82811015611b3457888601518255948401946001909101908401611b15565b5085821015611b525787850151600019600388901b60f8161c191681555b5050505050600190811b01905550565b60008154611b6f81611a02565b808552602060018381168015611b8c5760018114611ba657611bd4565b60ff1985168884015283151560051b880183019550611bd4565b866000528260002060005b85811015611bcc5781548a8201860152908301908401611bb1565b890184019650505b505050505092915050565b604081526000611bf26040830185611b62565b8281036020840152611c048185611b62565b95945050505050565b8281526040602082015260006119d1604083018461197b565b634e487b7160e01b600052602160045260246000fd5b634e487b7160e01b600052603260045260246000fd5b634e487b7160e01b600052601160045260246000fd5b600060018201611c7a57611c7a611c52565b5060010190565b6001600160401b038616815260a060208201526000611ca360a08301876116c6565b61ffff9590951660408301525063ffffffff92909216606083015260809091015292915050565b8082018082111561111257611112611c52565b8181038181111561111257611112611c52565b600082611d0d57634e487b7160e01b600052601260045260246000fd5b500690565b808202811582820484141761111257611112611c52565b600181815b80851115611d64578160001904821115611d4a57611d4a611c52565b80851615611d5757918102915b93841c9390800290611d2e565b509250929050565b600082611d7b57506001611112565b81611d8857506000611112565b8160018114611d9e5760028114611da857611dc4565b6001915050611112565b60ff841115611db957611db9611c52565b50506001821b611112565b5060208310610133831016604e8410600b8410161715611de7575081810a611112565b611df18383611d29565b8060001904821115611e0557611e05611c52565b029392505050565b60006112588383611d6c56fea26469706673582212203bd5889729d261e17b88307e1c564c5bedde8a006297e065b01ac778d4ad327564736f6c63430008130033",
  "linkReferences": {},
  "deployedLinkReferences": {}
}